{
  "contractName": "DigitalMuseum",
  "abi": [
    {
      "inputs": [],
      "stateMutability": "nonpayable",
      "type": "constructor"
    },
    {
      "inputs": [],
      "name": "curator",
      "outputs": [
        {
          "internalType": "address",
          "name": "",
          "type": "address"
        }
      ],
      "stateMutability": "view",
      "type": "function",
      "constant": true
    },
    {
      "inputs": [
        {
          "internalType": "string",
          "name": "_name",
          "type": "string"
        },
        {
          "internalType": "string",
          "name": "_author",
          "type": "string"
        },
        {
          "internalType": "string",
          "name": "_detailhash",
          "type": "string"
        },
        {
          "internalType": "string",
          "name": "_imghash",
          "type": "string"
        },
        {
          "internalType": "string",
          "name": "_dynasty",
          "type": "string"
        },
        {
          "internalType": "enum DigitalMuseum.Category",
          "name": "_class",
          "type": "uint8"
        }
      ],
      "name": "createCollection",
      "outputs": [],
      "stateMutability": "nonpayable",
      "type": "function"
    },
    {
      "inputs": [
        {
          "internalType": "uint256",
          "name": "_collectionId",
          "type": "uint256"
        }
      ],
      "name": "removeCollection",
      "outputs": [],
      "stateMutability": "nonpayable",
      "type": "function"
    },
    {
      "inputs": [],
      "name": "getCollections",
      "outputs": [
        {
          "components": [
            {
              "internalType": "uint256",
              "name": "id",
              "type": "uint256"
            },
            {
              "internalType": "string",
              "name": "cName",
              "type": "string"
            },
            {
              "internalType": "string",
              "name": "author",
              "type": "string"
            },
            {
              "internalType": "string",
              "name": "detailHash",
              "type": "string"
            },
            {
              "internalType": "string",
              "name": "imgHash",
              "type": "string"
            },
            {
              "internalType": "string",
              "name": "dynasty",
              "type": "string"
            },
            {
              "internalType": "enum DigitalMuseum.Category",
              "name": "genre",
              "type": "uint8"
            },
            {
              "internalType": "address",
              "name": "curator",
              "type": "address"
            }
          ],
          "internalType": "struct DigitalMuseum.Collection[]",
          "name": "",
          "type": "tuple[]"
        }
      ],
      "stateMutability": "view",
      "type": "function",
      "constant": true
    },
    {
      "inputs": [
        {
          "internalType": "uint256",
          "name": "_collectionId",
          "type": "uint256"
        }
      ],
      "name": "fetchColletionDetail",
      "outputs": [
        {
          "components": [
            {
              "internalType": "uint256",
              "name": "id",
              "type": "uint256"
            },
            {
              "internalType": "string",
              "name": "cName",
              "type": "string"
            },
            {
              "internalType": "string",
              "name": "author",
              "type": "string"
            },
            {
              "internalType": "string",
              "name": "detailHash",
              "type": "string"
            },
            {
              "internalType": "string",
              "name": "imgHash",
              "type": "string"
            },
            {
              "internalType": "string",
              "name": "dynasty",
              "type": "string"
            },
            {
              "internalType": "enum DigitalMuseum.Category",
              "name": "genre",
              "type": "uint8"
            },
            {
              "internalType": "address",
              "name": "curator",
              "type": "address"
            }
          ],
          "internalType": "struct DigitalMuseum.Collection",
          "name": "",
          "type": "tuple"
        }
      ],
      "stateMutability": "view",
      "type": "function",
      "constant": true
    }
  ],
  "bytecode": "0x608060405234801561001057600080fd5b50600160008190555033600260006101000a81548173ffffffffffffffffffffffffffffffffffffffff021916908373ffffffffffffffffffffffffffffffffffffffff160217905550611aa0806100696000396000f3fe608060405234801561001057600080fd5b50600436106100575760003560e01c806346e635861461005c57806389552cc71461007a578063dadd4589146100aa578063e66f53b7146100c6578063fc7214b2146100e4575b600080fd5b610064610100565b604051610071919061139d565b60405180910390f35b610094600480360381019061008f91906113ff565b610665565b6040516100a191906114f8565b60405180910390f35b6100c460048036038101906100bf91906113ff565b610a08565b005b6100ce610bea565b6040516100db9190611529565b60405180910390f35b6100fe60048036038101906100f9919061169e565b610c10565b005b6060600061010e6001610f31565b90506000806000600190505b8381116101ae57600073ffffffffffffffffffffffffffffffffffffffff166003600083815260200190815260200160002060060160019054906101000a900473ffffffffffffffffffffffffffffffffffffffff1673ffffffffffffffffffffffffffffffffffffffff161461019b5760018261019891906117e6565b91505b80806101a69061183c565b91505061011a565b5060008167ffffffffffffffff8111156101cb576101ca61154e565b5b60405190808252806020026020018201604052801561020457816020015b6101f1610f55565b8152602001906001900390816101e95790505b5090506000600190505b84811161065a57600073ffffffffffffffffffffffffffffffffffffffff166003600083815260200190815260200160002060060160019054906101000a900473ffffffffffffffffffffffffffffffffffffffff1673ffffffffffffffffffffffffffffffffffffffff16146106475760006003600083815260200190815260200160002090508060405180610100016040529081600082015481526020016001820180546102bd906118b4565b80601f01602080910402602001604051908101604052809291908181526020018280546102e9906118b4565b80156103365780601f1061030b57610100808354040283529160200191610336565b820191906000526020600020905b81548152906001019060200180831161031957829003601f168201915b5050505050815260200160028201805461034f906118b4565b80601f016020809104026020016040519081016040528092919081815260200182805461037b906118b4565b80156103c85780601f1061039d576101008083540402835291602001916103c8565b820191906000526020600020905b8154815290600101906020018083116103ab57829003601f168201915b505050505081526020016003820180546103e1906118b4565b80601f016020809104026020016040519081016040528092919081815260200182805461040d906118b4565b801561045a5780601f1061042f5761010080835404028352916020019161045a565b820191906000526020600020905b81548152906001019060200180831161043d57829003601f168201915b50505050508152602001600482018054610473906118b4565b80601f016020809104026020016040519081016040528092919081815260200182805461049f906118b4565b80156104ec5780601f106104c1576101008083540402835291602001916104ec565b820191906000526020600020905b8154815290600101906020018083116104cf57829003601f168201915b50505050508152602001600582018054610505906118b4565b80601f0160208091040260200160405190810160405280929190818152602001828054610531906118b4565b801561057e5780601f106105535761010080835404028352916020019161057e565b820191906000526020600020905b81548152906001019060200180831161056157829003601f168201915b505050505081526020016006820160009054906101000a900460ff1660028111156105ac576105ab611183565b5b60028111156105be576105bd611183565b5b81526020016006820160019054906101000a900473ffffffffffffffffffffffffffffffffffffffff1673ffffffffffffffffffffffffffffffffffffffff1673ffffffffffffffffffffffffffffffffffffffff168152505083868151811061062b5761062a6118e6565b5b602002602001018190525060018561064391906117e6565b9450505b80806106529061183c565b91505061020e565b508094505050505090565b61066d610f55565b6003600083815260200190815260200160002060405180610100016040529081600082015481526020016001820180546106a6906118b4565b80601f01602080910402602001604051908101604052809291908181526020018280546106d2906118b4565b801561071f5780601f106106f45761010080835404028352916020019161071f565b820191906000526020600020905b81548152906001019060200180831161070257829003601f168201915b50505050508152602001600282018054610738906118b4565b80601f0160208091040260200160405190810160405280929190818152602001828054610764906118b4565b80156107b15780601f10610786576101008083540402835291602001916107b1565b820191906000526020600020905b81548152906001019060200180831161079457829003601f168201915b505050505081526020016003820180546107ca906118b4565b80601f01602080910402602001604051908101604052809291908181526020018280546107f6906118b4565b80156108435780601f1061081857610100808354040283529160200191610843565b820191906000526020600020905b81548152906001019060200180831161082657829003601f168201915b5050505050815260200160048201805461085c906118b4565b80601f0160208091040260200160405190810160405280929190818152602001828054610888906118b4565b80156108d55780601f106108aa576101008083540402835291602001916108d5565b820191906000526020600020905b8154815290600101906020018083116108b857829003601f168201915b505050505081526020016005820180546108ee906118b4565b80601f016020809104026020016040519081016040528092919081815260200182805461091a906118b4565b80156109675780601f1061093c57610100808354040283529160200191610967565b820191906000526020600020905b81548152906001019060200180831161094a57829003601f168201915b505050505081526020016006820160009054906101000a900460ff16600281111561099557610994611183565b5b60028111156109a7576109a6611183565b5b81526020016006820160019054906101000a900473ffffffffffffffffffffffffffffffffffffffff1673ffffffffffffffffffffffffffffffffffffffff1673ffffffffffffffffffffffffffffffffffffffff16815250509050919050565b600260009054906101000a900473ffffffffffffffffffffffffffffffffffffffff1673ffffffffffffffffffffffffffffffffffffffff163373ffffffffffffffffffffffffffffffffffffffff1614610a98576040517f08c379a0000000000000000000000000000000000000000000000000000000008152600401610a8f90611972565b60405180910390fd5b60026000541415610ade576040517f08c379a0000000000000000000000000000000000000000000000000000000008152600401610ad5906119de565b60405180910390fd5b60026000819055506000610af26001610f31565b90506000600190505b818111610bdd578260036000838152602001908152602001600020600001541415610bca5760036000828152602001908152602001600020600080820160009055600182016000610b4c9190610fc2565b600282016000610b5c9190610fc2565b600382016000610b6c9190610fc2565b600482016000610b7c9190610fc2565b600582016000610b8c9190610fc2565b6006820160006101000a81549060ff02191690556006820160016101000a81549073ffffffffffffffffffffffffffffffffffffffff021916905550505b8080610bd59061183c565b915050610afb565b5050600160008190555050565b600260009054906101000a900473ffffffffffffffffffffffffffffffffffffffff1681565b60026000541415610c56576040517f08c379a0000000000000000000000000000000000000000000000000000000008152600401610c4d906119de565b60405180910390fd5b6002600081905550600260009054906101000a900473ffffffffffffffffffffffffffffffffffffffff1673ffffffffffffffffffffffffffffffffffffffff163373ffffffffffffffffffffffffffffffffffffffff1614610cee576040517f08c379a0000000000000000000000000000000000000000000000000000000008152600401610ce590611972565b60405180910390fd5b6000816002811115610d0357610d02611183565b5b9050600081101580610d16575060028111155b610d55576040517f08c379a0000000000000000000000000000000000000000000000000000000008152600401610d4c90611a4a565b60405180910390fd5b610d5f6001610f3f565b6000610d6b6001610f31565b905060006040518061010001604052808381526020018a8152602001898152602001888152602001878152602001868152602001856002811115610db257610db1611183565b5b8152602001600260009054906101000a900473ffffffffffffffffffffffffffffffffffffffff1673ffffffffffffffffffffffffffffffffffffffff1681525090508060036000848152602001908152602001600020600082015181600001556020820151816001019080519060200190610e2f929190611002565b506040820151816002019080519060200190610e4c929190611002565b506060820151816003019080519060200190610e69929190611002565b506080820151816004019080519060200190610e86929190611002565b5060a0820151816005019080519060200190610ea3929190611002565b5060c08201518160060160006101000a81548160ff02191690836002811115610ecf57610ece611183565b5b021790555060e08201518160060160016101000a81548173ffffffffffffffffffffffffffffffffffffffff021916908373ffffffffffffffffffffffffffffffffffffffff1602179055509050505050506001600081905550505050505050565b600081600001549050919050565b6001816000016000828254019250508190555050565b60405180610100016040528060008152602001606081526020016060815260200160608152602001606081526020016060815260200160006002811115610f9f57610f9e611183565b5b8152602001600073ffffffffffffffffffffffffffffffffffffffff1681525090565b508054610fce906118b4565b6000825580601f10610fe05750610fff565b601f016020900490600052602060002090810190610ffe9190611088565b5b50565b82805461100e906118b4565b90600052602060002090601f0160209004810192826110305760008555611077565b82601f1061104957805160ff1916838001178555611077565b82800160010185558215611077579182015b8281111561107657825182559160200191906001019061105b565b5b5090506110849190611088565b5090565b5b808211156110a1576000816000905550600101611089565b5090565b600081519050919050565b600082825260208201905092915050565b6000819050602082019050919050565b6000819050919050565b6110e4816110d1565b82525050565b600081519050919050565b600082825260208201905092915050565b60005b83811015611124578082015181840152602081019050611109565b83811115611133576000848401525b50505050565b6000601f19601f8301169050919050565b6000611155826110ea565b61115f81856110f5565b935061116f818560208601611106565b61117881611139565b840191505092915050565b7f4e487b7100000000000000000000000000000000000000000000000000000000600052602160045260246000fd5b600381106111c3576111c2611183565b5b50565b60008190506111d4826111b2565b919050565b60006111e4826111c6565b9050919050565b6111f4816111d9565b82525050565b600073ffffffffffffffffffffffffffffffffffffffff82169050919050565b6000611225826111fa565b9050919050565b6112358161121a565b82525050565b60006101008301600083015161125460008601826110db565b506020830151848203602086015261126c828261114a565b91505060408301518482036040860152611286828261114a565b915050606083015184820360608601526112a0828261114a565b915050608083015184820360808601526112ba828261114a565b91505060a083015184820360a08601526112d4828261114a565b91505060c08301516112e960c08601826111eb565b5060e08301516112fc60e086018261122c565b508091505092915050565b6000611313838361123b565b905092915050565b6000602082019050919050565b6000611333826110a5565b61133d81856110b0565b93508360208202850161134f856110c1565b8060005b8581101561138b578484038952815161136c8582611307565b94506113778361131b565b925060208a01995050600181019050611353565b50829750879550505050505092915050565b600060208201905081810360008301526113b78184611328565b905092915050565b6000604051905090565b600080fd5b600080fd5b6113dc816110d1565b81146113e757600080fd5b50565b6000813590506113f9816113d3565b92915050565b600060208284031215611415576114146113c9565b5b6000611423848285016113ea565b91505092915050565b60006101008301600083015161144560008601826110db565b506020830151848203602086015261145d828261114a565b91505060408301518482036040860152611477828261114a565b91505060608301518482036060860152611491828261114a565b915050608083015184820360808601526114ab828261114a565b91505060a083015184820360a08601526114c5828261114a565b91505060c08301516114da60c08601826111eb565b5060e08301516114ed60e086018261122c565b508091505092915050565b60006020820190508181036000830152611512818461142c565b905092915050565b6115238161121a565b82525050565b600060208201905061153e600083018461151a565b92915050565b600080fd5b600080fd5b7f4e487b7100000000000000000000000000000000000000000000000000000000600052604160045260246000fd5b61158682611139565b810181811067ffffffffffffffff821117156115a5576115a461154e565b5b80604052505050565b60006115b86113bf565b90506115c4828261157d565b919050565b600067ffffffffffffffff8211156115e4576115e361154e565b5b6115ed82611139565b9050602081019050919050565b82818337600083830152505050565b600061161c611617846115c9565b6115ae565b90508281526020810184848401111561163857611637611549565b5b6116438482856115fa565b509392505050565b600082601f8301126116605761165f611544565b5b8135611670848260208601611609565b91505092915050565b6003811061168657600080fd5b50565b60008135905061169881611679565b92915050565b60008060008060008060c087890312156116bb576116ba6113c9565b5b600087013567ffffffffffffffff8111156116d9576116d86113ce565b5b6116e589828a0161164b565b965050602087013567ffffffffffffffff811115611706576117056113ce565b5b61171289828a0161164b565b955050604087013567ffffffffffffffff811115611733576117326113ce565b5b61173f89828a0161164b565b945050606087013567ffffffffffffffff8111156117605761175f6113ce565b5b61176c89828a0161164b565b935050608087013567ffffffffffffffff81111561178d5761178c6113ce565b5b61179989828a0161164b565b92505060a06117aa89828a01611689565b9150509295509295509295565b7f4e487b7100000000000000000000000000000000000000000000000000000000600052601160045260246000fd5b60006117f1826110d1565b91506117fc836110d1565b9250827fffffffffffffffffffffffffffffffffffffffffffffffffffffffffffffffff03821115611831576118306117b7565b5b828201905092915050565b6000611847826110d1565b91507fffffffffffffffffffffffffffffffffffffffffffffffffffffffffffffffff82141561187a576118796117b7565b5b600182019050919050565b7f4e487b7100000000000000000000000000000000000000000000000000000000600052602260045260246000fd5b600060028204905060018216806118cc57607f821691505b602082108114156118e0576118df611885565b5b50919050565b7f4e487b7100000000000000000000000000000000000000000000000000000000600052603260045260246000fd5b600082825260208201905092915050565b7f596f7520617265206e6f74207468652063757261746f72000000000000000000600082015250565b600061195c601783611915565b915061196782611926565b602082019050919050565b6000602082019050818103600083015261198b8161194f565b9050919050565b7f5265656e7472616e637947756172643a207265656e7472616e742063616c6c00600082015250565b60006119c8601f83611915565b91506119d382611992565b602082019050919050565b600060208201905081810360008301526119f7816119bb565b9050919050565b7f696e76616c696420636c61737320706172616d65746572000000000000000000600082015250565b6000611a34601783611915565b9150611a3f826119fe565b602082019050919050565b60006020820190508181036000830152611a6381611a27565b905091905056fea2646970667358221220e3ce60d3f72a5e24ea2b041bf41cf7daf50d6c643fd285b5d2e307821570064664736f6c634300080a0033",
  "immutableReferences": {},
  "source": "// SPDX-License-Identifier: MIT\r\npragma solidity >=0.4.22;\r\n\r\nimport \"@openzeppelin/contracts/utils/Counters.sol\";\r\nimport \"@openzeppelin/contracts/security/ReentrancyGuard.sol\";\r\n\r\ncontract DigitalMuseum is ReentrancyGuard {\r\n    using Counters for Counters.Counter;\r\n    Counters.Counter private _collectionIds;\r\n\r\n    /* details of the collection */\r\n    struct Collection {\r\n        uint256 id;\r\n        string cName;\r\n        string author;\r\n        string detailHash;\r\n        string imgHash;\r\n        string dynasty;\r\n        Category genre;\r\n        address curator;\r\n    }\r\n    enum Category {\r\n        jewelry,\r\n        painting,\r\n        pottery\r\n    }\r\n    /* The curator */\r\n    address public curator;\r\n    mapping(uint256 => Collection) private idToCollection;\r\n    mapping(address => Collection[]) private favorList;\r\n\r\n    constructor() {\r\n        curator = msg.sender;\r\n    }\r\n\r\n    /* Reverts if the transaction is not sent by the curator */\r\n    modifier isCurator() {\r\n        // The auction exists if the curator is not null.\r\n        require(msg.sender == curator, \"You are not the curator\");\r\n        _;\r\n    }\r\n\r\n    /* only museum can call this function */\r\n    function createCollection(\r\n        string memory _name,\r\n        string memory _author,\r\n        string memory _detailhash,\r\n        string memory _imghash,\r\n        string memory _dynasty,\r\n        Category _class\r\n    ) public nonReentrant isCurator {\r\n        uint256 class = uint256(_class);\r\n        require(class >= 0 || class <= 2, \"invalid class parameter\");\r\n        _collectionIds.increment();\r\n        uint256 _id = _collectionIds.current();\r\n        Collection memory newCollection = Collection(\r\n            _id,\r\n            _name,\r\n            _author,\r\n            _detailhash,\r\n            _imghash,\r\n            _dynasty,\r\n            _class,\r\n            curator\r\n        );\r\n        idToCollection[_id] = newCollection;\r\n    }\r\n\r\n    function removeCollection(uint256 _collectionId)\r\n        public\r\n        isCurator\r\n        nonReentrant\r\n    {\r\n        uint256 totalCollection = _collectionIds.current();\r\n        for (uint256 i = 1; i <= totalCollection; i++) {\r\n            if (idToCollection[i].id == _collectionId) {\r\n                delete idToCollection[i];\r\n            }\r\n        }\r\n    }\r\n\r\n    function getCollections() public view returns (Collection[] memory) {\r\n        uint256 totalCollection = _collectionIds.current();\r\n        uint256 currenIndex = 0;\r\n        uint256 listLength = 0;\r\n\r\n        for (uint256 i = 1; i <= totalCollection; i++) {\r\n            /* Gets the total of the exsiting collection */\r\n            if (idToCollection[i].curator != address(0)) {\r\n                listLength += 1;\r\n            }\r\n        }\r\n\r\n        Collection[] memory list = new Collection[](listLength);\r\n        for (uint256 i = 1; i <= totalCollection; i++) {\r\n            /* if the collection exsits, push it to the array */\r\n            if (idToCollection[i].curator != address(0)) {\r\n                Collection storage currentItem = idToCollection[i];\r\n                list[currenIndex] = currentItem;\r\n                currenIndex += 1;\r\n            }\r\n        }\r\n        return list;\r\n    }\r\n\r\n    function fetchColletionDetail(uint256 _collectionId)\r\n        public\r\n        view\r\n        returns (Collection memory)\r\n    {\r\n        return idToCollection[_collectionId];\r\n    }\r\n\r\n    /* add collection to favorite list */\r\n    // function toggleFavor(uint256 _collectionId) public nonReentrant {\r\n    //     /* If the collection is not favored */\r\n    //     if (favorList[msg.sender][_collectionId].curator == address(0)) {\r\n    //         favorList[msg.sender].push(idToCollection[_collectionId]);\r\n    //     } else {\r\n    //         for (uint256 i = 0; i < favorList[msg.sender].length; i++) {\r\n    //             if (favorList[msg.sender][i].id == _collectionId)\r\n    //                 delete favorList[msg.sender][_collectionId];\r\n    //         }\r\n    //     }\r\n    // }\r\n\r\n    // function getFavorList() public view returns (Collection[] memory) {\r\n    //     return favorList[msg.sender];\r\n    // }\r\n}\r\n",
  "sourcePath": "C:\\Users\\33\\Desktop\\almamater88\\digital_museum\\almamaster88\\src\\Web3\\contracts\\DigitalMuseum.sol",
  "compiler": {
    "name": "solc",
    "version": "0.8.10+commit.fc410830.Emscripten.clang"
  },
  "schemaVersion": "3.4.3",
  "updatedAt": "2022-02-18T09:03:32.079Z",
  "networkType": "ethereum",
  "devdoc": {
    "kind": "dev",
    "methods": {},
    "version": 1
  },
  "userdoc": {
    "kind": "user",
    "methods": {},
    "version": 1
  }
}