{
  "contractName": "DigitalMuseum",
  "abi": [
    {
      "inputs": [],
      "stateMutability": "nonpayable",
      "type": "constructor"
    },
    {
      "anonymous": false,
      "inputs": [
        {
          "indexed": false,
          "internalType": "uint256",
          "name": "gasLimit",
          "type": "uint256"
        },
        {
          "indexed": false,
          "internalType": "uint256",
          "name": "gasLeft",
          "type": "uint256"
        }
      ],
      "name": "checkGas",
      "type": "event"
    },
    {
      "inputs": [],
      "name": "museum",
      "outputs": [
        {
          "internalType": "address",
          "name": "",
          "type": "address"
        }
      ],
      "stateMutability": "view",
      "type": "function",
      "constant": true
    },
    {
      "inputs": [
        {
          "internalType": "string",
          "name": "_name",
          "type": "string"
        },
        {
          "internalType": "string",
          "name": "_author",
          "type": "string"
        },
        {
          "internalType": "string",
          "name": "_detailhash",
          "type": "string"
        },
        {
          "internalType": "string",
          "name": "_imghash",
          "type": "string"
        },
        {
          "internalType": "string",
          "name": "_dynasty",
          "type": "string"
        },
        {
          "internalType": "enum DigitalMuseum.Category",
          "name": "_class",
          "type": "uint8"
        }
      ],
      "name": "createCollection",
      "outputs": [
        {
          "internalType": "bytes32",
          "name": "",
          "type": "bytes32"
        }
      ],
      "stateMutability": "payable",
      "type": "function",
      "payable": true
    },
    {
      "inputs": [],
      "name": "getCollections",
      "outputs": [
        {
          "components": [
            {
              "internalType": "uint256",
              "name": "id",
              "type": "uint256"
            },
            {
              "internalType": "string",
              "name": "cName",
              "type": "string"
            },
            {
              "internalType": "string",
              "name": "author",
              "type": "string"
            },
            {
              "internalType": "string",
              "name": "detailHash",
              "type": "string"
            },
            {
              "internalType": "string",
              "name": "imgHash",
              "type": "string"
            },
            {
              "internalType": "string",
              "name": "dynasty",
              "type": "string"
            },
            {
              "internalType": "enum DigitalMuseum.Category",
              "name": "genre",
              "type": "uint8"
            }
          ],
          "internalType": "struct DigitalMuseum.Collection[]",
          "name": "",
          "type": "tuple[]"
        }
      ],
      "stateMutability": "view",
      "type": "function",
      "constant": true
    }
  ],
  "bytecode": "0x608060405234801561001057600080fd5b50336000806101000a81548173ffffffffffffffffffffffffffffffffffffffff021916908373ffffffffffffffffffffffffffffffffffffffff160217905550610edb806100606000396000f3fe6080604052600436106100345760003560e01c806345e67a8c1461003957806346e6358614610064578063fc7214b21461008f575b600080fd5b34801561004557600080fd5b5061004e6100bf565b60405161005b919061079a565b60405180910390f35b34801561007057600080fd5b506100796100e3565b6040516100869190610a58565b60405180910390f35b6100a960048036038101906100a49190610be8565b610461565b6040516100b69190610d1a565b60405180910390f35b60008054906101000a900473ffffffffffffffffffffffffffffffffffffffff1681565b60606001805480602002602001604051908101604052809291908181526020016000905b8282101561045857838290600052602060002090600702016040518060e00160405290816000820154815260200160018201805461014490610d64565b80601f016020809104026020016040519081016040528092919081815260200182805461017090610d64565b80156101bd5780601f10610192576101008083540402835291602001916101bd565b820191906000526020600020905b8154815290600101906020018083116101a057829003601f168201915b505050505081526020016002820180546101d690610d64565b80601f016020809104026020016040519081016040528092919081815260200182805461020290610d64565b801561024f5780601f106102245761010080835404028352916020019161024f565b820191906000526020600020905b81548152906001019060200180831161023257829003601f168201915b5050505050815260200160038201805461026890610d64565b80601f016020809104026020016040519081016040528092919081815260200182805461029490610d64565b80156102e15780601f106102b6576101008083540402835291602001916102e1565b820191906000526020600020905b8154815290600101906020018083116102c457829003601f168201915b505050505081526020016004820180546102fa90610d64565b80601f016020809104026020016040519081016040528092919081815260200182805461032690610d64565b80156103735780601f1061034857610100808354040283529160200191610373565b820191906000526020600020905b81548152906001019060200180831161035657829003601f168201915b5050505050815260200160058201805461038c90610d64565b80601f01602080910402602001604051908101604052809291908181526020018280546103b890610d64565b80156104055780601f106103da57610100808354040283529160200191610405565b820191906000526020600020905b8154815290600101906020018083116103e857829003601f168201915b505050505081526020016006820160009054906101000a900460ff16600281111561043357610432610893565b5b600281111561044557610444610893565b5b8152505081526020019060010190610107565b50505050905090565b60008060009054906101000a900473ffffffffffffffffffffffffffffffffffffffff1673ffffffffffffffffffffffffffffffffffffffff163373ffffffffffffffffffffffffffffffffffffffff16146104f2576040517f08c379a00000000000000000000000000000000000000000000000000000000081526004016104e990610e19565b60405180910390fd5b600082600281111561050757610506610893565b5b905060008110158061051a575060028111155b610559576040517f08c379a000000000000000000000000000000000000000000000000000000000815260040161055090610e85565b60405180910390fd5b6000600180549050905060006040518060e001604052808381526020018b81526020018a81526020018981526020018881526020018781526020018660028111156105a7576105a6610893565b5b815250905060018190806001815401808255809150506001900390600052602060002090600702016000909190919091506000820151816000015560208201518160010190805190602001906105fe9291906106b6565b50604082015181600201908051906020019061061b9291906106b6565b5060608201518160030190805190602001906106389291906106b6565b5060808201518160040190805190602001906106559291906106b6565b5060a08201518160050190805190602001906106729291906106b6565b5060c08201518160060160006101000a81548160ff0219169083600281111561069e5761069d610893565b5b02179055505050434093505050509695505050505050565b8280546106c290610d64565b90600052602060002090601f0160209004810192826106e4576000855561072b565b82601f106106fd57805160ff191683800117855561072b565b8280016001018555821561072b579182015b8281111561072a57825182559160200191906001019061070f565b5b509050610738919061073c565b5090565b5b8082111561075557600081600090555060010161073d565b5090565b600073ffffffffffffffffffffffffffffffffffffffff82169050919050565b600061078482610759565b9050919050565b61079481610779565b82525050565b60006020820190506107af600083018461078b565b92915050565b600081519050919050565b600082825260208201905092915050565b6000819050602082019050919050565b6000819050919050565b6107f4816107e1565b82525050565b600081519050919050565b600082825260208201905092915050565b60005b83811015610834578082015181840152602081019050610819565b83811115610843576000848401525b50505050565b6000601f19601f8301169050919050565b6000610865826107fa565b61086f8185610805565b935061087f818560208601610816565b61088881610849565b840191505092915050565b7f4e487b7100000000000000000000000000000000000000000000000000000000600052602160045260246000fd5b600381106108d3576108d2610893565b5b50565b60008190506108e4826108c2565b919050565b60006108f4826108d6565b9050919050565b610904816108e9565b82525050565b600060e08301600083015161092260008601826107eb565b506020830151848203602086015261093a828261085a565b91505060408301518482036040860152610954828261085a565b9150506060830151848203606086015261096e828261085a565b91505060808301518482036080860152610988828261085a565b91505060a083015184820360a08601526109a2828261085a565b91505060c08301516109b760c08601826108fb565b508091505092915050565b60006109ce838361090a565b905092915050565b6000602082019050919050565b60006109ee826107b5565b6109f881856107c0565b935083602082028501610a0a856107d1565b8060005b85811015610a465784840389528151610a2785826109c2565b9450610a32836109d6565b925060208a01995050600181019050610a0e565b50829750879550505050505092915050565b60006020820190508181036000830152610a7281846109e3565b905092915050565b6000604051905090565b600080fd5b600080fd5b600080fd5b600080fd5b7f4e487b7100000000000000000000000000000000000000000000000000000000600052604160045260246000fd5b610ad082610849565b810181811067ffffffffffffffff82111715610aef57610aee610a98565b5b80604052505050565b6000610b02610a7a565b9050610b0e8282610ac7565b919050565b600067ffffffffffffffff821115610b2e57610b2d610a98565b5b610b3782610849565b9050602081019050919050565b82818337600083830152505050565b6000610b66610b6184610b13565b610af8565b905082815260208101848484011115610b8257610b81610a93565b5b610b8d848285610b44565b509392505050565b600082601f830112610baa57610ba9610a8e565b5b8135610bba848260208601610b53565b91505092915050565b60038110610bd057600080fd5b50565b600081359050610be281610bc3565b92915050565b60008060008060008060c08789031215610c0557610c04610a84565b5b600087013567ffffffffffffffff811115610c2357610c22610a89565b5b610c2f89828a01610b95565b965050602087013567ffffffffffffffff811115610c5057610c4f610a89565b5b610c5c89828a01610b95565b955050604087013567ffffffffffffffff811115610c7d57610c7c610a89565b5b610c8989828a01610b95565b945050606087013567ffffffffffffffff811115610caa57610ca9610a89565b5b610cb689828a01610b95565b935050608087013567ffffffffffffffff811115610cd757610cd6610a89565b5b610ce389828a01610b95565b92505060a0610cf489828a01610bd3565b9150509295509295509295565b6000819050919050565b610d1481610d01565b82525050565b6000602082019050610d2f6000830184610d0b565b92915050565b7f4e487b7100000000000000000000000000000000000000000000000000000000600052602260045260246000fd5b60006002820490506001821680610d7c57607f821691505b60208210811415610d9057610d8f610d35565b5b50919050565b600082825260208201905092915050565b7f4f6e6c79206d757365756d2063616e20637265617465206e657720636f6c6c6560008201527f6374696f6e2e0000000000000000000000000000000000000000000000000000602082015250565b6000610e03602683610d96565b9150610e0e82610da7565b604082019050919050565b60006020820190508181036000830152610e3281610df6565b9050919050565b7f696e76616c696420636c61737320706172616d65746572000000000000000000600082015250565b6000610e6f601783610d96565b9150610e7a82610e39565b602082019050919050565b60006020820190508181036000830152610e9e81610e62565b905091905056fea2646970667358221220d372b5ab63146a38350d7892d70d38af3476df27ba649bf06945037b1a9365a664736f6c634300080a0033",
  "immutableReferences": {},
  "source": "// SPDX-License-Identifier: MIT\r\npragma solidity >=0.4.22 <0.9.0;\r\n\r\ncontract DigitalMuseum {\r\n    /* details of the collection */\r\n    struct Collection {\r\n        uint256 id;\r\n        string cName;\r\n        string author;\r\n        string detailHash;\r\n        string imgHash;\r\n        string dynasty;\r\n        Category genre;\r\n    }\r\n    enum Category {\r\n        jewelry,\r\n        painting,\r\n        pottery\r\n    }\r\n    /* the museum that collection belongs to */\r\n    address public museum;\r\n    /* The array to store all the collections */\r\n    Collection[] private collections;\r\n    /* log the left gas */\r\n    event checkGas(\r\n        uint gasLimit,\r\n        uint256 gasLeft\r\n    );\r\n    address[] private collectionList;\r\n\r\n    constructor(){\r\n    /* only official account is allowed to create collections */\r\n        museum = msg.sender;\r\n    }\r\n\r\n    /* only museum can call this function */\r\n    function createCollection(string memory _name,string memory _author,string memory _detailhash, string memory _imghash,string memory _dynasty, Category _class) payable public returns(bytes32) {\r\n       require(\r\n            msg.sender == museum,\r\n            \"Only museum can create new collection.\"\r\n        );\r\n        uint class = uint(_class);\r\n        require(\r\n            class>=0||class<=2,\r\n            \"invalid class parameter\"\r\n        );\r\n        uint _id = collections.length;\r\n        Collection memory newCollection = Collection(_id, _name, _author,_detailhash,_imghash,_dynasty,_class);\r\n        collections.push(newCollection);\r\n        /* If the collection is created successfully, return the hash of this block */\r\n        return blockhash(block.number);\r\n    }\r\n\r\n    function getCollections() public view returns(Collection[] memory){\r\n        return collections;\r\n    }\r\n\r\n}\r\n",
  "sourcePath": "C:\\Users\\33\\Desktop\\almamater88\\digital_museum\\almamaster88\\src\\Web3\\contracts\\DigitalMuseum.sol",
  "compiler": {
    "name": "solc",
    "version": "0.8.10+commit.fc410830.Emscripten.clang"
  },
  "schemaVersion": "3.4.3",
  "updatedAt": "2021-12-02T07:56:12.681Z",
  "networkType": "ethereum",
  "devdoc": {
    "kind": "dev",
    "methods": {},
    "version": 1
  },
  "userdoc": {
    "kind": "user",
    "methods": {},
    "version": 1
  }
}