{
  "contractName": "DigitalMuseum",
  "abi": [
    {
      "inputs": [],
      "stateMutability": "nonpayable",
      "type": "constructor"
    },
    {
      "inputs": [],
      "name": "curator",
      "outputs": [
        {
          "internalType": "address",
          "name": "",
          "type": "address"
        }
      ],
      "stateMutability": "view",
      "type": "function",
      "constant": true
    },
    {
      "inputs": [
        {
          "internalType": "string",
          "name": "_name",
          "type": "string"
        },
        {
          "internalType": "string",
          "name": "_author",
          "type": "string"
        },
        {
          "internalType": "string",
          "name": "_detailhash",
          "type": "string"
        },
        {
          "internalType": "string",
          "name": "_imghash",
          "type": "string"
        },
        {
          "internalType": "string",
          "name": "_dynasty",
          "type": "string"
        },
        {
          "internalType": "enum DigitalMuseum.Category",
          "name": "_class",
          "type": "uint8"
        },
        {
          "internalType": "string",
          "name": "_metaURL",
          "type": "string"
        }
      ],
      "name": "createCollection",
      "outputs": [],
      "stateMutability": "nonpayable",
      "type": "function"
    },
    {
      "inputs": [
        {
          "internalType": "uint256",
          "name": "_collectionId",
          "type": "uint256"
        }
      ],
      "name": "removeCollection",
      "outputs": [],
      "stateMutability": "nonpayable",
      "type": "function"
    },
    {
      "inputs": [],
      "name": "getCollections",
      "outputs": [
        {
          "components": [
            {
              "components": [
                {
                  "internalType": "uint256",
                  "name": "id",
                  "type": "uint256"
                },
                {
                  "internalType": "string",
                  "name": "cName",
                  "type": "string"
                },
                {
                  "internalType": "string",
                  "name": "author",
                  "type": "string"
                },
                {
                  "internalType": "string",
                  "name": "detailHash",
                  "type": "string"
                },
                {
                  "internalType": "string",
                  "name": "imgHash",
                  "type": "string"
                },
                {
                  "internalType": "string",
                  "name": "dynasty",
                  "type": "string"
                },
                {
                  "internalType": "enum DigitalMuseum.Category",
                  "name": "genre",
                  "type": "uint8"
                },
                {
                  "internalType": "address",
                  "name": "curator",
                  "type": "address"
                }
              ],
              "internalType": "struct DigitalMuseum.Info",
              "name": "info",
              "type": "tuple"
            },
            {
              "internalType": "string",
              "name": "metaURL",
              "type": "string"
            }
          ],
          "internalType": "struct DigitalMuseum.Collection[]",
          "name": "",
          "type": "tuple[]"
        }
      ],
      "stateMutability": "view",
      "type": "function",
      "constant": true
    },
    {
      "inputs": [
        {
          "internalType": "uint256",
          "name": "_collectionId",
          "type": "uint256"
        }
      ],
      "name": "fetchColletionDetail",
      "outputs": [
        {
          "components": [
            {
              "internalType": "uint256",
              "name": "id",
              "type": "uint256"
            },
            {
              "internalType": "string",
              "name": "cName",
              "type": "string"
            },
            {
              "internalType": "string",
              "name": "author",
              "type": "string"
            },
            {
              "internalType": "string",
              "name": "detailHash",
              "type": "string"
            },
            {
              "internalType": "string",
              "name": "imgHash",
              "type": "string"
            },
            {
              "internalType": "string",
              "name": "dynasty",
              "type": "string"
            },
            {
              "internalType": "enum DigitalMuseum.Category",
              "name": "genre",
              "type": "uint8"
            },
            {
              "internalType": "address",
              "name": "curator",
              "type": "address"
            }
          ],
          "internalType": "struct DigitalMuseum.Info",
          "name": "",
          "type": "tuple"
        }
      ],
      "stateMutability": "view",
      "type": "function",
      "constant": true
    },
    {
      "inputs": [
        {
          "internalType": "uint256",
          "name": "_collectionId",
          "type": "uint256"
        }
      ],
      "name": "fetchColletionMeta",
      "outputs": [
        {
          "internalType": "string",
          "name": "",
          "type": "string"
        }
      ],
      "stateMutability": "view",
      "type": "function",
      "constant": true
    }
  ],
  "bytecode": "0x608060405234801561001057600080fd5b50600160008190555033600260006101000a81548173ffffffffffffffffffffffffffffffffffffffff021916908373ffffffffffffffffffffffffffffffffffffffff160217905550611d8b806100696000396000f3fe608060405234801561001057600080fd5b50600436106100625760003560e01c80630aba217614610067578063342011fd1461009757806346e63586146100b357806389552cc7146100d1578063dadd458914610101578063e66f53b71461011d575b600080fd5b610081600480360381019061007c919061130a565b61013b565b60405161008e91906113d0565b60405180910390f35b6100b160048036038101906100ac919061154c565b6101e9565b005b6100bb61054d565b6040516100c89190611979565b60405180910390f35b6100eb60048036038101906100e6919061130a565b610b5e565b6040516100f89190611a67565b60405180910390f35b61011b6004803603810190610116919061130a565b610f0a565b005b610125611106565b6040516101329190611a98565b60405180910390f35b6060600060036000848152602001908152602001600020600701805461016090611ae2565b80601f016020809104026020016040519081016040528092919081815260200182805461018c90611ae2565b80156101d95780601f106101ae576101008083540402835291602001916101d9565b820191906000526020600020905b8154815290600101906020018083116101bc57829003601f168201915b5050505050905080915050919050565b6002600054141561022f576040517f08c379a000000000000000000000000000000000000000000000000000000000815260040161022690611b60565b60405180910390fd5b6002600081905550600260009054906101000a900473ffffffffffffffffffffffffffffffffffffffff1673ffffffffffffffffffffffffffffffffffffffff163373ffffffffffffffffffffffffffffffffffffffff16146102c7576040517f08c379a00000000000000000000000000000000000000000000000000000000081526004016102be90611bcc565b60405180910390fd5b60008260028111156102dc576102db61171b565b5b90506000811015806102ef575060028111155b61032e576040517f08c379a000000000000000000000000000000000000000000000000000000000815260040161032590611c38565b60405180910390fd5b610338600161112c565b60006103446001611142565b905060006040518061010001604052808381526020018b81526020018a815260200189815260200188815260200187815260200186600281111561038b5761038a61171b565b5b8152602001600260009054906101000a900473ffffffffffffffffffffffffffffffffffffffff1673ffffffffffffffffffffffffffffffffffffffff16815250905060006040518060400160405280838152602001868152509050806003600085815260200190815260200160002060008201518160000160008201518160000155602082015181600101908051906020019061042a929190611150565b506040820151816002019080519060200190610447929190611150565b506060820151816003019080519060200190610464929190611150565b506080820151816004019080519060200190610481929190611150565b5060a082015181600501908051906020019061049e929190611150565b5060c08201518160060160006101000a81548160ff021916908360028111156104ca576104c961171b565b5b021790555060e08201518160060160016101000a81548173ffffffffffffffffffffffffffffffffffffffff021916908373ffffffffffffffffffffffffffffffffffffffff16021790555050506020820151816007019080519060200190610534929190611150565b5090505050505050600160008190555050505050505050565b6060600061055b6001611142565b90506000806000600190505b8381116105fe57600073ffffffffffffffffffffffffffffffffffffffff166003600083815260200190815260200160002060000160060160019054906101000a900473ffffffffffffffffffffffffffffffffffffffff1673ffffffffffffffffffffffffffffffffffffffff16146105eb576001826105e89190611c87565b91505b80806105f690611cdd565b915050610567565b5060008167ffffffffffffffff81111561061b5761061a6113fc565b5b60405190808252806020026020018201604052801561065457816020015b6106416111d6565b8152602001906001900390816106395790505b5090506000600190505b848111610b5357600073ffffffffffffffffffffffffffffffffffffffff166003600083815260200190815260200160002060000160060160019054906101000a900473ffffffffffffffffffffffffffffffffffffffff1673ffffffffffffffffffffffffffffffffffffffff1614610b405760006003600083815260200190815260200160002090508060405180604001604052908160008201604051806101000160405290816000820154815260200160018201805461072090611ae2565b80601f016020809104026020016040519081016040528092919081815260200182805461074c90611ae2565b80156107995780601f1061076e57610100808354040283529160200191610799565b820191906000526020600020905b81548152906001019060200180831161077c57829003601f168201915b505050505081526020016002820180546107b290611ae2565b80601f01602080910402602001604051908101604052809291908181526020018280546107de90611ae2565b801561082b5780601f106108005761010080835404028352916020019161082b565b820191906000526020600020905b81548152906001019060200180831161080e57829003601f168201915b5050505050815260200160038201805461084490611ae2565b80601f016020809104026020016040519081016040528092919081815260200182805461087090611ae2565b80156108bd5780601f10610892576101008083540402835291602001916108bd565b820191906000526020600020905b8154815290600101906020018083116108a057829003601f168201915b505050505081526020016004820180546108d690611ae2565b80601f016020809104026020016040519081016040528092919081815260200182805461090290611ae2565b801561094f5780601f106109245761010080835404028352916020019161094f565b820191906000526020600020905b81548152906001019060200180831161093257829003601f168201915b5050505050815260200160058201805461096890611ae2565b80601f016020809104026020016040519081016040528092919081815260200182805461099490611ae2565b80156109e15780601f106109b6576101008083540402835291602001916109e1565b820191906000526020600020905b8154815290600101906020018083116109c457829003601f168201915b505050505081526020016006820160009054906101000a900460ff166002811115610a0f57610a0e61171b565b5b6002811115610a2157610a2061171b565b5b81526020016006820160019054906101000a900473ffffffffffffffffffffffffffffffffffffffff1673ffffffffffffffffffffffffffffffffffffffff1673ffffffffffffffffffffffffffffffffffffffff16815250508152602001600782018054610a8f90611ae2565b80601f0160208091040260200160405190810160405280929190818152602001828054610abb90611ae2565b8015610b085780601f10610add57610100808354040283529160200191610b08565b820191906000526020600020905b815481529060010190602001808311610aeb57829003601f168201915b505050505081525050838681518110610b2457610b23611d26565b5b6020026020010181905250600185610b3c9190611c87565b9450505b8080610b4b90611cdd565b91505061065e565b508094505050505090565b610b666111f6565b6000600360008481526020019081526020016000206000016040518061010001604052908160008201548152602001600182018054610ba490611ae2565b80601f0160208091040260200160405190810160405280929190818152602001828054610bd090611ae2565b8015610c1d5780601f10610bf257610100808354040283529160200191610c1d565b820191906000526020600020905b815481529060010190602001808311610c0057829003601f168201915b50505050508152602001600282018054610c3690611ae2565b80601f0160208091040260200160405190810160405280929190818152602001828054610c6290611ae2565b8015610caf5780601f10610c8457610100808354040283529160200191610caf565b820191906000526020600020905b815481529060010190602001808311610c9257829003601f168201915b50505050508152602001600382018054610cc890611ae2565b80601f0160208091040260200160405190810160405280929190818152602001828054610cf490611ae2565b8015610d415780601f10610d1657610100808354040283529160200191610d41565b820191906000526020600020905b815481529060010190602001808311610d2457829003601f168201915b50505050508152602001600482018054610d5a90611ae2565b80601f0160208091040260200160405190810160405280929190818152602001828054610d8690611ae2565b8015610dd35780601f10610da857610100808354040283529160200191610dd3565b820191906000526020600020905b815481529060010190602001808311610db657829003601f168201915b50505050508152602001600582018054610dec90611ae2565b80601f0160208091040260200160405190810160405280929190818152602001828054610e1890611ae2565b8015610e655780601f10610e3a57610100808354040283529160200191610e65565b820191906000526020600020905b815481529060010190602001808311610e4857829003601f168201915b505050505081526020016006820160009054906101000a900460ff166002811115610e9357610e9261171b565b5b6002811115610ea557610ea461171b565b5b81526020016006820160019054906101000a900473ffffffffffffffffffffffffffffffffffffffff1673ffffffffffffffffffffffffffffffffffffffff1673ffffffffffffffffffffffffffffffffffffffff1681525050905080915050919050565b600260009054906101000a900473ffffffffffffffffffffffffffffffffffffffff1673ffffffffffffffffffffffffffffffffffffffff163373ffffffffffffffffffffffffffffffffffffffff1614610f9a576040517f08c379a0000000000000000000000000000000000000000000000000000000008152600401610f9190611bcc565b60405180910390fd5b60026000541415610fe0576040517f08c379a0000000000000000000000000000000000000000000000000000000008152600401610fd790611b60565b60405180910390fd5b60026000819055506000610ff46001611142565b90506000600190505b8181116110f95782600360008381526020019081526020016000206000016000015414156110e6576003600082815260200190815260200160002060008082016000808201600090556001820160006110569190611263565b6002820160006110669190611263565b6003820160006110769190611263565b6004820160006110869190611263565b6005820160006110969190611263565b6006820160006101000a81549060ff02191690556006820160016101000a81549073ffffffffffffffffffffffffffffffffffffffff021916905550506007820160006110e39190611263565b50505b80806110f190611cdd565b915050610ffd565b5050600160008190555050565b600260009054906101000a900473ffffffffffffffffffffffffffffffffffffffff1681565b6001816000016000828254019250508190555050565b600081600001549050919050565b82805461115c90611ae2565b90600052602060002090601f01602090048101928261117e57600085556111c5565b82601f1061119757805160ff19168380011785556111c5565b828001600101855582156111c5579182015b828111156111c45782518255916020019190600101906111a9565b5b5090506111d291906112a3565b5090565b60405180604001604052806111e96111f6565b8152602001606081525090565b604051806101000160405280600081526020016060815260200160608152602001606081526020016060815260200160608152602001600060028111156112405761123f61171b565b5b8152602001600073ffffffffffffffffffffffffffffffffffffffff1681525090565b50805461126f90611ae2565b6000825580601f1061128157506112a0565b601f01602090049060005260206000209081019061129f91906112a3565b5b50565b5b808211156112bc5760008160009055506001016112a4565b5090565b6000604051905090565b600080fd5b600080fd5b6000819050919050565b6112e7816112d4565b81146112f257600080fd5b50565b600081359050611304816112de565b92915050565b6000602082840312156113205761131f6112ca565b5b600061132e848285016112f5565b91505092915050565b600081519050919050565b600082825260208201905092915050565b60005b83811015611371578082015181840152602081019050611356565b83811115611380576000848401525b50505050565b6000601f19601f8301169050919050565b60006113a282611337565b6113ac8185611342565b93506113bc818560208601611353565b6113c581611386565b840191505092915050565b600060208201905081810360008301526113ea8184611397565b905092915050565b600080fd5b600080fd5b7f4e487b7100000000000000000000000000000000000000000000000000000000600052604160045260246000fd5b61143482611386565b810181811067ffffffffffffffff82111715611453576114526113fc565b5b80604052505050565b60006114666112c0565b9050611472828261142b565b919050565b600067ffffffffffffffff821115611492576114916113fc565b5b61149b82611386565b9050602081019050919050565b82818337600083830152505050565b60006114ca6114c584611477565b61145c565b9050828152602081018484840111156114e6576114e56113f7565b5b6114f18482856114a8565b509392505050565b600082601f83011261150e5761150d6113f2565b5b813561151e8482602086016114b7565b91505092915050565b6003811061153457600080fd5b50565b60008135905061154681611527565b92915050565b600080600080600080600060e0888a03121561156b5761156a6112ca565b5b600088013567ffffffffffffffff811115611589576115886112cf565b5b6115958a828b016114f9565b975050602088013567ffffffffffffffff8111156115b6576115b56112cf565b5b6115c28a828b016114f9565b965050604088013567ffffffffffffffff8111156115e3576115e26112cf565b5b6115ef8a828b016114f9565b955050606088013567ffffffffffffffff8111156116105761160f6112cf565b5b61161c8a828b016114f9565b945050608088013567ffffffffffffffff81111561163d5761163c6112cf565b5b6116498a828b016114f9565b93505060a061165a8a828b01611537565b92505060c088013567ffffffffffffffff81111561167b5761167a6112cf565b5b6116878a828b016114f9565b91505092959891949750929550565b600081519050919050565b600082825260208201905092915050565b6000819050602082019050919050565b6116cb816112d4565b82525050565b600082825260208201905092915050565b60006116ed82611337565b6116f781856116d1565b9350611707818560208601611353565b61171081611386565b840191505092915050565b7f4e487b7100000000000000000000000000000000000000000000000000000000600052602160045260246000fd5b6003811061175b5761175a61171b565b5b50565b600081905061176c8261174a565b919050565b600061177c8261175e565b9050919050565b61178c81611771565b82525050565b600073ffffffffffffffffffffffffffffffffffffffff82169050919050565b60006117bd82611792565b9050919050565b6117cd816117b2565b82525050565b6000610100830160008301516117ec60008601826116c2565b506020830151848203602086015261180482826116e2565b9150506040830151848203604086015261181e82826116e2565b9150506060830151848203606086015261183882826116e2565b9150506080830151848203608086015261185282826116e2565b91505060a083015184820360a086015261186c82826116e2565b91505060c083015161188160c0860182611783565b5060e083015161189460e08601826117c4565b508091505092915050565b600060408301600083015184820360008601526118bc82826117d3565b915050602083015184820360208601526118d682826116e2565b9150508091505092915050565b60006118ef838361189f565b905092915050565b6000602082019050919050565b600061190f82611696565b61191981856116a1565b93508360208202850161192b856116b2565b8060005b85811015611967578484038952815161194885826118e3565b9450611953836118f7565b925060208a0199505060018101905061192f565b50829750879550505050505092915050565b600060208201905081810360008301526119938184611904565b905092915050565b6000610100830160008301516119b460008601826116c2565b50602083015184820360208601526119cc82826116e2565b915050604083015184820360408601526119e682826116e2565b91505060608301518482036060860152611a0082826116e2565b91505060808301518482036080860152611a1a82826116e2565b91505060a083015184820360a0860152611a3482826116e2565b91505060c0830151611a4960c0860182611783565b5060e0830151611a5c60e08601826117c4565b508091505092915050565b60006020820190508181036000830152611a81818461199b565b905092915050565b611a92816117b2565b82525050565b6000602082019050611aad6000830184611a89565b92915050565b7f4e487b7100000000000000000000000000000000000000000000000000000000600052602260045260246000fd5b60006002820490506001821680611afa57607f821691505b60208210811415611b0e57611b0d611ab3565b5b50919050565b7f5265656e7472616e637947756172643a207265656e7472616e742063616c6c00600082015250565b6000611b4a601f83611342565b9150611b5582611b14565b602082019050919050565b60006020820190508181036000830152611b7981611b3d565b9050919050565b7f596f7520617265206e6f74207468652063757261746f72000000000000000000600082015250565b6000611bb6601783611342565b9150611bc182611b80565b602082019050919050565b60006020820190508181036000830152611be581611ba9565b9050919050565b7f696e76616c696420636c61737320706172616d65746572000000000000000000600082015250565b6000611c22601783611342565b9150611c2d82611bec565b602082019050919050565b60006020820190508181036000830152611c5181611c15565b9050919050565b7f4e487b7100000000000000000000000000000000000000000000000000000000600052601160045260246000fd5b6000611c92826112d4565b9150611c9d836112d4565b9250827fffffffffffffffffffffffffffffffffffffffffffffffffffffffffffffffff03821115611cd257611cd1611c58565b5b828201905092915050565b6000611ce8826112d4565b91507fffffffffffffffffffffffffffffffffffffffffffffffffffffffffffffffff821415611d1b57611d1a611c58565b5b600182019050919050565b7f4e487b7100000000000000000000000000000000000000000000000000000000600052603260045260246000fdfea2646970667358221220b937af2be9cbf66fb3d1351c6476520a313f37f8e05059e90ee383952f5e2fbd64736f6c634300080a0033",
  "immutableReferences": {},
  "source": "// SPDX-License-Identifier: MIT\r\npragma solidity >=0.4.22;\r\n\r\nimport \"@openzeppelin/contracts/utils/Counters.sol\";\r\nimport \"@openzeppelin/contracts/security/ReentrancyGuard.sol\";\r\n\r\ncontract DigitalMuseum is ReentrancyGuard {\r\n    using Counters for Counters.Counter;\r\n    Counters.Counter private _collectionIds;\r\n\r\n    /* details of the collection */\r\n    struct Info {\r\n        uint256 id;\r\n        string cName;\r\n        string author;\r\n        string detailHash;\r\n        string imgHash;\r\n        string dynasty;\r\n        Category genre;\r\n        address curator;\r\n    }\r\n    struct Collection {\r\n        Info info;\r\n        string metaURL;\r\n    }\r\n    enum Category {\r\n        jewelry,\r\n        painting,\r\n        pottery\r\n    }\r\n    /* The curator */\r\n    address public curator;\r\n    mapping(uint256 => Collection) private idToCollection;\r\n    mapping(address => Collection[]) private favorList;\r\n\r\n    constructor() {\r\n        curator = msg.sender;\r\n    }\r\n\r\n    /* Reverts if the transaction is not sent by the curator */\r\n    modifier isCurator() {\r\n        // The auction exists if the curator is not null.\r\n        require(msg.sender == curator, \"You are not the curator\");\r\n        _;\r\n    }\r\n\r\n    /* only museum can call this function */\r\n    function createCollection(\r\n        string memory _name,\r\n        string memory _author,\r\n        string memory _detailhash,\r\n        string memory _imghash,\r\n        string memory _dynasty,\r\n        Category _class,\r\n        string memory _metaURL\r\n    ) public nonReentrant isCurator {\r\n        uint256 class = uint256(_class);\r\n        require(class >= 0 || class <= 2, \"invalid class parameter\");\r\n        _collectionIds.increment();\r\n        uint256 _id = _collectionIds.current();\r\n        Info memory info = Info(_id,\r\n            _name,\r\n            _author,\r\n            _detailhash,\r\n            _imghash,\r\n            _dynasty,\r\n            _class,\r\n            curator\r\n        );\r\n        Collection memory newCollection = Collection(\r\n            info,\r\n            _metaURL\r\n        );\r\n        idToCollection[_id] = newCollection;\r\n    }\r\n\r\n    function removeCollection(uint256 _collectionId)\r\n        public\r\n        isCurator\r\n        nonReentrant\r\n    {\r\n        uint256 totalCollection = _collectionIds.current();\r\n        for (uint256 i = 1; i <= totalCollection; i++) {\r\n            if (idToCollection[i].info.id == _collectionId) {\r\n                delete idToCollection[i];\r\n            }\r\n        }\r\n    }\r\n\r\n    function getCollections() public view returns (Collection[] memory) {\r\n        uint256 totalCollection = _collectionIds.current();\r\n        uint256 currenIndex = 0;\r\n        uint256 listLength = 0;\r\n\r\n        for (uint256 i = 1; i <= totalCollection; i++) {\r\n            /* Gets the total of the exsiting collection */\r\n            if (idToCollection[i].info.curator != address(0)) {\r\n                listLength += 1;\r\n            }\r\n        }\r\n\r\n        Collection[] memory list = new Collection[](listLength);\r\n        for (uint256 i = 1; i <= totalCollection; i++) {\r\n            /* if the collection exsits, push it to the array */\r\n            if (idToCollection[i].info.curator != address(0)) {\r\n                Collection storage currentItem = idToCollection[i];\r\n                list[currenIndex] = currentItem;\r\n                currenIndex += 1;\r\n            }\r\n        }\r\n        return list;\r\n    }\r\n\r\n    function fetchColletionDetail(uint256 _collectionId)\r\n        public\r\n        view\r\n        returns (Info memory)\r\n    {\r\n        Info memory info =  idToCollection[_collectionId].info;\r\n        return info;\r\n    }\r\n\r\n     function fetchColletionMeta(uint256 _collectionId)\r\n        public\r\n        view\r\n        returns (string memory)\r\n    {\r\n        string memory meta =  idToCollection[_collectionId].metaURL;\r\n        return meta;\r\n    }\r\n}\r\n",
  "sourcePath": "C:\\Users\\33\\Desktop\\almamater88\\digital_museum\\almamaster88\\src\\Web3\\contracts\\DigitalMuseum.sol",
  "compiler": {
    "name": "solc",
    "version": "0.8.10+commit.fc410830.Emscripten.clang"
  },
  "schemaVersion": "3.4.3",
  "updatedAt": "2022-05-04T14:31:51.398Z",
  "networkType": "ethereum",
  "devdoc": {
    "kind": "dev",
    "methods": {},
    "version": 1
  },
  "userdoc": {
    "kind": "user",
    "methods": {},
    "version": 1
  }
}