{
  "contractName": "DigitalMuseum",
  "abi": [
    {
      "inputs": [],
      "stateMutability": "nonpayable",
      "type": "constructor"
    },
    {
      "anonymous": false,
      "inputs": [
        {
          "indexed": false,
          "internalType": "uint256",
          "name": "gasLimit",
          "type": "uint256"
        },
        {
          "indexed": false,
          "internalType": "uint256",
          "name": "gasLeft",
          "type": "uint256"
        }
      ],
      "name": "checkGas",
      "type": "event"
    },
    {
      "inputs": [],
      "name": "museum",
      "outputs": [
        {
          "internalType": "address",
          "name": "",
          "type": "address"
        }
      ],
      "stateMutability": "view",
      "type": "function",
      "constant": true
    },
    {
      "inputs": [
        {
          "internalType": "string",
          "name": "_name",
          "type": "string"
        },
        {
          "internalType": "string",
          "name": "_author",
          "type": "string"
        },
        {
          "internalType": "string",
          "name": "_detailhash",
          "type": "string"
        },
        {
          "internalType": "string",
          "name": "_imghash",
          "type": "string"
        },
        {
          "internalType": "string",
          "name": "_dynasty",
          "type": "string"
        },
        {
          "internalType": "enum DigitalMuseum.Category",
          "name": "_class",
          "type": "uint8"
        }
      ],
      "name": "createCollection",
      "outputs": [
        {
          "internalType": "bytes32",
          "name": "",
          "type": "bytes32"
        }
      ],
      "stateMutability": "payable",
      "type": "function",
      "payable": true
    },
    {
      "inputs": [],
      "name": "getCollections",
      "outputs": [
        {
          "components": [
            {
              "internalType": "uint256",
              "name": "id",
              "type": "uint256"
            },
            {
              "internalType": "string",
              "name": "cName",
              "type": "string"
            },
            {
              "internalType": "string",
              "name": "author",
              "type": "string"
            },
            {
              "internalType": "string",
              "name": "detailHash",
              "type": "string"
            },
            {
              "internalType": "string",
              "name": "imgHash",
              "type": "string"
            },
            {
              "internalType": "string",
              "name": "dynasty",
              "type": "string"
            },
            {
              "internalType": "enum DigitalMuseum.Category",
              "name": "genre",
              "type": "uint8"
            }
          ],
          "internalType": "struct DigitalMuseum.Collection[]",
          "name": "",
          "type": "tuple[]"
        }
      ],
      "stateMutability": "view",
      "type": "function",
      "constant": true
    },
    {
      "inputs": [
        {
          "internalType": "uint256",
          "name": "index",
          "type": "uint256"
        }
      ],
      "name": "addToFavor",
      "outputs": [
        {
          "internalType": "uint256[]",
          "name": "",
          "type": "uint256[]"
        }
      ],
      "stateMutability": "payable",
      "type": "function",
      "payable": true
    },
    {
      "inputs": [],
      "name": "getFavorList",
      "outputs": [
        {
          "internalType": "uint256[]",
          "name": "",
          "type": "uint256[]"
        }
      ],
      "stateMutability": "view",
      "type": "function",
      "constant": true
    }
  ],
  "bytecode": "0x608060405234801561001057600080fd5b50336000806101000a81548173ffffffffffffffffffffffffffffffffffffffff021916908373ffffffffffffffffffffffffffffffffffffffff160217905550611208806100606000396000f3fe60806040526004361061004a5760003560e01c806345e67a8c1461004f57806346e635861461007a57806392f3dd5c146100a5578063f5addb68146100d5578063fc7214b214610100575b600080fd5b34801561005b57600080fd5b50610064610130565b604051610071919061099d565b60405180910390f35b34801561008657600080fd5b5061008f610154565b60405161009c9190610c5b565b60405180910390f35b6100bf60048036038101906100ba9190610cbd565b6104d2565b6040516100cc9190610d99565b60405180910390f35b3480156100e157600080fd5b506100ea6105cf565b6040516100f79190610d99565b60405180910390f35b61011a60048036038101906101159190610f15565b610664565b6040516101279190611047565b60405180910390f35b60008054906101000a900473ffffffffffffffffffffffffffffffffffffffff1681565b60606001805480602002602001604051908101604052809291908181526020016000905b828210156104c957838290600052602060002090600702016040518060e0016040529081600082015481526020016001820180546101b590611091565b80601f01602080910402602001604051908101604052809291908181526020018280546101e190611091565b801561022e5780601f106102035761010080835404028352916020019161022e565b820191906000526020600020905b81548152906001019060200180831161021157829003601f168201915b5050505050815260200160028201805461024790611091565b80601f016020809104026020016040519081016040528092919081815260200182805461027390611091565b80156102c05780601f10610295576101008083540402835291602001916102c0565b820191906000526020600020905b8154815290600101906020018083116102a357829003601f168201915b505050505081526020016003820180546102d990611091565b80601f016020809104026020016040519081016040528092919081815260200182805461030590611091565b80156103525780601f1061032757610100808354040283529160200191610352565b820191906000526020600020905b81548152906001019060200180831161033557829003601f168201915b5050505050815260200160048201805461036b90611091565b80601f016020809104026020016040519081016040528092919081815260200182805461039790611091565b80156103e45780601f106103b9576101008083540402835291602001916103e4565b820191906000526020600020905b8154815290600101906020018083116103c757829003601f168201915b505050505081526020016005820180546103fd90611091565b80601f016020809104026020016040519081016040528092919081815260200182805461042990611091565b80156104765780601f1061044b57610100808354040283529160200191610476565b820191906000526020600020905b81548152906001019060200180831161045957829003601f168201915b505050505081526020016006820160009054906101000a900460ff1660028111156104a4576104a3610a96565b5b60028111156104b6576104b5610a96565b5b8152505081526020019060010190610178565b50505050905090565b6060600360003373ffffffffffffffffffffffffffffffffffffffff1673ffffffffffffffffffffffffffffffffffffffff168152602001908152602001600020829080600181540180825580915050600190039060005260206000200160009091909190915055600360003373ffffffffffffffffffffffffffffffffffffffff1673ffffffffffffffffffffffffffffffffffffffff1681526020019081526020016000208054806020026020016040519081016040528092919081815260200182805480156105c357602002820191906000526020600020905b8154815260200190600101908083116105af575b50505050509050919050565b6060600360003373ffffffffffffffffffffffffffffffffffffffff1673ffffffffffffffffffffffffffffffffffffffff16815260200190815260200160002080548060200260200160405190810160405280929190818152602001828054801561065a57602002820191906000526020600020905b815481526020019060010190808311610646575b5050505050905090565b60008060009054906101000a900473ffffffffffffffffffffffffffffffffffffffff1673ffffffffffffffffffffffffffffffffffffffff163373ffffffffffffffffffffffffffffffffffffffff16146106f5576040517f08c379a00000000000000000000000000000000000000000000000000000000081526004016106ec90611146565b60405180910390fd5b600082600281111561070a57610709610a96565b5b905060008110158061071d575060028111155b61075c576040517f08c379a0000000000000000000000000000000000000000000000000000000008152600401610753906111b2565b60405180910390fd5b6000600180549050905060006040518060e001604052808381526020018b81526020018a81526020018981526020018881526020018781526020018660028111156107aa576107a9610a96565b5b815250905060018190806001815401808255809150506001900390600052602060002090600702016000909190919091506000820151816000015560208201518160010190805190602001906108019291906108b9565b50604082015181600201908051906020019061081e9291906108b9565b50606082015181600301908051906020019061083b9291906108b9565b5060808201518160040190805190602001906108589291906108b9565b5060a08201518160050190805190602001906108759291906108b9565b5060c08201518160060160006101000a81548160ff021916908360028111156108a1576108a0610a96565b5b02179055505050434093505050509695505050505050565b8280546108c590611091565b90600052602060002090601f0160209004810192826108e7576000855561092e565b82601f1061090057805160ff191683800117855561092e565b8280016001018555821561092e579182015b8281111561092d578251825591602001919060010190610912565b5b50905061093b919061093f565b5090565b5b80821115610958576000816000905550600101610940565b5090565b600073ffffffffffffffffffffffffffffffffffffffff82169050919050565b60006109878261095c565b9050919050565b6109978161097c565b82525050565b60006020820190506109b2600083018461098e565b92915050565b600081519050919050565b600082825260208201905092915050565b6000819050602082019050919050565b6000819050919050565b6109f7816109e4565b82525050565b600081519050919050565b600082825260208201905092915050565b60005b83811015610a37578082015181840152602081019050610a1c565b83811115610a46576000848401525b50505050565b6000601f19601f8301169050919050565b6000610a68826109fd565b610a728185610a08565b9350610a82818560208601610a19565b610a8b81610a4c565b840191505092915050565b7f4e487b7100000000000000000000000000000000000000000000000000000000600052602160045260246000fd5b60038110610ad657610ad5610a96565b5b50565b6000819050610ae782610ac5565b919050565b6000610af782610ad9565b9050919050565b610b0781610aec565b82525050565b600060e083016000830151610b2560008601826109ee565b5060208301518482036020860152610b3d8282610a5d565b91505060408301518482036040860152610b578282610a5d565b91505060608301518482036060860152610b718282610a5d565b91505060808301518482036080860152610b8b8282610a5d565b91505060a083015184820360a0860152610ba58282610a5d565b91505060c0830151610bba60c0860182610afe565b508091505092915050565b6000610bd18383610b0d565b905092915050565b6000602082019050919050565b6000610bf1826109b8565b610bfb81856109c3565b935083602082028501610c0d856109d4565b8060005b85811015610c495784840389528151610c2a8582610bc5565b9450610c3583610bd9565b925060208a01995050600181019050610c11565b50829750879550505050505092915050565b60006020820190508181036000830152610c758184610be6565b905092915050565b6000604051905090565b600080fd5b600080fd5b610c9a816109e4565b8114610ca557600080fd5b50565b600081359050610cb781610c91565b92915050565b600060208284031215610cd357610cd2610c87565b5b6000610ce184828501610ca8565b91505092915050565b600081519050919050565b600082825260208201905092915050565b6000819050602082019050919050565b6000610d2283836109ee565b60208301905092915050565b6000602082019050919050565b6000610d4682610cea565b610d508185610cf5565b9350610d5b83610d06565b8060005b83811015610d8c578151610d738882610d16565b9750610d7e83610d2e565b925050600181019050610d5f565b5085935050505092915050565b60006020820190508181036000830152610db38184610d3b565b905092915050565b600080fd5b600080fd5b7f4e487b7100000000000000000000000000000000000000000000000000000000600052604160045260246000fd5b610dfd82610a4c565b810181811067ffffffffffffffff82111715610e1c57610e1b610dc5565b5b80604052505050565b6000610e2f610c7d565b9050610e3b8282610df4565b919050565b600067ffffffffffffffff821115610e5b57610e5a610dc5565b5b610e6482610a4c565b9050602081019050919050565b82818337600083830152505050565b6000610e93610e8e84610e40565b610e25565b905082815260208101848484011115610eaf57610eae610dc0565b5b610eba848285610e71565b509392505050565b600082601f830112610ed757610ed6610dbb565b5b8135610ee7848260208601610e80565b91505092915050565b60038110610efd57600080fd5b50565b600081359050610f0f81610ef0565b92915050565b60008060008060008060c08789031215610f3257610f31610c87565b5b600087013567ffffffffffffffff811115610f5057610f4f610c8c565b5b610f5c89828a01610ec2565b965050602087013567ffffffffffffffff811115610f7d57610f7c610c8c565b5b610f8989828a01610ec2565b955050604087013567ffffffffffffffff811115610faa57610fa9610c8c565b5b610fb689828a01610ec2565b945050606087013567ffffffffffffffff811115610fd757610fd6610c8c565b5b610fe389828a01610ec2565b935050608087013567ffffffffffffffff81111561100457611003610c8c565b5b61101089828a01610ec2565b92505060a061102189828a01610f00565b9150509295509295509295565b6000819050919050565b6110418161102e565b82525050565b600060208201905061105c6000830184611038565b92915050565b7f4e487b7100000000000000000000000000000000000000000000000000000000600052602260045260246000fd5b600060028204905060018216806110a957607f821691505b602082108114156110bd576110bc611062565b5b50919050565b600082825260208201905092915050565b7f4f6e6c79206d757365756d2063616e20637265617465206e657720636f6c6c6560008201527f6374696f6e2e0000000000000000000000000000000000000000000000000000602082015250565b60006111306026836110c3565b915061113b826110d4565b604082019050919050565b6000602082019050818103600083015261115f81611123565b9050919050565b7f696e76616c696420636c61737320706172616d65746572000000000000000000600082015250565b600061119c6017836110c3565b91506111a782611166565b602082019050919050565b600060208201905081810360008301526111cb8161118f565b905091905056fea264697066735822122077bc3a4c56c8696a024ebf10c488f4fc4e2249872dab0afaa41e4722f72435b564736f6c634300080a0033",
  "immutableReferences": {},
  "source": "// SPDX-License-Identifier: MIT\r\npragma solidity >=0.4.22;\r\n\r\ncontract DigitalMuseum {\r\n    /* details of the collection */\r\n    struct Collection {\r\n        uint256 id;\r\n        string cName;\r\n        string author;\r\n        string detailHash;\r\n        string imgHash;\r\n        string dynasty;\r\n        Category genre;\r\n    }\r\n    enum Category {\r\n        jewelry,\r\n        painting,\r\n        pottery\r\n    }\r\n    /* the museum that collection belongs to */\r\n    address public museum;\r\n    /* The array to store all the collections */\r\n    Collection[] private collections;\r\n    /* log the left gas */\r\n    event checkGas(\r\n        uint gasLimit,\r\n        uint256 gasLeft\r\n    );\r\n    address[] private collectionList;\r\n    mapping(address=>uint[]) private favorList;\r\n\r\n    constructor(){\r\n    /* only official account is allowed to create collections */\r\n        museum = msg.sender;\r\n    }\r\n\r\n    /* only museum can call this function */\r\n    function createCollection(string memory _name,string memory _author,string memory _detailhash, string memory _imghash,string memory _dynasty, Category _class) payable public returns(bytes32) {\r\n       require(\r\n            msg.sender == museum,\r\n            \"Only museum can create new collection.\"\r\n        );\r\n        uint class = uint(_class);\r\n        require(\r\n            class>=0||class<=2,\r\n            \"invalid class parameter\"\r\n        );\r\n        uint _id = collections.length;\r\n        Collection memory newCollection = Collection(_id, _name, _author,_detailhash,_imghash,_dynasty,_class);\r\n        collections.push(newCollection);\r\n        /* If the collection is created successfully, return the hash of this block */\r\n        return blockhash(block.number);\r\n    }\r\n\r\n    function getCollections() public view returns(Collection[] memory){\r\n        return collections;\r\n    }\r\n\r\n    /* add collection to favorite list */\r\n    function addToFavor(uint index) payable public returns(uint[] memory){\r\n        favorList[msg.sender].push(index);\r\n        return favorList[payable(msg.sender)];\r\n    }\r\n\r\n    function getFavorList() public view returns(uint[] memory){\r\n        return favorList[payable(msg.sender)];\r\n    }\r\n\r\n}\r\n",
  "sourcePath": "C:\\Users\\33\\Desktop\\almamater88\\digital_museum\\almamaster88\\src\\Web3\\contracts\\DigitalMuseum.sol",
  "compiler": {
    "name": "solc",
    "version": "0.8.10+commit.fc410830.Emscripten.clang"
  },
  "schemaVersion": "3.4.3",
  "updatedAt": "2022-02-10T07:37:17.982Z",
  "networkType": "ethereum",
  "devdoc": {
    "kind": "dev",
    "methods": {},
    "version": 1
  },
  "userdoc": {
    "kind": "user",
    "methods": {},
    "version": 1
  }
}