{
  "contractName": "DigitalMuseum",
  "abi": [
    {
      "inputs": [],
      "name": "brand",
      "outputs": [
        {
          "internalType": "string",
          "name": "",
          "type": "string"
        }
      ],
      "stateMutability": "view",
      "type": "function",
      "constant": true
    },
    {
      "inputs": [],
      "name": "data",
      "outputs": [
        {
          "internalType": "uint256",
          "name": "",
          "type": "uint256"
        }
      ],
      "stateMutability": "view",
      "type": "function",
      "constant": true
    },
    {
      "inputs": [
        {
          "internalType": "uint256",
          "name": "a",
          "type": "uint256"
        }
      ],
      "name": "setData",
      "outputs": [],
      "stateMutability": "nonpayable",
      "type": "function"
    },
    {
      "inputs": [
        {
          "internalType": "string",
          "name": "name",
          "type": "string"
        }
      ],
      "name": "setBrand",
      "outputs": [],
      "stateMutability": "nonpayable",
      "type": "function"
    },
    {
      "inputs": [],
      "name": "getData",
      "outputs": [
        {
          "internalType": "uint256",
          "name": "",
          "type": "uint256"
        }
      ],
      "stateMutability": "view",
      "type": "function",
      "constant": true
    },
    {
      "inputs": [],
      "name": "getBrand",
      "outputs": [
        {
          "internalType": "string",
          "name": "",
          "type": "string"
        }
      ],
      "stateMutability": "view",
      "type": "function",
      "constant": true
    }
  ],
  "bytecode": "0x608060405234801561001057600080fd5b5061067e806100206000396000f3fe608060405234801561001057600080fd5b50600436106100625760003560e01c80632d9fff01146100675780633bc5de30146100855780635b4b73a9146100a357806373d4a13a146100bf578063a3946e26146100dd578063c1fd4137146100fb575b600080fd5b61006f610117565b60405161007c91906103a6565b60405180910390f35b61008d6101a5565b60405161009a91906103e1565b60405180910390f35b6100bd60048036038101906100b8919061043c565b6101ae565b005b6100c76101b8565b6040516100d491906103e1565b60405180910390f35b6100e56101be565b6040516100f291906103a6565b60405180910390f35b6101156004803603810190610110919061059e565b610250565b005b6001805461012490610616565b80601f016020809104026020016040519081016040528092919081815260200182805461015090610616565b801561019d5780601f106101725761010080835404028352916020019161019d565b820191906000526020600020905b81548152906001019060200180831161018057829003601f168201915b505050505081565b60008054905090565b8060008190555050565b60005481565b6060600180546101cd90610616565b80601f01602080910402602001604051908101604052809291908181526020018280546101f990610616565b80156102465780601f1061021b57610100808354040283529160200191610246565b820191906000526020600020905b81548152906001019060200180831161022957829003601f168201915b5050505050905090565b806001908051906020019061026692919061026a565b5050565b82805461027690610616565b90600052602060002090601f01602090048101928261029857600085556102df565b82601f106102b157805160ff19168380011785556102df565b828001600101855582156102df579182015b828111156102de5782518255916020019190600101906102c3565b5b5090506102ec91906102f0565b5090565b5b808211156103095760008160009055506001016102f1565b5090565b600081519050919050565b600082825260208201905092915050565b60005b8381101561034757808201518184015260208101905061032c565b83811115610356576000848401525b50505050565b6000601f19601f8301169050919050565b60006103788261030d565b6103828185610318565b9350610392818560208601610329565b61039b8161035c565b840191505092915050565b600060208201905081810360008301526103c0818461036d565b905092915050565b6000819050919050565b6103db816103c8565b82525050565b60006020820190506103f660008301846103d2565b92915050565b6000604051905090565b600080fd5b600080fd5b610419816103c8565b811461042457600080fd5b50565b60008135905061043681610410565b92915050565b60006020828403121561045257610451610406565b5b600061046084828501610427565b91505092915050565b600080fd5b600080fd5b7f4e487b7100000000000000000000000000000000000000000000000000000000600052604160045260246000fd5b6104ab8261035c565b810181811067ffffffffffffffff821117156104ca576104c9610473565b5b80604052505050565b60006104dd6103fc565b90506104e982826104a2565b919050565b600067ffffffffffffffff82111561050957610508610473565b5b6105128261035c565b9050602081019050919050565b82818337600083830152505050565b600061054161053c846104ee565b6104d3565b90508281526020810184848401111561055d5761055c61046e565b5b61056884828561051f565b509392505050565b600082601f83011261058557610584610469565b5b813561059584826020860161052e565b91505092915050565b6000602082840312156105b4576105b3610406565b5b600082013567ffffffffffffffff8111156105d2576105d161040b565b5b6105de84828501610570565b91505092915050565b7f4e487b7100000000000000000000000000000000000000000000000000000000600052602260045260246000fd5b6000600282049050600182168061062e57607f821691505b60208210811415610642576106416105e7565b5b5091905056fea2646970667358221220de08a088b20bc983d64eba864f04adabfbe451892b3a2c88f539a2207a24051c64736f6c634300080a0033",
  "immutableReferences": {},
  "source": "// SPDX-License-Identifier: MIT\npragma solidity >=0.4.22 <0.9.0;\n\ncontract DigitalMuseum {\n    uint public data;\n    string public brand;\n\n\n    function setData(uint a) public {\n        data = a;\n    }\n    \n    function setBrand(string memory name) public{\n        brand = name;\n    }\n\n    function getData() public view returns (uint) {\n        return data;\n    }\n    \n    function getBrand() public view returns (string memory) {\n        return brand;\n    }\n}\n",
  "sourcePath": "C:\\Users\\33\\Desktop\\almamater88\\digital_museum\\almamaster88\\src\\Web3\\contracts\\DigitalMuseum.sol",
  "compiler": {
    "name": "solc",
    "version": "0.8.10+commit.fc410830.Emscripten.clang"
  },
  "schemaVersion": "3.4.3",
  "updatedAt": "2021-11-23T07:35:33.663Z",
  "networkType": "ethereum",
  "devdoc": {
    "kind": "dev",
    "methods": {},
    "version": 1
  },
  "userdoc": {
    "kind": "user",
    "methods": {},
    "version": 1
  }
}