{
  "contractName": "DigitalMuseum",
  "abi": [
    {
      "inputs": [],
      "stateMutability": "nonpayable",
      "type": "constructor"
    },
    {
      "inputs": [
        {
          "internalType": "uint256",
          "name": "",
          "type": "uint256"
        }
      ],
      "name": "collections",
      "outputs": [
        {
          "internalType": "uint256",
          "name": "id",
          "type": "uint256"
        },
        {
          "internalType": "string",
          "name": "name",
          "type": "string"
        },
        {
          "internalType": "string",
          "name": "author",
          "type": "string"
        },
        {
          "internalType": "string",
          "name": "detailhash",
          "type": "string"
        },
        {
          "internalType": "string",
          "name": "imghash",
          "type": "string"
        },
        {
          "internalType": "string",
          "name": "dynasty",
          "type": "string"
        },
        {
          "internalType": "enum DigitalMuseum.Category",
          "name": "class",
          "type": "uint8"
        }
      ],
      "stateMutability": "view",
      "type": "function",
      "constant": true
    },
    {
      "inputs": [],
      "name": "museum",
      "outputs": [
        {
          "internalType": "address",
          "name": "",
          "type": "address"
        }
      ],
      "stateMutability": "view",
      "type": "function",
      "constant": true
    },
    {
      "inputs": [
        {
          "internalType": "string",
          "name": "_name",
          "type": "string"
        },
        {
          "internalType": "string",
          "name": "_author",
          "type": "string"
        },
        {
          "internalType": "string",
          "name": "_detailhash",
          "type": "string"
        },
        {
          "internalType": "string",
          "name": "_imghash",
          "type": "string"
        },
        {
          "internalType": "string",
          "name": "_dynasty",
          "type": "string"
        },
        {
          "internalType": "enum DigitalMuseum.Category",
          "name": "_class",
          "type": "uint8"
        }
      ],
      "name": "createCollection",
      "outputs": [],
      "stateMutability": "payable",
      "type": "function",
      "payable": true
    },
    {
      "inputs": [],
      "name": "getCollections",
      "outputs": [
        {
          "components": [
            {
              "internalType": "uint256",
              "name": "id",
              "type": "uint256"
            },
            {
              "internalType": "string",
              "name": "name",
              "type": "string"
            },
            {
              "internalType": "string",
              "name": "author",
              "type": "string"
            },
            {
              "internalType": "string",
              "name": "detailhash",
              "type": "string"
            },
            {
              "internalType": "string",
              "name": "imghash",
              "type": "string"
            },
            {
              "internalType": "string",
              "name": "dynasty",
              "type": "string"
            },
            {
              "internalType": "enum DigitalMuseum.Category",
              "name": "class",
              "type": "uint8"
            }
          ],
          "internalType": "struct DigitalMuseum.Collection[]",
          "name": "",
          "type": "tuple[]"
        }
      ],
      "stateMutability": "view",
      "type": "function",
      "constant": true
    }
  ],
  "bytecode": "0x608060405234801561001057600080fd5b50336000806101000a81548173ffffffffffffffffffffffffffffffffffffffff021916908373ffffffffffffffffffffffffffffffffffffffff16021790555061112d806100606000396000f3fe60806040526004361061003f5760003560e01c806345e67a8c1461004457806346e635861461006f578063fc7214b21461009a578063fdbda0ec146100b6575b600080fd5b34801561005057600080fd5b506100596100f9565b60405161006691906109dc565b60405180910390f35b34801561007b57600080fd5b5061008461011d565b6040516100919190610c9a565b60405180910390f35b6100b460048036038101906100af9190610e2a565b61049b565b005b3480156100c257600080fd5b506100dd60048036038101906100d89190610f6f565b6105f1565b6040516100f09796959493929190611004565b60405180910390f35b60008054906101000a900473ffffffffffffffffffffffffffffffffffffffff1681565b60606001805480602002602001604051908101604052809291908181526020016000905b8282101561049257838290600052602060002090600702016040518060e00160405290816000820154815260200160018201805461017e906110c5565b80601f01602080910402602001604051908101604052809291908181526020018280546101aa906110c5565b80156101f75780601f106101cc576101008083540402835291602001916101f7565b820191906000526020600020905b8154815290600101906020018083116101da57829003601f168201915b50505050508152602001600282018054610210906110c5565b80601f016020809104026020016040519081016040528092919081815260200182805461023c906110c5565b80156102895780601f1061025e57610100808354040283529160200191610289565b820191906000526020600020905b81548152906001019060200180831161026c57829003601f168201915b505050505081526020016003820180546102a2906110c5565b80601f01602080910402602001604051908101604052809291908181526020018280546102ce906110c5565b801561031b5780601f106102f05761010080835404028352916020019161031b565b820191906000526020600020905b8154815290600101906020018083116102fe57829003601f168201915b50505050508152602001600482018054610334906110c5565b80601f0160208091040260200160405190810160405280929190818152602001828054610360906110c5565b80156103ad5780601f10610382576101008083540402835291602001916103ad565b820191906000526020600020905b81548152906001019060200180831161039057829003601f168201915b505050505081526020016005820180546103c6906110c5565b80601f01602080910402602001604051908101604052809291908181526020018280546103f2906110c5565b801561043f5780601f106104145761010080835404028352916020019161043f565b820191906000526020600020905b81548152906001019060200180831161042257829003601f168201915b505050505081526020016006820160009054906101000a900460ff16600281111561046d5761046c610ad5565b5b600281111561047f5761047e610ad5565b5b8152505081526020019060010190610141565b50505050905090565b6000600180549050905060006040518060e001604052808381526020018981526020018881526020018781526020018681526020018581526020018460028111156104e9576104e8610ad5565b5b815250905060018190806001815401808255809150506001900390600052602060002090600702016000909190919091506000820151816000015560208201518160010190805190602001906105409291906108f8565b50604082015181600201908051906020019061055d9291906108f8565b50606082015181600301908051906020019061057a9291906108f8565b5060808201518160040190805190602001906105979291906108f8565b5060a08201518160050190805190602001906105b49291906108f8565b5060c08201518160060160006101000a81548160ff021916908360028111156105e0576105df610ad5565b5b021790555050505050505050505050565b6001818154811061060157600080fd5b906000526020600020906007020160009150905080600001549080600101805461062a906110c5565b80601f0160208091040260200160405190810160405280929190818152602001828054610656906110c5565b80156106a35780601f10610678576101008083540402835291602001916106a3565b820191906000526020600020905b81548152906001019060200180831161068657829003601f168201915b5050505050908060020180546106b8906110c5565b80601f01602080910402602001604051908101604052809291908181526020018280546106e4906110c5565b80156107315780601f1061070657610100808354040283529160200191610731565b820191906000526020600020905b81548152906001019060200180831161071457829003601f168201915b505050505090806003018054610746906110c5565b80601f0160208091040260200160405190810160405280929190818152602001828054610772906110c5565b80156107bf5780601f10610794576101008083540402835291602001916107bf565b820191906000526020600020905b8154815290600101906020018083116107a257829003601f168201915b5050505050908060040180546107d4906110c5565b80601f0160208091040260200160405190810160405280929190818152602001828054610800906110c5565b801561084d5780601f106108225761010080835404028352916020019161084d565b820191906000526020600020905b81548152906001019060200180831161083057829003601f168201915b505050505090806005018054610862906110c5565b80601f016020809104026020016040519081016040528092919081815260200182805461088e906110c5565b80156108db5780601f106108b0576101008083540402835291602001916108db565b820191906000526020600020905b8154815290600101906020018083116108be57829003601f168201915b5050505050908060060160009054906101000a900460ff16905087565b828054610904906110c5565b90600052602060002090601f016020900481019282610926576000855561096d565b82601f1061093f57805160ff191683800117855561096d565b8280016001018555821561096d579182015b8281111561096c578251825591602001919060010190610951565b5b50905061097a919061097e565b5090565b5b8082111561099757600081600090555060010161097f565b5090565b600073ffffffffffffffffffffffffffffffffffffffff82169050919050565b60006109c68261099b565b9050919050565b6109d6816109bb565b82525050565b60006020820190506109f160008301846109cd565b92915050565b600081519050919050565b600082825260208201905092915050565b6000819050602082019050919050565b6000819050919050565b610a3681610a23565b82525050565b600081519050919050565b600082825260208201905092915050565b60005b83811015610a76578082015181840152602081019050610a5b565b83811115610a85576000848401525b50505050565b6000601f19601f8301169050919050565b6000610aa782610a3c565b610ab18185610a47565b9350610ac1818560208601610a58565b610aca81610a8b565b840191505092915050565b7f4e487b7100000000000000000000000000000000000000000000000000000000600052602160045260246000fd5b60038110610b1557610b14610ad5565b5b50565b6000819050610b2682610b04565b919050565b6000610b3682610b18565b9050919050565b610b4681610b2b565b82525050565b600060e083016000830151610b646000860182610a2d565b5060208301518482036020860152610b7c8282610a9c565b91505060408301518482036040860152610b968282610a9c565b91505060608301518482036060860152610bb08282610a9c565b91505060808301518482036080860152610bca8282610a9c565b91505060a083015184820360a0860152610be48282610a9c565b91505060c0830151610bf960c0860182610b3d565b508091505092915050565b6000610c108383610b4c565b905092915050565b6000602082019050919050565b6000610c30826109f7565b610c3a8185610a02565b935083602082028501610c4c85610a13565b8060005b85811015610c885784840389528151610c698582610c04565b9450610c7483610c18565b925060208a01995050600181019050610c50565b50829750879550505050505092915050565b60006020820190508181036000830152610cb48184610c25565b905092915050565b6000604051905090565b600080fd5b600080fd5b600080fd5b600080fd5b7f4e487b7100000000000000000000000000000000000000000000000000000000600052604160045260246000fd5b610d1282610a8b565b810181811067ffffffffffffffff82111715610d3157610d30610cda565b5b80604052505050565b6000610d44610cbc565b9050610d508282610d09565b919050565b600067ffffffffffffffff821115610d7057610d6f610cda565b5b610d7982610a8b565b9050602081019050919050565b82818337600083830152505050565b6000610da8610da384610d55565b610d3a565b905082815260208101848484011115610dc457610dc3610cd5565b5b610dcf848285610d86565b509392505050565b600082601f830112610dec57610deb610cd0565b5b8135610dfc848260208601610d95565b91505092915050565b60038110610e1257600080fd5b50565b600081359050610e2481610e05565b92915050565b60008060008060008060c08789031215610e4757610e46610cc6565b5b600087013567ffffffffffffffff811115610e6557610e64610ccb565b5b610e7189828a01610dd7565b965050602087013567ffffffffffffffff811115610e9257610e91610ccb565b5b610e9e89828a01610dd7565b955050604087013567ffffffffffffffff811115610ebf57610ebe610ccb565b5b610ecb89828a01610dd7565b945050606087013567ffffffffffffffff811115610eec57610eeb610ccb565b5b610ef889828a01610dd7565b935050608087013567ffffffffffffffff811115610f1957610f18610ccb565b5b610f2589828a01610dd7565b92505060a0610f3689828a01610e15565b9150509295509295509295565b610f4c81610a23565b8114610f5757600080fd5b50565b600081359050610f6981610f43565b92915050565b600060208284031215610f8557610f84610cc6565b5b6000610f9384828501610f5a565b91505092915050565b610fa581610a23565b82525050565b600082825260208201905092915050565b6000610fc782610a3c565b610fd18185610fab565b9350610fe1818560208601610a58565b610fea81610a8b565b840191505092915050565b610ffe81610b2b565b82525050565b600060e082019050611019600083018a610f9c565b818103602083015261102b8189610fbc565b9050818103604083015261103f8188610fbc565b905081810360608301526110538187610fbc565b905081810360808301526110678186610fbc565b905081810360a083015261107b8185610fbc565b905061108a60c0830184610ff5565b98975050505050505050565b7f4e487b7100000000000000000000000000000000000000000000000000000000600052602260045260246000fd5b600060028204905060018216806110dd57607f821691505b602082108114156110f1576110f0611096565b5b5091905056fea264697066735822122032c1ef2beea1bc62a304d998e862314088d9f7c3fb7045e244c2858f7e11e2d664736f6c634300080a0033",
  "immutableReferences": {},
  "source": "// SPDX-License-Identifier: MIT\r\npragma solidity >=0.4.22 <0.9.0;\r\n\r\ncontract DigitalMuseum {\r\n    /* details of the collection */\r\n    struct Collection {\r\n        uint256 id;\r\n        string name;\r\n        string author;\r\n        string detailhash;\r\n        string imghash;\r\n        string dynasty;\r\n        Category class;\r\n    }\r\n    enum Category {\r\n        jewelry,\r\n        painting,\r\n        pottery\r\n    }\r\n    /* the museum that collection belongs to */\r\n    address public museum;\r\n    /* The array to store all the collections */\r\n    Collection[] public collections;\r\n\r\n    constructor(){\r\n        museum = msg.sender;\r\n    }\r\n\r\n    function createCollection(string memory _name,string memory _author,string memory _detailhash, string memory _imghash,string memory _dynasty, Category _class) payable public {\r\n        uint _id = collections.length;\r\n        Collection memory newCollection = Collection(_id, _name, _author,_detailhash,_imghash,_dynasty,_class);\r\n        collections.push(newCollection);\r\n    }\r\n\r\n    function getCollections() public view returns(Collection[] memory){\r\n        return collections;\r\n    }\r\n\r\n    // function setBrand(string memory name) public {\r\n    //     brand = name;\r\n    // }\r\n}\r\n",
  "sourcePath": "C:\\Users\\33\\Desktop\\almamater88\\digital_museum\\almamaster88\\src\\Web3\\contracts\\DigitalMuseum.sol",
  "compiler": {
    "name": "solc",
    "version": "0.8.10+commit.fc410830.Emscripten.clang"
  },
  "schemaVersion": "3.4.3",
  "updatedAt": "2021-11-26T08:50:49.276Z",
  "networkType": "ethereum",
  "devdoc": {
    "kind": "dev",
    "methods": {},
    "version": 1
  },
  "userdoc": {
    "kind": "user",
    "methods": {},
    "version": 1
  }
}