{
  "contractName": "Market",
  "abi": [
    {
      "inputs": [],
      "stateMutability": "nonpayable",
      "type": "constructor"
    },
    {
      "anonymous": false,
      "inputs": [
        {
          "indexed": true,
          "internalType": "uint256",
          "name": "itemId",
          "type": "uint256"
        },
        {
          "indexed": true,
          "internalType": "address",
          "name": "nftContractAdd",
          "type": "address"
        },
        {
          "indexed": true,
          "internalType": "uint256",
          "name": "tokenId",
          "type": "uint256"
        },
        {
          "indexed": false,
          "internalType": "uint256",
          "name": "price",
          "type": "uint256"
        },
        {
          "indexed": false,
          "internalType": "address payable",
          "name": "seller",
          "type": "address"
        },
        {
          "indexed": false,
          "internalType": "address payable",
          "name": "owner",
          "type": "address"
        },
        {
          "indexed": false,
          "internalType": "bool",
          "name": "sold",
          "type": "bool"
        }
      ],
      "name": "MarketItemCreated",
      "type": "event"
    },
    {
      "inputs": [],
      "name": "getListingPrice",
      "outputs": [
        {
          "internalType": "uint256",
          "name": "",
          "type": "uint256"
        }
      ],
      "stateMutability": "view",
      "type": "function",
      "constant": true
    },
    {
      "inputs": [
        {
          "internalType": "address",
          "name": "contractAdd",
          "type": "address"
        },
        {
          "internalType": "uint256",
          "name": "tokenId",
          "type": "uint256"
        },
        {
          "internalType": "uint256",
          "name": "price",
          "type": "uint256"
        }
      ],
      "name": "createMarketItem",
      "outputs": [],
      "stateMutability": "payable",
      "type": "function",
      "payable": true
    },
    {
      "inputs": [
        {
          "internalType": "uint256",
          "name": "itemId",
          "type": "uint256"
        },
        {
          "internalType": "address",
          "name": "contractAdd",
          "type": "address"
        }
      ],
      "name": "createMarketSale",
      "outputs": [],
      "stateMutability": "payable",
      "type": "function",
      "payable": true
    },
    {
      "inputs": [],
      "name": "fetchMarketItems",
      "outputs": [
        {
          "components": [
            {
              "internalType": "uint256",
              "name": "itemId",
              "type": "uint256"
            },
            {
              "internalType": "address",
              "name": "nftContractAdd",
              "type": "address"
            },
            {
              "internalType": "uint256",
              "name": "tokenId",
              "type": "uint256"
            },
            {
              "internalType": "uint256",
              "name": "price",
              "type": "uint256"
            },
            {
              "internalType": "address payable",
              "name": "seller",
              "type": "address"
            },
            {
              "internalType": "address payable",
              "name": "owner",
              "type": "address"
            },
            {
              "internalType": "bool",
              "name": "sold",
              "type": "bool"
            }
          ],
          "internalType": "struct Market.MarketItem[]",
          "name": "",
          "type": "tuple[]"
        }
      ],
      "stateMutability": "view",
      "type": "function",
      "constant": true
    },
    {
      "inputs": [],
      "name": "fetchMyNFTs",
      "outputs": [
        {
          "components": [
            {
              "internalType": "uint256",
              "name": "itemId",
              "type": "uint256"
            },
            {
              "internalType": "address",
              "name": "nftContractAdd",
              "type": "address"
            },
            {
              "internalType": "uint256",
              "name": "tokenId",
              "type": "uint256"
            },
            {
              "internalType": "uint256",
              "name": "price",
              "type": "uint256"
            },
            {
              "internalType": "address payable",
              "name": "seller",
              "type": "address"
            },
            {
              "internalType": "address payable",
              "name": "owner",
              "type": "address"
            },
            {
              "internalType": "bool",
              "name": "sold",
              "type": "bool"
            }
          ],
          "internalType": "struct Market.MarketItem[]",
          "name": "",
          "type": "tuple[]"
        }
      ],
      "stateMutability": "view",
      "type": "function",
      "constant": true
    },
    {
      "inputs": [],
      "name": "fetchItemsCreated",
      "outputs": [
        {
          "components": [
            {
              "internalType": "uint256",
              "name": "itemId",
              "type": "uint256"
            },
            {
              "internalType": "address",
              "name": "nftContractAdd",
              "type": "address"
            },
            {
              "internalType": "uint256",
              "name": "tokenId",
              "type": "uint256"
            },
            {
              "internalType": "uint256",
              "name": "price",
              "type": "uint256"
            },
            {
              "internalType": "address payable",
              "name": "seller",
              "type": "address"
            },
            {
              "internalType": "address payable",
              "name": "owner",
              "type": "address"
            },
            {
              "internalType": "bool",
              "name": "sold",
              "type": "bool"
            }
          ],
          "internalType": "struct Market.MarketItem[]",
          "name": "",
          "type": "tuple[]"
        }
      ],
      "stateMutability": "view",
      "type": "function",
      "constant": true
    }
  ],
  "bytecode": "0x60806040526658d15e1762800060045534801561001b57600080fd5b50600160008190555033600360006101000a81548173ffffffffffffffffffffffffffffffffffffffff021916908373ffffffffffffffffffffffffffffffffffffffff1602179055506118da806100746000396000f3fe6080604052600436106100555760003560e01c80630f08efe01461005a57806312e8558514610085578063202e3740146100b057806339071b39146100db57806358eb2df5146100f7578063f064c32e14610113575b600080fd5b34801561006657600080fd5b5061006f61013e565b60405161007c91906112f2565b60405180910390f35b34801561009157600080fd5b5061009a6103ed565b6040516100a79190611323565b60405180910390f35b3480156100bc57600080fd5b506100c56103f7565b6040516100d291906112f2565b60405180910390f35b6100f560048036038101906100f0919061139b565b610721565b005b610111600480360381019061010c91906113db565b6109ed565b005b34801561011f57600080fd5b50610128610d50565b60405161013591906112f2565b60405180910390f35b6060600061014c600161107a565b9050600061015a600261107a565b610164600161107a565b61016e919061145d565b90506000808267ffffffffffffffff81111561018d5761018c611491565b5b6040519080825280602002602001820160405280156101c657816020015b6101b361109e565b8152602001906001900390816101ab5790505b5090506000600190505b8481116103e257600073ffffffffffffffffffffffffffffffffffffffff166005600083815260200190815260200160002060050160009054906101000a900473ffffffffffffffffffffffffffffffffffffffff1673ffffffffffffffffffffffffffffffffffffffff1614156103cf576000600560008381526020019081526020016000209050806040518060e0016040529081600082015481526020016001820160009054906101000a900473ffffffffffffffffffffffffffffffffffffffff1673ffffffffffffffffffffffffffffffffffffffff1673ffffffffffffffffffffffffffffffffffffffff16815260200160028201548152602001600382015481526020016004820160009054906101000a900473ffffffffffffffffffffffffffffffffffffffff1673ffffffffffffffffffffffffffffffffffffffff1673ffffffffffffffffffffffffffffffffffffffff1681526020016005820160009054906101000a900473ffffffffffffffffffffffffffffffffffffffff1673ffffffffffffffffffffffffffffffffffffffff1673ffffffffffffffffffffffffffffffffffffffff1681526020016005820160149054906101000a900460ff1615151515815250508385815181106103b3576103b26114c0565b5b60200260200101819052506001846103cb91906114ef565b9350505b80806103da90611545565b9150506101d0565b508094505050505090565b6000600454905090565b60606000610405600161107a565b90506000806000600190505b8381116104a5573373ffffffffffffffffffffffffffffffffffffffff166005600083815260200190815260200160002060050160009054906101000a900473ffffffffffffffffffffffffffffffffffffffff1673ffffffffffffffffffffffffffffffffffffffff1614156104925760018261048f91906114ef565b91505b808061049d90611545565b915050610411565b5060008167ffffffffffffffff8111156104c2576104c1611491565b5b6040519080825280602002602001820160405280156104fb57816020015b6104e861109e565b8152602001906001900390816104e05790505b5090506000600190505b848111610716573373ffffffffffffffffffffffffffffffffffffffff166005600083815260200190815260200160002060050160009054906101000a900473ffffffffffffffffffffffffffffffffffffffff1673ffffffffffffffffffffffffffffffffffffffff161415610703576000600560008381526020019081526020016000209050806040518060e0016040529081600082015481526020016001820160009054906101000a900473ffffffffffffffffffffffffffffffffffffffff1673ffffffffffffffffffffffffffffffffffffffff1673ffffffffffffffffffffffffffffffffffffffff16815260200160028201548152602001600382015481526020016004820160009054906101000a900473ffffffffffffffffffffffffffffffffffffffff1673ffffffffffffffffffffffffffffffffffffffff1673ffffffffffffffffffffffffffffffffffffffff1681526020016005820160009054906101000a900473ffffffffffffffffffffffffffffffffffffffff1673ffffffffffffffffffffffffffffffffffffffff1673ffffffffffffffffffffffffffffffffffffffff1681526020016005820160149054906101000a900460ff1615151515815250508386815181106106e7576106e66114c0565b5b60200260200101819052506001856106ff91906114ef565b9450505b808061070e90611545565b915050610505565b508094505050505090565b60026000541415610767576040517f08c379a000000000000000000000000000000000000000000000000000000000815260040161075e906115eb565b60405180910390fd5b6002600081905550600060056000848152602001908152602001600020600301549050600060056000858152602001908152602001600020600201549050670de0b6b3a7640000346107b9919061163a565b82146107fa576040517f08c379a00000000000000000000000000000000000000000000000000000000081526004016107f1906116dd565b60405180910390fd5b6005600085815260200190815260200160002060040160009054906101000a900473ffffffffffffffffffffffffffffffffffffffff1673ffffffffffffffffffffffffffffffffffffffff166108fc349081150290604051600060405180830381858888f19350505050158015610876573d6000803e3d6000fd5b508273ffffffffffffffffffffffffffffffffffffffff166323b872dd3033846040518463ffffffff1660e01b81526004016108b49392919061170c565b600060405180830381600087803b1580156108ce57600080fd5b505af11580156108e2573d6000803e3d6000fd5b50505050336005600086815260200190815260200160002060050160006101000a81548173ffffffffffffffffffffffffffffffffffffffff021916908373ffffffffffffffffffffffffffffffffffffffff16021790555060016005600086815260200190815260200160002060050160146101000a81548160ff0219169083151502179055506109746002611088565b600360009054906101000a900473ffffffffffffffffffffffffffffffffffffffff1673ffffffffffffffffffffffffffffffffffffffff166108fc6004549081150290604051600060405180830381858888f193505050501580156109de573d6000803e3d6000fd5b50505060016000819055505050565b60026000541415610a33576040517f08c379a0000000000000000000000000000000000000000000000000000000008152600401610a2a906115eb565b60405180910390fd5b600260008190555060008111610a7e576040517f08c379a0000000000000000000000000000000000000000000000000000000008152600401610a759061178f565b60405180910390fd5b6004543414610ac2576040517f08c379a0000000000000000000000000000000000000000000000000000000008152600401610ab990611821565b60405180910390fd5b610acc6001611088565b6000610ad8600161107a565b90506040518060e001604052808281526020018573ffffffffffffffffffffffffffffffffffffffff1681526020018481526020018381526020013373ffffffffffffffffffffffffffffffffffffffff168152602001600073ffffffffffffffffffffffffffffffffffffffff16815260200160001515815250600560008381526020019081526020016000206000820151816000015560208201518160010160006101000a81548173ffffffffffffffffffffffffffffffffffffffff021916908373ffffffffffffffffffffffffffffffffffffffff160217905550604082015181600201556060820151816003015560808201518160040160006101000a81548173ffffffffffffffffffffffffffffffffffffffff021916908373ffffffffffffffffffffffffffffffffffffffff16021790555060a08201518160050160006101000a81548173ffffffffffffffffffffffffffffffffffffffff021916908373ffffffffffffffffffffffffffffffffffffffff16021790555060c08201518160050160146101000a81548160ff0219169083151502179055509050508373ffffffffffffffffffffffffffffffffffffffff166323b872dd3330866040518463ffffffff1660e01b8152600401610cb99392919061170c565b600060405180830381600087803b158015610cd357600080fd5b505af1158015610ce7573d6000803e3d6000fd5b50505050828473ffffffffffffffffffffffffffffffffffffffff16827fe05c7cbda6de29554fe7b8027bc0a09583ee066fb1f7c81c5a4432280747328f8533600080604051610d3a949392919061185f565b60405180910390a4506001600081905550505050565b60606000610d5e600161107a565b90506000806000600190505b838111610dfe573373ffffffffffffffffffffffffffffffffffffffff166005600083815260200190815260200160002060040160009054906101000a900473ffffffffffffffffffffffffffffffffffffffff1673ffffffffffffffffffffffffffffffffffffffff161415610deb57600182610de891906114ef565b91505b8080610df690611545565b915050610d6a565b5060008167ffffffffffffffff811115610e1b57610e1a611491565b5b604051908082528060200260200182016040528015610e5457816020015b610e4161109e565b815260200190600190039081610e395790505b5090506000600190505b84811161106f573373ffffffffffffffffffffffffffffffffffffffff166005600083815260200190815260200160002060040160009054906101000a900473ffffffffffffffffffffffffffffffffffffffff1673ffffffffffffffffffffffffffffffffffffffff16141561105c576000600560008381526020019081526020016000209050806040518060e0016040529081600082015481526020016001820160009054906101000a900473ffffffffffffffffffffffffffffffffffffffff1673ffffffffffffffffffffffffffffffffffffffff1673ffffffffffffffffffffffffffffffffffffffff16815260200160028201548152602001600382015481526020016004820160009054906101000a900473ffffffffffffffffffffffffffffffffffffffff1673ffffffffffffffffffffffffffffffffffffffff1673ffffffffffffffffffffffffffffffffffffffff1681526020016005820160009054906101000a900473ffffffffffffffffffffffffffffffffffffffff1673ffffffffffffffffffffffffffffffffffffffff1673ffffffffffffffffffffffffffffffffffffffff1681526020016005820160149054906101000a900460ff1615151515815250508386815181106110405761103f6114c0565b5b602002602001018190525060018561105891906114ef565b9450505b808061106790611545565b915050610e5e565b508094505050505090565b600081600001549050919050565b6001816000016000828254019250508190555050565b6040518060e0016040528060008152602001600073ffffffffffffffffffffffffffffffffffffffff1681526020016000815260200160008152602001600073ffffffffffffffffffffffffffffffffffffffff168152602001600073ffffffffffffffffffffffffffffffffffffffff1681526020016000151581525090565b600081519050919050565b600082825260208201905092915050565b6000819050602082019050919050565b6000819050919050565b61115e8161114b565b82525050565b600073ffffffffffffffffffffffffffffffffffffffff82169050919050565b600061118f82611164565b9050919050565b61119f81611184565b82525050565b60006111b082611164565b9050919050565b6111c0816111a5565b82525050565b60008115159050919050565b6111db816111c6565b82525050565b60e0820160008201516111f76000850182611155565b50602082015161120a6020850182611196565b50604082015161121d6040850182611155565b5060608201516112306060850182611155565b50608082015161124360808501826111b7565b5060a082015161125660a08501826111b7565b5060c082015161126960c08501826111d2565b50505050565b600061127b83836111e1565b60e08301905092915050565b6000602082019050919050565b600061129f8261111f565b6112a9818561112a565b93506112b48361113b565b8060005b838110156112e55781516112cc888261126f565b97506112d783611287565b9250506001810190506112b8565b5085935050505092915050565b6000602082019050818103600083015261130c8184611294565b905092915050565b61131d8161114b565b82525050565b60006020820190506113386000830184611314565b92915050565b600080fd5b61134c8161114b565b811461135757600080fd5b50565b60008135905061136981611343565b92915050565b61137881611184565b811461138357600080fd5b50565b6000813590506113958161136f565b92915050565b600080604083850312156113b2576113b161133e565b5b60006113c08582860161135a565b92505060206113d185828601611386565b9150509250929050565b6000806000606084860312156113f4576113f361133e565b5b600061140286828701611386565b93505060206114138682870161135a565b92505060406114248682870161135a565b9150509250925092565b7f4e487b7100000000000000000000000000000000000000000000000000000000600052601160045260246000fd5b60006114688261114b565b91506114738361114b565b9250828210156114865761148561142e565b5b828203905092915050565b7f4e487b7100000000000000000000000000000000000000000000000000000000600052604160045260246000fd5b7f4e487b7100000000000000000000000000000000000000000000000000000000600052603260045260246000fd5b60006114fa8261114b565b91506115058361114b565b9250827fffffffffffffffffffffffffffffffffffffffffffffffffffffffffffffffff0382111561153a5761153961142e565b5b828201905092915050565b60006115508261114b565b91507fffffffffffffffffffffffffffffffffffffffffffffffffffffffffffffffff8214156115835761158261142e565b5b600182019050919050565b600082825260208201905092915050565b7f5265656e7472616e637947756172643a207265656e7472616e742063616c6c00600082015250565b60006115d5601f8361158e565b91506115e08261159f565b602082019050919050565b60006020820190508181036000830152611604816115c8565b9050919050565b7f4e487b7100000000000000000000000000000000000000000000000000000000600052601260045260246000fd5b60006116458261114b565b91506116508361114b565b9250826116605761165f61160b565b5b828204905092915050565b7f506c65617365207375626d6974207468652061736b696e67207072696365206960008201527f6e206f7264657220746f20636f6d706c65746520746865207075726368617365602082015250565b60006116c760408361158e565b91506116d28261166b565b604082019050919050565b600060208201905081810360008301526116f6816116ba565b9050919050565b61170681611184565b82525050565b600060608201905061172160008301866116fd565b61172e60208301856116fd565b61173b6040830184611314565b949350505050565b7f50726963652073686f756c64206265206174206c656173742031776569000000600082015250565b6000611779601d8361158e565b915061178482611743565b602082019050919050565b600060208201905081810360008301526117a88161176c565b9050919050565b7f5072696365206d75737420626520657175616c20746f206c697374696e67207060008201527f7269636500000000000000000000000000000000000000000000000000000000602082015250565b600061180b60248361158e565b9150611816826117af565b604082019050919050565b6000602082019050818103600083015261183a816117fe565b9050919050565b61184a816111a5565b82525050565b611859816111c6565b82525050565b60006080820190506118746000830187611314565b6118816020830186611841565b61188e6040830185611841565b61189b6060830184611850565b9594505050505056fea26469706673582212201668aec3126abbee20cb5522d81ed3c9bfef2e953fa0a8495bf0da090a8719cb64736f6c634300080a0033",
  "immutableReferences": {},
  "source": "// SPDX-License-Identifier: MIT\r\npragma solidity ^0.8.3;\r\n\r\nimport \"@openzeppelin/contracts/utils/Counters.sol\";\r\nimport \"@openzeppelin/contracts/security/ReentrancyGuard.sol\";\r\nimport \"@openzeppelin/contracts/token/ERC721/ERC721.sol\";\r\n\r\ncontract Market is ReentrancyGuard {\r\n    using Counters for Counters.Counter;\r\n    Counters.Counter private _itemIds;\r\n    Counters.Counter private _itemsSold;\r\n\r\n    address payable owner;\r\n    /* service fee */\r\n    uint256 listingPrice = 0.025 ether;\r\n\r\n    constructor() {\r\n        owner = payable(msg.sender);\r\n    }\r\n\r\n    struct MarketItem {\r\n        uint256 itemId;\r\n        address nftContractAdd;\r\n        uint256 tokenId;\r\n        uint256 price;\r\n        address payable seller;\r\n        address payable owner;\r\n        bool sold;\r\n    }\r\n    /* map the itemId to the Item */\r\n    mapping(uint256 => MarketItem) private idToMktItem;\r\n\r\n    /* Returns the listing price of the contract */\r\n    function getListingPrice() public view returns (uint256) {\r\n        return listingPrice;\r\n    }\r\n\r\n    /* Places an nft to the market */\r\n    event MarketItemCreated(\r\n        uint256 indexed itemId,\r\n        address indexed nftContractAdd,\r\n        uint256 indexed tokenId,\r\n        uint256 price,\r\n        address payable seller,\r\n        address payable owner,\r\n        bool sold\r\n    );\r\n\r\n    function createMarketItem(\r\n        address contractAdd,\r\n        uint256 tokenId,\r\n        uint256 price\r\n    ) public payable nonReentrant {\r\n        require(price > 0, \"Price should be at least 1wei\");\r\n        require(\r\n            msg.value == listingPrice,\r\n            \"Price must be equal to listing price\"\r\n        );\r\n        _itemIds.increment();\r\n        uint256 itemId = _itemIds.current();\r\n\r\n        idToMktItem[itemId] = MarketItem(\r\n            itemId,\r\n            contractAdd,\r\n            tokenId,\r\n            price,\r\n            payable(msg.sender),\r\n            payable(address(0)),\r\n            false\r\n        );\r\n\r\n        IERC721(contractAdd).transferFrom(msg.sender, address(this), tokenId);\r\n\r\n        emit MarketItemCreated(\r\n            itemId,\r\n            contractAdd,\r\n            tokenId,\r\n            price,\r\n            payable(msg.sender),\r\n            payable(address(0)),\r\n            false\r\n        );\r\n    }\r\n\r\n    /* Creates the sale of a market item */\r\n    /* Transfers ownership of the item, as well as funds between parties */\r\n    function createMarketSale(uint256 itemId, address contractAdd)\r\n        public\r\n        payable\r\n        nonReentrant\r\n    {\r\n        uint256 price = idToMktItem[itemId].price;\r\n        uint256 tokenId = idToMktItem[itemId].tokenId;\r\n        require(\r\n            price == msg.value/(1 ether),\r\n            \"Please submit the asking price in order to complete the purchase\"\r\n        );\r\n\r\n        idToMktItem[itemId].seller.transfer(msg.value);\r\n        IERC721(contractAdd).transferFrom(address(this), msg.sender, tokenId);\r\n        idToMktItem[itemId].owner = payable(msg.sender);\r\n        idToMktItem[itemId].sold = true;\r\n        _itemsSold.increment();\r\n        payable(owner).transfer(listingPrice);\r\n    }\r\n\r\n    /* Returns all unsold market items */\r\n    function fetchMarketItems() public view returns (MarketItem[] memory) {\r\n        uint256 totalItems = _itemIds.current();\r\n        uint256 unsoldItemsCount = _itemIds.current() - _itemsSold.current();\r\n        uint256 currenIndex = 0;\r\n\r\n        MarketItem[] memory items = new MarketItem[](unsoldItemsCount);\r\n        for (uint i = 1; i <= totalItems; i++) {\r\n            if (idToMktItem[i].owner == address(0)) {\r\n                MarketItem storage currentItem = idToMktItem[i];\r\n                items[currenIndex] = currentItem;\r\n                currenIndex = currenIndex + 1;\r\n            }\r\n        }\r\n        return items;\r\n    }\r\n\r\n    /* Returns onlyl items that a user has purchased */\r\n    function fetchMyNFTs() public view returns (MarketItem[] memory) {\r\n        uint256 totalItems = _itemIds.current();\r\n        uint256 currenIndex = 0;\r\n        uint256 myItemsCount = 0;\r\n\r\n        for(uint i = 1; i <= totalItems; i++) {\r\n            if (idToMktItem[i].owner == msg.sender) {\r\n                myItemsCount +=1;\r\n            }\r\n        }\r\n\r\n        MarketItem[] memory items = new MarketItem[](myItemsCount);\r\n        for (uint i = 1; i <= totalItems; i++) {\r\n            if (idToMktItem[i].owner == msg.sender) {\r\n                MarketItem storage currentItem = idToMktItem[i];\r\n                items[currenIndex] = currentItem;\r\n                currenIndex = currenIndex + 1;\r\n            }\r\n        }\r\n        return items;\r\n    }\r\n\r\n    /* Returns only items a user has created */\r\n    function fetchItemsCreated() public view returns (MarketItem[] memory) {\r\n        uint256 totalItems = _itemIds.current();\r\n        uint256 currenIndex = 0;\r\n        uint256 createdItemsCount = 0;\r\n\r\n        for(uint i = 1; i <= totalItems; i++) {\r\n            if (idToMktItem[i].seller == msg.sender) {\r\n                createdItemsCount +=1;\r\n            }\r\n        }\r\n\r\n        MarketItem[] memory items = new MarketItem[](createdItemsCount);\r\n        for (uint i = 1; i <= totalItems; i++) {\r\n            if (idToMktItem[i].seller == msg.sender) {\r\n                MarketItem storage currentItem = idToMktItem[i];\r\n                items[currenIndex] = currentItem;\r\n                currenIndex = currenIndex + 1;\r\n            }\r\n        }\r\n        return items;\r\n    }\r\n\r\n}\r\n",
  "sourcePath": "C:\\Users\\33\\Desktop\\almamater88\\digital_museum\\almamaster88\\src\\Web3\\contracts\\Market.sol",
  "compiler": {
    "name": "solc",
    "version": "0.8.10+commit.fc410830.Emscripten.clang"
  },
  "schemaVersion": "3.4.3",
  "updatedAt": "2022-02-10T07:37:18.090Z",
  "networkType": "ethereum",
  "devdoc": {
    "kind": "dev",
    "methods": {},
    "version": 1
  },
  "userdoc": {
    "kind": "user",
    "methods": {},
    "version": 1
  }
}