{
  "contractName": "Market",
  "abi": [
    {
      "inputs": [],
      "stateMutability": "nonpayable",
      "type": "constructor"
    },
    {
      "anonymous": false,
      "inputs": [
        {
          "indexed": true,
          "internalType": "uint256",
          "name": "tokenId",
          "type": "uint256"
        },
        {
          "indexed": false,
          "internalType": "address",
          "name": "sender",
          "type": "address"
        },
        {
          "indexed": false,
          "internalType": "uint256",
          "name": "value",
          "type": "uint256"
        }
      ],
      "name": "AuctionBid",
      "type": "event"
    },
    {
      "anonymous": false,
      "inputs": [
        {
          "indexed": true,
          "internalType": "uint256",
          "name": "tokenId",
          "type": "uint256"
        }
      ],
      "name": "AuctionCanceled",
      "type": "event"
    },
    {
      "anonymous": false,
      "inputs": [
        {
          "indexed": true,
          "internalType": "uint256",
          "name": "tokenId",
          "type": "uint256"
        },
        {
          "indexed": false,
          "internalType": "uint256",
          "name": "duration",
          "type": "uint256"
        },
        {
          "indexed": false,
          "internalType": "uint256",
          "name": "reservePrice",
          "type": "uint256"
        }
      ],
      "name": "AuctionCreated",
      "type": "event"
    },
    {
      "anonymous": false,
      "inputs": [
        {
          "indexed": true,
          "internalType": "uint256",
          "name": "tokenId",
          "type": "uint256"
        },
        {
          "indexed": false,
          "internalType": "address",
          "name": "winner",
          "type": "address"
        },
        {
          "indexed": false,
          "internalType": "uint256",
          "name": "amount",
          "type": "uint256"
        }
      ],
      "name": "AuctionEnded",
      "type": "event"
    },
    {
      "anonymous": false,
      "inputs": [
        {
          "indexed": true,
          "internalType": "uint256",
          "name": "itemId",
          "type": "uint256"
        },
        {
          "indexed": true,
          "internalType": "uint256",
          "name": "tokenId",
          "type": "uint256"
        },
        {
          "indexed": true,
          "internalType": "address",
          "name": "nftContract",
          "type": "address"
        },
        {
          "indexed": false,
          "internalType": "address payable",
          "name": "seller",
          "type": "address"
        },
        {
          "indexed": false,
          "internalType": "address payable",
          "name": "owner",
          "type": "address"
        },
        {
          "indexed": false,
          "internalType": "enum Market.Status",
          "name": "status",
          "type": "uint8"
        }
      ],
      "name": "MarketItemCreated",
      "type": "event"
    },
    {
      "inputs": [],
      "name": "MIN_BID_INCREMENT_PERCENT",
      "outputs": [
        {
          "internalType": "uint8",
          "name": "",
          "type": "uint8"
        }
      ],
      "stateMutability": "view",
      "type": "function",
      "constant": true
    },
    {
      "inputs": [],
      "name": "TIME_BUFFER",
      "outputs": [
        {
          "internalType": "uint16",
          "name": "",
          "type": "uint16"
        }
      ],
      "stateMutability": "view",
      "type": "function",
      "constant": true
    },
    {
      "inputs": [
        {
          "internalType": "uint256",
          "name": "",
          "type": "uint256"
        }
      ],
      "name": "auctions",
      "outputs": [
        {
          "internalType": "uint256",
          "name": "amount",
          "type": "uint256"
        },
        {
          "internalType": "uint256",
          "name": "duration",
          "type": "uint256"
        },
        {
          "internalType": "uint256",
          "name": "firstBidTime",
          "type": "uint256"
        },
        {
          "internalType": "uint256",
          "name": "reservePrice",
          "type": "uint256"
        },
        {
          "internalType": "address payable",
          "name": "bidder",
          "type": "address"
        },
        {
          "internalType": "address",
          "name": "curator",
          "type": "address"
        }
      ],
      "stateMutability": "view",
      "type": "function",
      "constant": true
    },
    {
      "inputs": [
        {
          "internalType": "uint256",
          "name": "_itemId",
          "type": "uint256"
        }
      ],
      "name": "fetchMarketItemDetail",
      "outputs": [
        {
          "components": [
            {
              "internalType": "uint256",
              "name": "itemId",
              "type": "uint256"
            },
            {
              "internalType": "uint256",
              "name": "tokenId",
              "type": "uint256"
            },
            {
              "internalType": "uint256",
              "name": "price",
              "type": "uint256"
            },
            {
              "internalType": "address payable",
              "name": "seller",
              "type": "address"
            },
            {
              "internalType": "address payable",
              "name": "owner",
              "type": "address"
            },
            {
              "internalType": "enum Market.Status",
              "name": "status",
              "type": "uint8"
            }
          ],
          "internalType": "struct Market.MarketItem",
          "name": "",
          "type": "tuple"
        }
      ],
      "stateMutability": "view",
      "type": "function",
      "constant": true
    },
    {
      "inputs": [],
      "name": "getListingPrice",
      "outputs": [
        {
          "internalType": "uint256",
          "name": "",
          "type": "uint256"
        }
      ],
      "stateMutability": "view",
      "type": "function",
      "constant": true
    },
    {
      "inputs": [
        {
          "internalType": "address",
          "name": "nftContract",
          "type": "address"
        },
        {
          "internalType": "uint256",
          "name": "tokenId",
          "type": "uint256"
        }
      ],
      "name": "createMarketItem",
      "outputs": [],
      "stateMutability": "payable",
      "type": "function",
      "payable": true
    },
    {
      "inputs": [
        {
          "internalType": "uint256",
          "name": "_itemId",
          "type": "uint256"
        },
        {
          "internalType": "uint256",
          "name": "_price",
          "type": "uint256"
        }
      ],
      "name": "setFixedPrice",
      "outputs": [],
      "stateMutability": "nonpayable",
      "type": "function"
    },
    {
      "inputs": [
        {
          "internalType": "uint256",
          "name": "itemId",
          "type": "uint256"
        },
        {
          "internalType": "uint256",
          "name": "duration",
          "type": "uint256"
        },
        {
          "internalType": "uint256",
          "name": "reservePrice",
          "type": "uint256"
        }
      ],
      "name": "createAuction",
      "outputs": [],
      "stateMutability": "payable",
      "type": "function",
      "payable": true
    },
    {
      "inputs": [
        {
          "internalType": "uint256",
          "name": "itemId",
          "type": "uint256"
        },
        {
          "internalType": "address",
          "name": "contractAdd",
          "type": "address"
        }
      ],
      "name": "createMarketSale",
      "outputs": [],
      "stateMutability": "payable",
      "type": "function",
      "payable": true
    },
    {
      "inputs": [],
      "name": "fetchMarketItems",
      "outputs": [
        {
          "components": [
            {
              "internalType": "uint256",
              "name": "itemId",
              "type": "uint256"
            },
            {
              "internalType": "uint256",
              "name": "tokenId",
              "type": "uint256"
            },
            {
              "internalType": "uint256",
              "name": "price",
              "type": "uint256"
            },
            {
              "internalType": "address payable",
              "name": "seller",
              "type": "address"
            },
            {
              "internalType": "address payable",
              "name": "owner",
              "type": "address"
            },
            {
              "internalType": "enum Market.Status",
              "name": "status",
              "type": "uint8"
            }
          ],
          "internalType": "struct Market.MarketItem[]",
          "name": "",
          "type": "tuple[]"
        }
      ],
      "stateMutability": "view",
      "type": "function",
      "constant": true
    },
    {
      "inputs": [],
      "name": "fetchMyNFTs",
      "outputs": [
        {
          "components": [
            {
              "internalType": "uint256",
              "name": "itemId",
              "type": "uint256"
            },
            {
              "internalType": "uint256",
              "name": "tokenId",
              "type": "uint256"
            },
            {
              "internalType": "uint256",
              "name": "price",
              "type": "uint256"
            },
            {
              "internalType": "address payable",
              "name": "seller",
              "type": "address"
            },
            {
              "internalType": "address payable",
              "name": "owner",
              "type": "address"
            },
            {
              "internalType": "enum Market.Status",
              "name": "status",
              "type": "uint8"
            }
          ],
          "internalType": "struct Market.MarketItem[]",
          "name": "",
          "type": "tuple[]"
        }
      ],
      "stateMutability": "view",
      "type": "function",
      "constant": true
    },
    {
      "inputs": [],
      "name": "fetchItemsCreated",
      "outputs": [
        {
          "components": [
            {
              "internalType": "uint256",
              "name": "itemId",
              "type": "uint256"
            },
            {
              "internalType": "uint256",
              "name": "tokenId",
              "type": "uint256"
            },
            {
              "internalType": "uint256",
              "name": "price",
              "type": "uint256"
            },
            {
              "internalType": "address payable",
              "name": "seller",
              "type": "address"
            },
            {
              "internalType": "address payable",
              "name": "owner",
              "type": "address"
            },
            {
              "internalType": "enum Market.Status",
              "name": "status",
              "type": "uint8"
            }
          ],
          "internalType": "struct Market.MarketItem[]",
          "name": "",
          "type": "tuple[]"
        }
      ],
      "stateMutability": "view",
      "type": "function",
      "constant": true
    },
    {
      "inputs": [
        {
          "internalType": "uint256",
          "name": "itemId",
          "type": "uint256"
        }
      ],
      "name": "fetchAuction",
      "outputs": [
        {
          "components": [
            {
              "internalType": "uint256",
              "name": "amount",
              "type": "uint256"
            },
            {
              "internalType": "uint256",
              "name": "duration",
              "type": "uint256"
            },
            {
              "internalType": "uint256",
              "name": "firstBidTime",
              "type": "uint256"
            },
            {
              "internalType": "uint256",
              "name": "reservePrice",
              "type": "uint256"
            },
            {
              "internalType": "address payable",
              "name": "bidder",
              "type": "address"
            },
            {
              "internalType": "address",
              "name": "curator",
              "type": "address"
            }
          ],
          "internalType": "struct Market.Auction",
          "name": "",
          "type": "tuple"
        }
      ],
      "stateMutability": "view",
      "type": "function",
      "constant": true
    },
    {
      "inputs": [
        {
          "internalType": "uint256",
          "name": "itemId",
          "type": "uint256"
        },
        {
          "internalType": "uint256",
          "name": "amount",
          "type": "uint256"
        }
      ],
      "name": "createBid",
      "outputs": [],
      "stateMutability": "payable",
      "type": "function",
      "payable": true
    },
    {
      "inputs": [
        {
          "internalType": "uint256",
          "name": "itemId",
          "type": "uint256"
        },
        {
          "internalType": "address",
          "name": "nftContract",
          "type": "address"
        }
      ],
      "name": "endAuction",
      "outputs": [],
      "stateMutability": "payable",
      "type": "function",
      "payable": true
    },
    {
      "inputs": [
        {
          "internalType": "uint256",
          "name": "_itemId",
          "type": "uint256"
        }
      ],
      "name": "cancelAuction",
      "outputs": [],
      "stateMutability": "nonpayable",
      "type": "function"
    },
    {
      "inputs": [
        {
          "internalType": "uint256",
          "name": "itemId",
          "type": "uint256"
        }
      ],
      "name": "auctionEnds",
      "outputs": [
        {
          "internalType": "uint256",
          "name": "",
          "type": "uint256"
        }
      ],
      "stateMutability": "view",
      "type": "function",
      "constant": true
    }
  ],
  "bytecode": "0x60806040526658d15e1762800060045534801561001b57600080fd5b50600160008190555033600360006101000a81548173ffffffffffffffffffffffffffffffffffffffff021916908373ffffffffffffffffffffffffffffffffffffffff16021790555061385b806100746000396000f3fe6080604052600436106100fe5760003560e01c80639bd7bb6811610095578063cbf8455d11610064578063cbf8455d14610320578063cda4beef1461033c578063ce58ee8114610358578063dd5f851814610395578063f064c32e146103b1576100fe565b80639bd7bb68146102735780639fc554091461029c578063b7751c71146102d9578063bc996819146102f5576100fe565b806353653131116100d157806353653131146101a0578063571a26a0146101cb5780637195e1241461020d57806396b5a7551461024a576100fe565b80630f08efe01461010357806312e855851461012e578063202e37401461015957806339071b3914610184575b600080fd5b34801561010f57600080fd5b506101186103dc565b60405161012591906129af565b60405180910390f35b34801561013a57600080fd5b50610143610740565b60405161015091906129e0565b60405180910390f35b34801561016557600080fd5b5061016e61074a565b60405161017b91906129af565b60405180910390f35b61019e60048036038101906101999190612a6a565b610a3e565b005b3480156101ac57600080fd5b506101b5610da4565b6040516101c29190612ac7565b60405180910390f35b3480156101d757600080fd5b506101f260048036038101906101ed9190612ae2565b610da9565b60405161020496959493929190612b2d565b60405180910390f35b34801561021957600080fd5b50610234600480360381019061022f9190612ae2565b610e25565b6040516102419190612c18565b60405180910390f35b34801561025657600080fd5b50610271600480360381019061026c9190612ae2565b610f26565b005b34801561027f57600080fd5b5061029a60048036038101906102959190612c33565b611164565b005b3480156102a857600080fd5b506102c360048036038101906102be9190612ae2565b611215565b6040516102d091906129e0565b60405180910390f35b6102f360048036038101906102ee9190612c33565b61125d565b005b34801561030157600080fd5b5061030a61179e565b6040516103179190612c8f565b60405180910390f35b61033a60048036038101906103359190612a6a565b6117a3565b005b61035660048036038101906103519190612caa565b611c1c565b005b34801561036457600080fd5b5061037f600480360381019061037a9190612ae2565b611ef3565b60405161038c9190612d78565b60405180910390f35b6103af60048036038101906103aa9190612d93565b612025565b005b3480156103bd57600080fd5b506103c6612300565b6040516103d391906129af565b60405180910390f35b606060006103ea60016125f4565b90506000806000600190505b8381116104c257600060038111156104115761041061283a565b5b6005600083815260200190815260200160002060040160149054906101000a900460ff1660038111156104475761044661283a565b5b148061049a5750600160038111156104625761046161283a565b5b6005600083815260200190815260200160002060040160149054906101000a900460ff1660038111156104985761049761283a565b5b145b156104af576001836104ac9190612e02565b92505b80806104ba90612e58565b9150506103f6565b5060008267ffffffffffffffff8111156104df576104de612ea1565b5b60405190808252806020026020018201604052801561051857816020015b6105056126de565b8152602001906001900390816104fd5790505b5090506000600190505b848111610735576000600381111561053d5761053c61283a565b5b6005600083815260200190815260200160002060040160149054906101000a900460ff1660038111156105735761057261283a565b5b14806105c657506001600381111561058e5761058d61283a565b5b6005600083815260200190815260200160002060040160149054906101000a900460ff1660038111156105c4576105c361283a565b5b145b15610722576000600560008381526020019081526020016000209050806040518060c00160405290816000820154815260200160018201548152602001600282015481526020016003820160009054906101000a900473ffffffffffffffffffffffffffffffffffffffff1673ffffffffffffffffffffffffffffffffffffffff1673ffffffffffffffffffffffffffffffffffffffff1681526020016004820160009054906101000a900473ffffffffffffffffffffffffffffffffffffffff1673ffffffffffffffffffffffffffffffffffffffff1673ffffffffffffffffffffffffffffffffffffffff1681526020016004820160149054906101000a900460ff1660038111156106dd576106dc61283a565b5b60038111156106ef576106ee61283a565b5b8152505083858151811061070657610705612ed0565b5b602002602001018190525060018461071e9190612e02565b9350505b808061072d90612e58565b915050610522565b508094505050505090565b6000600454905090565b6060600061075860016125f4565b90506000806000600190505b8381116107f8573373ffffffffffffffffffffffffffffffffffffffff166005600083815260200190815260200160002060040160009054906101000a900473ffffffffffffffffffffffffffffffffffffffff1673ffffffffffffffffffffffffffffffffffffffff1614156107e5576001826107e29190612e02565b91505b80806107f090612e58565b915050610764565b5060008167ffffffffffffffff81111561081557610814612ea1565b5b60405190808252806020026020018201604052801561084e57816020015b61083b6126de565b8152602001906001900390816108335790505b5090506000600190505b848111610a33573373ffffffffffffffffffffffffffffffffffffffff166005600083815260200190815260200160002060040160009054906101000a900473ffffffffffffffffffffffffffffffffffffffff1673ffffffffffffffffffffffffffffffffffffffff161415610a20576000600560008381526020019081526020016000209050806040518060c00160405290816000820154815260200160018201548152602001600282015481526020016003820160009054906101000a900473ffffffffffffffffffffffffffffffffffffffff1673ffffffffffffffffffffffffffffffffffffffff1673ffffffffffffffffffffffffffffffffffffffff1681526020016004820160009054906101000a900473ffffffffffffffffffffffffffffffffffffffff1673ffffffffffffffffffffffffffffffffffffffff1673ffffffffffffffffffffffffffffffffffffffff1681526020016004820160149054906101000a900460ff1660038111156109db576109da61283a565b5b60038111156109ed576109ec61283a565b5b81525050838681518110610a0457610a03612ed0565b5b6020026020010181905250600185610a1c9190612e02565b9450505b8080610a2b90612e58565b915050610858565b508094505050505090565b60026000541415610a84576040517f08c379a0000000000000000000000000000000000000000000000000000000008152600401610a7b90612f5c565b60405180910390fd5b600260008190555060006005600084815260200190815260200160002060020154905060006005600085815260200190815260200160002060010154905060006003811115610ad657610ad561283a565b5b6005600086815260200190815260200160002060040160149054906101000a900460ff166003811115610b0c57610b0b61283a565b5b14610b4c576040517f08c379a0000000000000000000000000000000000000000000000000000000008152600401610b4390612fee565b60405180910390fd5b670de0b6b3a764000034610b60919061303d565b8214610ba1576040517f08c379a0000000000000000000000000000000000000000000000000000000008152600401610b9890612fee565b60405180910390fd5b6005600085815260200190815260200160002060030160009054906101000a900473ffffffffffffffffffffffffffffffffffffffff1673ffffffffffffffffffffffffffffffffffffffff166108fc349081150290604051600060405180830381858888f19350505050158015610c1d573d6000803e3d6000fd5b508273ffffffffffffffffffffffffffffffffffffffff166323b872dd3033846040518463ffffffff1660e01b8152600401610c5b9392919061306e565b600060405180830381600087803b158015610c7557600080fd5b505af1158015610c89573d6000803e3d6000fd5b50505050336005600086815260200190815260200160002060040160006101000a81548173ffffffffffffffffffffffffffffffffffffffff021916908373ffffffffffffffffffffffffffffffffffffffff16021790555060026005600086815260200190815260200160002060040160146101000a81548160ff02191690836003811115610d1c57610d1b61283a565b5b0217905550610d2b6002612602565b600360009054906101000a900473ffffffffffffffffffffffffffffffffffffffff1673ffffffffffffffffffffffffffffffffffffffff166108fc6004549081150290604051600060405180830381858888f19350505050158015610d95573d6000803e3d6000fd5b50505060016000819055505050565b603c81565b60066020528060005260406000206000915090508060000154908060010154908060020154908060030154908060040160009054906101000a900473ffffffffffffffffffffffffffffffffffffffff16908060050160009054906101000a900473ffffffffffffffffffffffffffffffffffffffff16905086565b610e2d612752565b600660008381526020019081526020016000206040518060c0016040529081600082015481526020016001820154815260200160028201548152602001600382015481526020016004820160009054906101000a900473ffffffffffffffffffffffffffffffffffffffff1673ffffffffffffffffffffffffffffffffffffffff1673ffffffffffffffffffffffffffffffffffffffff1681526020016005820160009054906101000a900473ffffffffffffffffffffffffffffffffffffffff1673ffffffffffffffffffffffffffffffffffffffff1673ffffffffffffffffffffffffffffffffffffffff16815250509050919050565b60026000541415610f6c576040517f08c379a0000000000000000000000000000000000000000000000000000000008152600401610f6390612f5c565b60405180910390fd5b600260008190555080610f7e81612618565b15610fbe576040517f08c379a0000000000000000000000000000000000000000000000000000000008152600401610fb5906130f1565b60405180910390fd5b600360009054906101000a900473ffffffffffffffffffffffffffffffffffffffff1673ffffffffffffffffffffffffffffffffffffffff163373ffffffffffffffffffffffffffffffffffffffff161461104e576040517f08c379a00000000000000000000000000000000000000000000000000000000081526004016110459061315d565b60405180910390fd5b60006006600084815260200190815260200160002060020154146110a7576040517f08c379a000000000000000000000000000000000000000000000000000000000815260040161109e906131c9565b60405180910390fd5b600660008381526020019081526020016000206000808201600090556001820160009055600282016000905560038201600090556004820160006101000a81549073ffffffffffffffffffffffffffffffffffffffff02191690556005820160006101000a81549073ffffffffffffffffffffffffffffffffffffffff02191690555050817f28601d865dccc9f113e15a7185c1b38c085d598c71250d3337916a428536d77160405160405180910390a250600160008190555050565b6003808111156111775761117661283a565b5b6005600084815260200190815260200160002060040160149054906101000a900460ff1660038111156111ad576111ac61283a565b5b146111b757600080fd5b60006005600084815260200190815260200160002060040160146101000a81548160ff021916908360038111156111f1576111f061283a565b5b02179055508060056000848152602001908152602001600020600201819055505050565b60006112566006600084815260200190815260200160002060010154600660008581526020019081526020016000206002015461268690919063ffffffff16565b9050919050565b600260005414156112a3576040517f08c379a000000000000000000000000000000000000000000000000000000000815260040161129a90612f5c565b60405180910390fd5b6002600081905550816112b581612618565b156112f5576040517f08c379a00000000000000000000000000000000000000000000000000000000081526004016112ec906130f1565b60405180910390fd5b82600060066000838152602001908152602001600020600201541480611322575061131f81611215565b42105b611361576040517f08c379a000000000000000000000000000000000000000000000000000000000815260040161135890613235565b60405180910390fd5b600360009054906101000a900473ffffffffffffffffffffffffffffffffffffffff1673ffffffffffffffffffffffffffffffffffffffff163373ffffffffffffffffffffffffffffffffffffffff1614156113f2576040517f08c379a00000000000000000000000000000000000000000000000000000000081526004016113e9906132a1565b60405180910390fd5b670de0b6b3a764000034611406919061303d565b8314611447576040517f08c379a000000000000000000000000000000000000000000000000000000000815260040161143e9061330d565b60405180910390fd5b6000831161148a576040517f08c379a000000000000000000000000000000000000000000000000000000000815260040161148190613379565b60405180910390fd5b60006006600086815260200190815260200160002060000154141561152257426006600086815260200190815260200160002060020181905550600660008581526020019081526020016000206003015483101561151d576040517f08c379a0000000000000000000000000000000000000000000000000000000008152600401611514906133e5565b60405180910390fd5b611660565b61158a6115656064611557600a60ff16600660008a81526020019081526020016000206000015461269c90919063ffffffff16565b6126b290919063ffffffff16565b600660008781526020019081526020016000206000015461268690919063ffffffff16565b8310156115cc576040517f08c379a00000000000000000000000000000000000000000000000000000000081526004016115c390613477565b60405180910390fd5b6006600085815260200190815260200160002060040160009054906101000a900473ffffffffffffffffffffffffffffffffffffffff1673ffffffffffffffffffffffffffffffffffffffff166108fc60066000878152602001908152602001600020600001549081150290604051600060405180830381858888f1935050505015801561165e573d6000803e3d6000fd5b505b826006600086815260200190815260200160002060000181905550336006600086815260200190815260200160002060040160006101000a81548173ffffffffffffffffffffffffffffffffffffffff021916908373ffffffffffffffffffffffffffffffffffffffff1602179055506116e8603c61ffff164261268690919063ffffffff16565b6116f185611215565b10156117565761172961170385611215565b61171b603c61ffff164261268690919063ffffffff16565b6126c890919063ffffffff16565b60066000868152602001908152602001600020600101600082825461174e9190612e02565b925050819055505b837fb8d756f2d1da4663767eb4d559780ace84f2f65a421a60ddcb47e8b2e5d2fd263385604051611788929190613497565b60405180910390a2505060016000819055505050565b600a81565b600260005414156117e9576040517f08c379a00000000000000000000000000000000000000000000000000000000081526004016117e090612f5c565b60405180910390fd5b60026000819055508160006006600083815260200190815260200160002060020154118015611820575061181c81611215565b4210155b61185f576040517f08c379a00000000000000000000000000000000000000000000000000000000081526004016118569061350c565b60405180910390fd5b6000600660008581526020019081526020016000206000015414156118b9576040517f08c379a00000000000000000000000000000000000000000000000000000000081526004016118b090613578565b60405180910390fd5b6006600084815260200190815260200160002060040160009054906101000a900473ffffffffffffffffffffffffffffffffffffffff1673ffffffffffffffffffffffffffffffffffffffff163373ffffffffffffffffffffffffffffffffffffffff1614806119765750600360009054906101000a900473ffffffffffffffffffffffffffffffffffffffff1673ffffffffffffffffffffffffffffffffffffffff163373ffffffffffffffffffffffffffffffffffffffff16145b6119b5576040517f08c379a00000000000000000000000000000000000000000000000000000000081526004016119ac9061360a565b60405180910390fd5b60006006600085815260200190815260200160002060040160009054906101000a900473ffffffffffffffffffffffffffffffffffffffff169050600060066000868152602001908152602001600020600001549050600660008681526020019081526020016000206000808201600090556001820160009055600282016000905560038201600090556004820160006101000a81549073ffffffffffffffffffffffffffffffffffffffff02191690556005820160006101000a81549073ffffffffffffffffffffffffffffffffffffffff021916905550506000600560008781526020019081526020016000206001015490508473ffffffffffffffffffffffffffffffffffffffff166323b872dd3085846040518463ffffffff1660e01b8152600401611ae79392919061306e565b600060405180830381600087803b158015611b0157600080fd5b505af1158015611b15573d6000803e3d6000fd5b50505050826005600088815260200190815260200160002060040160006101000a81548173ffffffffffffffffffffffffffffffffffffffff021916908373ffffffffffffffffffffffffffffffffffffffff16021790555060026005600088815260200190815260200160002060040160146101000a81548160ff02191690836003811115611ba857611ba761283a565b5b0217905550816005600088815260200190815260200160002060020181905550611bd26002612602565b857fd2aa34a4fdbbc6dff6a3e56f46e0f3ae2a31d7785ff3487aa5c95c642acea5018484604051611c04929190613497565b60405180910390a25050505060016000819055505050565b60026000541415611c62576040517f08c379a0000000000000000000000000000000000000000000000000000000008152600401611c5990612f5c565b60405180910390fd5b600260008190555082611c7481612618565b611cb3576040517f08c379a0000000000000000000000000000000000000000000000000000000008152600401611caa90613676565b60405180910390fd5b600380811115611cc657611cc561283a565b5b6005600086815260200190815260200160002060040160149054906101000a900460ff166003811115611cfc57611cfb61283a565b5b14611d0657600080fd5b60016005600086815260200190815260200160002060040160146101000a81548160ff02191690836003811115611d4057611d3f61283a565b5b02179055506040518060c001604052806000815260200184815260200160008152602001838152602001600073ffffffffffffffffffffffffffffffffffffffff168152602001600360009054906101000a900473ffffffffffffffffffffffffffffffffffffffff1673ffffffffffffffffffffffffffffffffffffffff16815250600660008681526020019081526020016000206000820151816000015560208201518160010155604082015181600201556060820151816003015560808201518160040160006101000a81548173ffffffffffffffffffffffffffffffffffffffff021916908373ffffffffffffffffffffffffffffffffffffffff16021790555060a08201518160050160006101000a81548173ffffffffffffffffffffffffffffffffffffffff021916908373ffffffffffffffffffffffffffffffffffffffff160217905550905050600060056000868152602001908152602001600020600101549050807fd6eddd1118d71820909c1197aa966dbc15ed6f508554252169cc3d5ccac756ca8585604051611edc929190613696565b60405180910390a250506001600081905550505050565b611efb6126de565b600560008381526020019081526020016000206040518060c00160405290816000820154815260200160018201548152602001600282015481526020016003820160009054906101000a900473ffffffffffffffffffffffffffffffffffffffff1673ffffffffffffffffffffffffffffffffffffffff1673ffffffffffffffffffffffffffffffffffffffff1681526020016004820160009054906101000a900473ffffffffffffffffffffffffffffffffffffffff1673ffffffffffffffffffffffffffffffffffffffff1673ffffffffffffffffffffffffffffffffffffffff1681526020016004820160149054906101000a900460ff1660038111156120085761200761283a565b5b600381111561201a5761201961283a565b5b815250509050919050565b6002600054141561206b576040517f08c379a000000000000000000000000000000000000000000000000000000000815260040161206290612f5c565b60405180910390fd5b600260008190555060045434146120b7576040517f08c379a00000000000000000000000000000000000000000000000000000000081526004016120ae90613731565b60405180910390fd5b6120c16001612602565b60006120cd60016125f4565b90506040518060c00160405280828152602001838152602001600081526020013373ffffffffffffffffffffffffffffffffffffffff168152602001600073ffffffffffffffffffffffffffffffffffffffff1681526020016003808111156121395761213861283a565b5b8152506005600083815260200190815260200160002060008201518160000155602082015181600101556040820151816002015560608201518160030160006101000a81548173ffffffffffffffffffffffffffffffffffffffff021916908373ffffffffffffffffffffffffffffffffffffffff16021790555060808201518160040160006101000a81548173ffffffffffffffffffffffffffffffffffffffff021916908373ffffffffffffffffffffffffffffffffffffffff16021790555060a08201518160040160146101000a81548160ff021916908360038111156122265761222561283a565b5b02179055509050508273ffffffffffffffffffffffffffffffffffffffff166323b872dd3330856040518463ffffffff1660e01b815260040161226b9392919061306e565b600060405180830381600087803b15801561228557600080fd5b505af1158015612299573d6000803e3d6000fd5b505050508273ffffffffffffffffffffffffffffffffffffffff1682827fdcc19fe685c524be06bc4bb1c9b73b190237320e24f4abf3e68e5da391035b6433600060036040516122eb93929190613760565b60405180910390a45060016000819055505050565b6060600061230e60016125f4565b90506000806000600190505b8381116123ae573373ffffffffffffffffffffffffffffffffffffffff166005600083815260200190815260200160002060030160009054906101000a900473ffffffffffffffffffffffffffffffffffffffff1673ffffffffffffffffffffffffffffffffffffffff16141561239b576001826123989190612e02565b91505b80806123a690612e58565b91505061231a565b5060008167ffffffffffffffff8111156123cb576123ca612ea1565b5b60405190808252806020026020018201604052801561240457816020015b6123f16126de565b8152602001906001900390816123e95790505b5090506000600190505b8481116125e9573373ffffffffffffffffffffffffffffffffffffffff166005600083815260200190815260200160002060030160009054906101000a900473ffffffffffffffffffffffffffffffffffffffff1673ffffffffffffffffffffffffffffffffffffffff1614156125d6576000600560008381526020019081526020016000209050806040518060c00160405290816000820154815260200160018201548152602001600282015481526020016003820160009054906101000a900473ffffffffffffffffffffffffffffffffffffffff1673ffffffffffffffffffffffffffffffffffffffff1673ffffffffffffffffffffffffffffffffffffffff1681526020016004820160009054906101000a900473ffffffffffffffffffffffffffffffffffffffff1673ffffffffffffffffffffffffffffffffffffffff1673ffffffffffffffffffffffffffffffffffffffff1681526020016004820160149054906101000a900460ff1660038111156125915761259061283a565b5b60038111156125a3576125a261283a565b5b815250508386815181106125ba576125b9612ed0565b5b60200260200101819052506001856125d29190612e02565b9450505b80806125e190612e58565b91505061240e565b508094505050505090565b600081600001549050919050565b6001816000016000828254019250508190555050565b60008073ffffffffffffffffffffffffffffffffffffffff166006600084815260200190815260200160002060050160009054906101000a900473ffffffffffffffffffffffffffffffffffffffff1673ffffffffffffffffffffffffffffffffffffffff16149050919050565b600081836126949190612e02565b905092915050565b600081836126aa9190613797565b905092915050565b600081836126c0919061303d565b905092915050565b600081836126d691906137f1565b905092915050565b6040518060c00160405280600081526020016000815260200160008152602001600073ffffffffffffffffffffffffffffffffffffffff168152602001600073ffffffffffffffffffffffffffffffffffffffff1681526020016000600381111561274c5761274b61283a565b5b81525090565b6040518060c0016040528060008152602001600081526020016000815260200160008152602001600073ffffffffffffffffffffffffffffffffffffffff168152602001600073ffffffffffffffffffffffffffffffffffffffff1681525090565b600081519050919050565b600082825260208201905092915050565b6000819050602082019050919050565b6000819050919050565b6127f3816127e0565b82525050565b600073ffffffffffffffffffffffffffffffffffffffff82169050919050565b6000612824826127f9565b9050919050565b61283481612819565b82525050565b7f4e487b7100000000000000000000000000000000000000000000000000000000600052602160045260246000fd5b6004811061287a5761287961283a565b5b50565b600081905061288b82612869565b919050565b600061289b8261287d565b9050919050565b6128ab81612890565b82525050565b60c0820160008201516128c760008501826127ea565b5060208201516128da60208501826127ea565b5060408201516128ed60408501826127ea565b506060820151612900606085018261282b565b506080820151612913608085018261282b565b5060a082015161292660a08501826128a2565b50505050565b600061293883836128b1565b60c08301905092915050565b6000602082019050919050565b600061295c826127b4565b61296681856127bf565b9350612971836127d0565b8060005b838110156129a2578151612989888261292c565b975061299483612944565b925050600181019050612975565b5085935050505092915050565b600060208201905081810360008301526129c98184612951565b905092915050565b6129da816127e0565b82525050565b60006020820190506129f560008301846129d1565b92915050565b600080fd5b612a09816127e0565b8114612a1457600080fd5b50565b600081359050612a2681612a00565b92915050565b6000612a37826127f9565b9050919050565b612a4781612a2c565b8114612a5257600080fd5b50565b600081359050612a6481612a3e565b92915050565b60008060408385031215612a8157612a806129fb565b5b6000612a8f85828601612a17565b9250506020612aa085828601612a55565b9150509250929050565b600061ffff82169050919050565b612ac181612aaa565b82525050565b6000602082019050612adc6000830184612ab8565b92915050565b600060208284031215612af857612af76129fb565b5b6000612b0684828501612a17565b91505092915050565b612b1881612819565b82525050565b612b2781612a2c565b82525050565b600060c082019050612b4260008301896129d1565b612b4f60208301886129d1565b612b5c60408301876129d1565b612b6960608301866129d1565b612b766080830185612b0f565b612b8360a0830184612b1e565b979650505050505050565b612b9781612a2c565b82525050565b60c082016000820151612bb360008501826127ea565b506020820151612bc660208501826127ea565b506040820151612bd960408501826127ea565b506060820151612bec60608501826127ea565b506080820151612bff608085018261282b565b5060a0820151612c1260a0850182612b8e565b50505050565b600060c082019050612c2d6000830184612b9d565b92915050565b60008060408385031215612c4a57612c496129fb565b5b6000612c5885828601612a17565b9250506020612c6985828601612a17565b9150509250929050565b600060ff82169050919050565b612c8981612c73565b82525050565b6000602082019050612ca46000830184612c80565b92915050565b600080600060608486031215612cc357612cc26129fb565b5b6000612cd186828701612a17565b9350506020612ce286828701612a17565b9250506040612cf386828701612a17565b9150509250925092565b60c082016000820151612d1360008501826127ea565b506020820151612d2660208501826127ea565b506040820151612d3960408501826127ea565b506060820151612d4c606085018261282b565b506080820151612d5f608085018261282b565b5060a0820151612d7260a08501826128a2565b50505050565b600060c082019050612d8d6000830184612cfd565b92915050565b60008060408385031215612daa57612da96129fb565b5b6000612db885828601612a55565b9250506020612dc985828601612a17565b9150509250929050565b7f4e487b7100000000000000000000000000000000000000000000000000000000600052601160045260246000fd5b6000612e0d826127e0565b9150612e18836127e0565b9250827fffffffffffffffffffffffffffffffffffffffffffffffffffffffffffffffff03821115612e4d57612e4c612dd3565b5b828201905092915050565b6000612e63826127e0565b91507fffffffffffffffffffffffffffffffffffffffffffffffffffffffffffffffff821415612e9657612e95612dd3565b5b600182019050919050565b7f4e487b7100000000000000000000000000000000000000000000000000000000600052604160045260246000fd5b7f4e487b7100000000000000000000000000000000000000000000000000000000600052603260045260246000fd5b600082825260208201905092915050565b7f5265656e7472616e637947756172643a207265656e7472616e742063616c6c00600082015250565b6000612f46601f83612eff565b9150612f5182612f10565b602082019050919050565b60006020820190508181036000830152612f7581612f39565b9050919050565b7f506c65617365207375626d6974207468652061736b696e67207072696365206960008201527f6e206f7264657220746f20636f6d706c65746520746865207075726368617365602082015250565b6000612fd8604083612eff565b9150612fe382612f7c565b604082019050919050565b6000602082019050818103600083015261300781612fcb565b9050919050565b7f4e487b7100000000000000000000000000000000000000000000000000000000600052601260045260246000fd5b6000613048826127e0565b9150613053836127e0565b9250826130635761306261300e565b5b828204905092915050565b60006060820190506130836000830186612b1e565b6130906020830185612b1e565b61309d60408301846129d1565b949350505050565b7f41756374696f6e20646f65736e27742065786973740000000000000000000000600082015250565b60006130db601583612eff565b91506130e6826130a5565b602082019050919050565b6000602082019050818103600083015261310a816130ce565b9050919050565b7f596f75277265206e6f7420746865206f776e6572000000000000000000000000600082015250565b6000613147601483612eff565b915061315282613111565b602082019050919050565b600060208201905081810360008301526131768161313a565b9050919050565b7f41756374696f6e20616c72656164792073746172746564000000000000000000600082015250565b60006131b3601783612eff565b91506131be8261317d565b602082019050919050565b600060208201905081810360008301526131e2816131a6565b9050919050565b7f41756374696f6e20657870697265640000000000000000000000000000000000600082015250565b600061321f600f83612eff565b915061322a826131e9565b602082019050919050565b6000602082019050818103600083015261324e81613212565b9050919050565b7f546865206f776e65722063616e27742063726561746520612062696400000000600082015250565b600061328b601c83612eff565b915061329682613255565b602082019050919050565b600060208201905081810360008301526132ba8161327e565b9050919050565b7f416d6f756e7420646f65736e277420657175616c206d73672e76616c75650000600082015250565b60006132f7601e83612eff565b9150613302826132c1565b602082019050919050565b60006020820190508181036000830152613326816132ea565b9050919050565b7f416d6f756e74206d7573742062652067726561746572207468616e2030000000600082015250565b6000613363601d83612eff565b915061336e8261332d565b602082019050919050565b6000602082019050818103600083015261339281613356565b9050919050565b7f4d7573742062696420726573657276655072696365206f72206d6f7265000000600082015250565b60006133cf601d83612eff565b91506133da82613399565b602082019050919050565b600060208201905081810360008301526133fe816133c2565b9050919050565b7f4d75737420626964206d6f7265207468616e206c61737420626964206279204d60008201527f494e5f4249445f494e4352454d454e545f50455243454e5420616d6f756e7400602082015250565b6000613461603f83612eff565b915061346c82613405565b604082019050919050565b6000602082019050818103600083015261349081613454565b9050919050565b60006040820190506134ac6000830185612b1e565b6134b960208301846129d1565b9392505050565b7f41756374696f6e206861736e277420636f6d706c657465640000000000000000600082015250565b60006134f6601883612eff565b9150613501826134c0565b602082019050919050565b60006020820190508181036000830152613525816134e9565b9050919050565b7f54686973206974656d206973206e6f74206f6e2061756374696f6e0000000000600082015250565b6000613562601b83612eff565b915061356d8261352c565b602082019050919050565b6000602082019050818103600083015261359181613555565b9050919050565b7f4f6e6c7920626964646572206f72206f776e65722063616e20656e642061756360008201527f74696f6e00000000000000000000000000000000000000000000000000000000602082015250565b60006135f4602483612eff565b91506135ff82613598565b604082019050919050565b60006020820190508181036000830152613623816135e7565b9050919050565b7f41756374696f6e20616c72656164792065786973747300000000000000000000600082015250565b6000613660601683612eff565b915061366b8261362a565b602082019050919050565b6000602082019050818103600083015261368f81613653565b9050919050565b60006040820190506136ab60008301856129d1565b6136b860208301846129d1565b9392505050565b7f5072696365206d75737420626520657175616c20746f206c697374696e67207060008201527f7269636500000000000000000000000000000000000000000000000000000000602082015250565b600061371b602483612eff565b9150613726826136bf565b604082019050919050565b6000602082019050818103600083015261374a8161370e565b9050919050565b61375a81612890565b82525050565b60006060820190506137756000830186612b0f565b6137826020830185612b0f565b61378f6040830184613751565b949350505050565b60006137a2826127e0565b91506137ad836127e0565b9250817fffffffffffffffffffffffffffffffffffffffffffffffffffffffffffffffff04831182151516156137e6576137e5612dd3565b5b828202905092915050565b60006137fc826127e0565b9150613807836127e0565b92508282101561381a57613819612dd3565b5b82820390509291505056fea26469706673582212202a6ead4eef88ef4d6c9df8bd258eadded3a72fe30d2074b868751cbe559a799164736f6c634300080a0033",
  "immutableReferences": {},
  "source": "// SPDX-License-Identifier: MIT\r\npragma solidity ^0.8.3;\r\n\r\nimport \"@openzeppelin/contracts/utils/Counters.sol\";\r\nimport \"@openzeppelin/contracts/utils/math/SafeMath.sol\";\r\nimport \"@openzeppelin/contracts/security/ReentrancyGuard.sol\";\r\nimport \"@openzeppelin/contracts/token/ERC721/ERC721.sol\";\r\n\r\ncontract Market is ReentrancyGuard {\r\n    using Counters for Counters.Counter;\r\n    Counters.Counter private _itemIds;\r\n    Counters.Counter private _itemsSold;\r\n\r\n    address payable owner;\r\n    /* service fee */\r\n    uint256 listingPrice = 0.025 ether;\r\n\r\n    constructor() {\r\n        owner = payable(msg.sender);\r\n    }\r\n\r\n    /* \r\n        BuyNow: The item can be sold in a fixed price\r\n        OnAuction: The item can be sold in auction\r\n        Sold: The item has been sold\r\n        New: Unsold\r\n     */\r\n\r\n    enum Status {\r\n        BuyNow,\r\n        OnAuction,\r\n        Sold,\r\n        New\r\n    }\r\n\r\n    struct MarketItem {\r\n        uint256 itemId;\r\n        uint256 tokenId;\r\n        uint256 price;\r\n        address payable seller;\r\n        address payable owner;\r\n        Status status;\r\n    }\r\n\r\n    /* map the itemId to the Item */\r\n    mapping(uint256 => MarketItem) private idToMktItem;\r\n\r\n    /* Returns the detail of Item */\r\n    function fetchMarketItemDetail(uint256 _itemId) public view returns(MarketItem memory){\r\n        return idToMktItem[_itemId];\r\n    }\r\n\r\n    /* Returns the listing price of the contract */\r\n    function getListingPrice() public view returns (uint256) {\r\n        return listingPrice;\r\n    }\r\n\r\n    /* Places an nft to the market */\r\n    event MarketItemCreated(\r\n        uint256 indexed itemId,\r\n        uint256 indexed tokenId,\r\n        address indexed nftContract,\r\n        address payable seller,\r\n        address payable owner,\r\n        Status status\r\n    );\r\n\r\n    function createMarketItem(address nftContract, uint256 tokenId)\r\n        public\r\n        payable\r\n        nonReentrant\r\n    {\r\n        require(\r\n            msg.value == listingPrice,\r\n            \"Price must be equal to listing price\"\r\n        );\r\n        _itemIds.increment();\r\n        uint256 itemId = _itemIds.current();\r\n\r\n        idToMktItem[itemId] = MarketItem(\r\n            itemId,\r\n            tokenId,\r\n            0,\r\n            payable(msg.sender),\r\n            payable(address(0)),\r\n            Status.New\r\n        );\r\n\r\n        /* Transfers the nft from the creator to the contract */\r\n        IERC721(nftContract).transferFrom(msg.sender, address(this), tokenId);\r\n        emit MarketItemCreated(\r\n            itemId,\r\n            tokenId,\r\n            nftContract,\r\n            payable(msg.sender),\r\n            payable(address(0)),\r\n            Status.New\r\n        );\r\n    }\r\n\r\n    /* Sets fixed price to sell */\r\n    function setFixedPrice(uint256 _itemId, uint256 _price) public {\r\n        require(idToMktItem[_itemId].status == Status.New);\r\n        idToMktItem[_itemId].status = Status.BuyNow;\r\n        idToMktItem[_itemId].price = _price;\r\n    }\r\n\r\n    /* Creates Auction */\r\n    function createAuction(\r\n        uint256 itemId,\r\n        uint256 duration,\r\n        uint256 reservePrice\r\n    ) public payable nonReentrant auctionNonExistant(itemId) {\r\n        require(idToMktItem[itemId].status == Status.New);\r\n        idToMktItem[itemId].status = Status.OnAuction;\r\n        // Initialize the auction details, including null values.\r\n        auctions[itemId] = Auction({\r\n            duration: duration,\r\n            reservePrice: reservePrice,\r\n            curator: owner,\r\n            amount: 0,\r\n            firstBidTime: 0,\r\n            bidder: payable(address(0))\r\n        });\r\n        uint256 tokenId = idToMktItem[itemId].tokenId;\r\n        // Emit an event describing the new auction.\r\n        emit AuctionCreated(tokenId, duration, reservePrice);\r\n    }\r\n\r\n    /* Creates the sale of a market item */\r\n    /* Transfers ownership of the item, as well as funds between parties */\r\n    function createMarketSale(uint256 itemId, address contractAdd)\r\n        public\r\n        payable\r\n        nonReentrant\r\n    {\r\n        uint256 price = idToMktItem[itemId].price;\r\n        uint256 tokenId = idToMktItem[itemId].tokenId;\r\n        require(\r\n            idToMktItem[itemId].status == Status.BuyNow,\r\n            \"Please submit the asking price in order to complete the purchase\"\r\n        );\r\n        require(\r\n            price == msg.value / (1 ether),\r\n            \"Please submit the asking price in order to complete the purchase\"\r\n        );\r\n\r\n        idToMktItem[itemId].seller.transfer(msg.value);\r\n        IERC721(contractAdd).transferFrom(address(this), msg.sender, tokenId);\r\n        idToMktItem[itemId].owner = payable(msg.sender);\r\n        idToMktItem[itemId].status = Status.Sold;\r\n        _itemsSold.increment();\r\n        payable(owner).transfer(listingPrice);\r\n    }\r\n\r\n    /* Returns all unsold market items */\r\n    function fetchMarketItems() public view returns (MarketItem[] memory) {\r\n        uint256 totalItems = _itemIds.current();\r\n        uint256 unsoldItemsCount = 0;\r\n        uint256 currenIndex = 0;\r\n\r\n        for (uint256 i = 1; i <= totalItems; i++) {\r\n            if (idToMktItem[i].status == Status.BuyNow ||\r\n                idToMktItem[i].status == Status.OnAuction) {\r\n                unsoldItemsCount += 1;\r\n            }\r\n        }\r\n\r\n        MarketItem[] memory items = new MarketItem[](unsoldItemsCount);\r\n        for (uint256 i = 1; i <= totalItems; i++) {\r\n            if (\r\n                idToMktItem[i].status == Status.BuyNow ||\r\n                idToMktItem[i].status == Status.OnAuction\r\n            ) {\r\n                MarketItem storage currentItem = idToMktItem[i];\r\n                items[currenIndex] = currentItem;\r\n                currenIndex = currenIndex + 1;\r\n            }\r\n        }\r\n        return items;\r\n    }\r\n\r\n    /* Returns items purchased */\r\n    function fetchMyNFTs() public view returns (MarketItem[] memory) {\r\n        uint256 totalItems = _itemIds.current();\r\n        uint256 currenIndex = 0;\r\n        uint256 myItemsCount = 0;\r\n\r\n        for (uint256 i = 1; i <= totalItems; i++) {\r\n            if (idToMktItem[i].owner == msg.sender) {\r\n                myItemsCount += 1;\r\n            }\r\n        }\r\n\r\n        MarketItem[] memory items = new MarketItem[](myItemsCount);\r\n        for (uint256 i = 1; i <= totalItems; i++) {\r\n            if (idToMktItem[i].owner == msg.sender) {\r\n                MarketItem storage currentItem = idToMktItem[i];\r\n                items[currenIndex] = currentItem;\r\n                currenIndex = currenIndex + 1;\r\n            }\r\n        }\r\n        return items;\r\n    }\r\n\r\n    /* Returns only items a user has created */\r\n    function fetchItemsCreated() public view returns (MarketItem[] memory) {\r\n        uint256 totalItems = _itemIds.current();\r\n        uint256 currenIndex = 0;\r\n        uint256 createdItemsCount = 0;\r\n\r\n        for (uint256 i = 1; i <= totalItems; i++) {\r\n            if (idToMktItem[i].seller == msg.sender) {\r\n                createdItemsCount += 1;\r\n            }\r\n        }\r\n\r\n        MarketItem[] memory items = new MarketItem[](createdItemsCount);\r\n        for (uint256 i = 1; i <= totalItems; i++) {\r\n            if (idToMktItem[i].seller == msg.sender) {\r\n                MarketItem storage currentItem = idToMktItem[i];\r\n                items[currenIndex] = currentItem;\r\n                currenIndex = currenIndex + 1;\r\n            }\r\n        }\r\n        return items;\r\n    }\r\n\r\n    /* Auction */\r\n\r\n    // Use OpenZeppelin's SafeMath library to prevent overflows.\r\n    using SafeMath for uint256;\r\n\r\n    // ============ Constants ============\r\n\r\n    // The minimum amount of time left in an auction after a new bid is created; 15 min.\r\n    uint16 public constant TIME_BUFFER = 60;\r\n    // The ETH needed above the current bid for a new bid to be valid; 0.001 ETH.\r\n    uint8 public constant MIN_BID_INCREMENT_PERCENT = 10;\r\n    // Interface constant for ERC721, to check values in constructor.\r\n    bytes4 private constant ERC721_INTERFACE_ID = 0x80ac58cd;\r\n\r\n    // A mapping of all of the auctions currently running.\r\n    mapping(uint256 => Auction) public auctions;\r\n\r\n    // ============ Structs ============\r\n\r\n    struct Auction {\r\n        // The value of the current highest bid.\r\n        uint256 amount;\r\n        // The amount of time that the auction should run for,\r\n        // after the first bid was made.\r\n        uint256 duration;\r\n        // The time of the first bid.\r\n        uint256 firstBidTime;\r\n        // The minimum price of the first bid.\r\n        uint256 reservePrice;\r\n        // The address of the current highest bid.\r\n        address payable bidder;\r\n        // The address of the auction's curator. The curator\r\n        // can cancel the auction if it hasn't had a bid yet.\r\n        address curator;\r\n    }\r\n\r\n    // ============ Events ============\r\n\r\n    // All of the details of a new auction,\r\n    // with an index created for the tokenId.\r\n    event AuctionCreated(\r\n        uint256 indexed tokenId,\r\n        uint256 duration,\r\n        uint256 reservePrice\r\n    );\r\n\r\n    // All of the details of a new bid,\r\n    // with an index created for the tokenId.\r\n    event AuctionBid(uint256 indexed tokenId, address sender, uint256 value);\r\n\r\n    // All of the details of an auction's cancelation,\r\n    // with an index created for the tokenId.\r\n    event AuctionCanceled(uint256 indexed tokenId);\r\n\r\n    // All of the details of an auction's close,\r\n    // with an index created for the tokenId.\r\n    event AuctionEnded(uint256 indexed tokenId, address winner, uint256 amount);\r\n\r\n    // ============ Modifiers ============\r\n\r\n    // Reverts if the auction does not exist.\r\n    modifier auctionExists(uint256 itemId) {\r\n        // The auction exists if the curator is not null.\r\n        require(!auctionCuratorIsNull(itemId), \"Auction doesn't exist\");\r\n        _;\r\n    }\r\n\r\n    // Reverts if the auction exists.\r\n    modifier auctionNonExistant(uint256 itemId) {\r\n        // The auction does not exist if the curator is null.\r\n        require(auctionCuratorIsNull(itemId), \"Auction already exists\");\r\n        _;\r\n    }\r\n\r\n    // Reverts if the auction is expired.\r\n    modifier auctionNotExpired(uint256 itemId) {\r\n        require(\r\n            // Auction is not expired if there's never been a bid, or if the\r\n            // current time is less than the time at which the auction ends.\r\n            auctions[itemId].firstBidTime == 0 ||\r\n                block.timestamp < auctionEnds(itemId),\r\n            \"Auction expired\"\r\n        );\r\n        _;\r\n    }\r\n\r\n    // Reverts if the auction is not complete.\r\n    // Auction is complete if there was a bid, and the time has run out.\r\n    modifier auctionComplete(uint256 itemId) {\r\n        require(\r\n            // Auction is complete if there has been a bid, and the current time\r\n            // is greater than the auction's end time.\r\n            auctions[itemId].firstBidTime > 0 &&\r\n                block.timestamp >= auctionEnds(itemId),\r\n            \"Auction hasn't completed\"\r\n        );\r\n        _;\r\n    }\r\n\r\n    /* fetch the detail from auctions */\r\n    function fetchAuction(uint256 itemId) public view returns(Auction memory){\r\n        return auctions[itemId];\r\n    }\r\n\r\n    // ============ Create Bid ============\r\n    function createBid(uint256 itemId, uint256 amount)\r\n        public\r\n        payable\r\n        nonReentrant\r\n        auctionExists(itemId)\r\n        auctionNotExpired(itemId)\r\n    {\r\n        // The creator can't create bid\r\n        require(msg.sender != owner, \"The owner can't create a bid\");\r\n        // Validate that the user's expected bid value matches the ETH deposit.\r\n        require(\r\n            amount == msg.value / (1 ether),\r\n            \"Amount doesn't equal msg.value\"\r\n        );\r\n        require(amount > 0, \"Amount must be greater than 0\");\r\n        // Check if the current bid amount is 0.\r\n        if (auctions[itemId].amount == 0) {\r\n            // If so, it is the first bid.\r\n            auctions[itemId].firstBidTime = block.timestamp;\r\n            // We only need to check if the bid matches reserve bid for the first bid,\r\n            // since future checks will need to be higher than any previous bid.\r\n            require(\r\n                amount >= auctions[itemId].reservePrice,\r\n                \"Must bid reservePrice or more\"\r\n            );\r\n        } else {\r\n            // Check that the new bid is sufficiently higher than the previous bid, by\r\n            // the percentage defined as MIN_BID_INCREMENT_PERCENT.\r\n            require(\r\n                amount >=\r\n                    auctions[itemId].amount.add(\r\n                        // Add 10% of the current bid to the current bid.\r\n                        auctions[itemId]\r\n                            .amount\r\n                            .mul(MIN_BID_INCREMENT_PERCENT)\r\n                            .div(100)\r\n                    ) ,\r\n                \"Must bid more than last bid by MIN_BID_INCREMENT_PERCENT amount\"\r\n            );\r\n\r\n            // Refund the previous bidder.\r\n            auctions[itemId].bidder.transfer(auctions[itemId].amount);\r\n        }\r\n        // Update the current auction.\r\n        auctions[itemId].amount = amount;\r\n        auctions[itemId].bidder = payable(msg.sender);\r\n        // Compare the auction's end time with the current time plus the 15 minute extension,\r\n        // to see whether we're near the auctions end and should extend the auction.\r\n        if (auctionEnds(itemId) < block.timestamp.add(TIME_BUFFER)) {\r\n            // We add onto the duration whenever time increment is required, so\r\n            // that the auctionEnds at the current time plus the buffer.\r\n            auctions[itemId].duration += block.timestamp.add(TIME_BUFFER).sub(\r\n                auctionEnds(itemId)\r\n            );\r\n        }\r\n        // Emit the event that a bid has been made.\r\n        emit AuctionBid(itemId, msg.sender, amount);\r\n    }\r\n\r\n    // ============ End Auction ============\r\n    function endAuction(uint256 itemId, address nftContract)\r\n        public\r\n        payable\r\n        nonReentrant\r\n        auctionComplete(itemId)\r\n    {\r\n        require(auctions[itemId].amount != 0, \"This item is not on auction\");\r\n        require(\r\n            msg.sender == auctions[itemId].bidder || msg.sender == owner,\r\n            \"Only bidder or owner can end auction\"\r\n        );\r\n        // Store relevant auction data in memory for the life of this function.\r\n        address winner = auctions[itemId].bidder;\r\n        uint256 amount = auctions[itemId].amount;\r\n        // Remove all auction data for this token from storage.\r\n        delete auctions[itemId];\r\n        // We don't use safeTransferFrom, to prevent reverts at this point,\r\n        // which would break the auction.\r\n        uint256 tokenId = idToMktItem[itemId].tokenId;\r\n        IERC721(nftContract).transferFrom(address(this), winner, tokenId);\r\n        idToMktItem[itemId].owner = payable(winner);\r\n        idToMktItem[itemId].status = Status.Sold;\r\n        idToMktItem[itemId].price = amount;\r\n        _itemsSold.increment();\r\n        // Emit an event describing the end of the auction.\r\n        emit AuctionEnded(itemId, winner, amount);\r\n    }\r\n\r\n    // ============ Cancel Auction ============\r\n\r\n    function cancelAuction(uint256 _itemId)\r\n        public\r\n        nonReentrant\r\n        auctionExists(_itemId)\r\n    {\r\n        // Only owner can cancel auction\r\n        require(\r\n            msg.sender == owner,\r\n            \"You're not the owner\"\r\n        );\r\n        // Check that there hasn't already been a bid for this NFT.\r\n        require(\r\n            uint256(auctions[_itemId].firstBidTime) == 0,\r\n            \"Auction already started\"\r\n        );\r\n        // Remove all data about the auction.\r\n        delete auctions[_itemId];\r\n        // Emit an event describing that the auction has been canceled.\r\n        emit AuctionCanceled(_itemId);\r\n    }\r\n\r\n    // Returns true if the auction's curator is set to the null address.\r\n    function auctionCuratorIsNull(uint256 itemId) private view returns (bool) {\r\n        // The auction does not exist if the curator is the null address,\r\n        // since the NFT would not have been transferred in `createAuction`.\r\n        return auctions[itemId].curator == address(0);\r\n    }\r\n\r\n    // Returns the timestamp at which an auction will finish.\r\n    function auctionEnds(uint256 itemId) public view returns (uint256) {\r\n        // Derived by adding the auction's duration to the time of the first bid.\r\n        // NOTE: duration can be extended conditionally after each new bid is added.\r\n        return auctions[itemId].firstBidTime.add(auctions[itemId].duration);\r\n    }\r\n}\r\n",
  "sourcePath": "C:\\Users\\33\\Desktop\\almamater88\\digital_museum\\almamaster88\\src\\Web3\\contracts\\Market.sol",
  "compiler": {
    "name": "solc",
    "version": "0.8.10+commit.fc410830.Emscripten.clang"
  },
  "schemaVersion": "3.4.3",
  "updatedAt": "2022-02-15T09:51:21.169Z",
  "networkType": "ethereum",
  "devdoc": {
    "kind": "dev",
    "methods": {},
    "version": 1
  },
  "userdoc": {
    "kind": "user",
    "methods": {},
    "version": 1
  }
}