{
  "contractName": "Market",
  "abi": [
    {
      "inputs": [],
      "stateMutability": "nonpayable",
      "type": "constructor"
    },
    {
      "anonymous": false,
      "inputs": [
        {
          "indexed": true,
          "internalType": "uint256",
          "name": "tokenId",
          "type": "uint256"
        },
        {
          "indexed": true,
          "internalType": "address",
          "name": "sender",
          "type": "address"
        },
        {
          "indexed": false,
          "internalType": "uint256",
          "name": "value",
          "type": "uint256"
        }
      ],
      "name": "AuctionBid",
      "type": "event"
    },
    {
      "anonymous": false,
      "inputs": [
        {
          "indexed": true,
          "internalType": "uint256",
          "name": "tokenId",
          "type": "uint256"
        }
      ],
      "name": "AuctionCanceled",
      "type": "event"
    },
    {
      "anonymous": false,
      "inputs": [
        {
          "indexed": true,
          "internalType": "uint256",
          "name": "tokenId",
          "type": "uint256"
        },
        {
          "indexed": false,
          "internalType": "uint256",
          "name": "duration",
          "type": "uint256"
        },
        {
          "indexed": false,
          "internalType": "uint256",
          "name": "reservePrice",
          "type": "uint256"
        }
      ],
      "name": "AuctionCreated",
      "type": "event"
    },
    {
      "anonymous": false,
      "inputs": [
        {
          "indexed": true,
          "internalType": "uint256",
          "name": "tokenId",
          "type": "uint256"
        },
        {
          "indexed": true,
          "internalType": "address",
          "name": "winner",
          "type": "address"
        },
        {
          "indexed": false,
          "internalType": "uint256",
          "name": "amount",
          "type": "uint256"
        }
      ],
      "name": "AuctionEnded",
      "type": "event"
    },
    {
      "anonymous": false,
      "inputs": [
        {
          "indexed": true,
          "internalType": "uint256",
          "name": "itemId",
          "type": "uint256"
        },
        {
          "indexed": true,
          "internalType": "uint256",
          "name": "tokenId",
          "type": "uint256"
        },
        {
          "indexed": true,
          "internalType": "address",
          "name": "nftContract",
          "type": "address"
        },
        {
          "indexed": false,
          "internalType": "address payable",
          "name": "seller",
          "type": "address"
        },
        {
          "indexed": false,
          "internalType": "address payable",
          "name": "owner",
          "type": "address"
        },
        {
          "indexed": false,
          "internalType": "enum Market.Status",
          "name": "status",
          "type": "uint8"
        }
      ],
      "name": "MarketItemCreated",
      "type": "event"
    },
    {
      "anonymous": false,
      "inputs": [
        {
          "indexed": true,
          "internalType": "uint256",
          "name": "itemId",
          "type": "uint256"
        },
        {
          "indexed": true,
          "internalType": "uint256",
          "name": "tokenId",
          "type": "uint256"
        }
      ],
      "name": "MarketItemRemoved",
      "type": "event"
    },
    {
      "inputs": [],
      "name": "MIN_BID_INCREMENT_PERCENT",
      "outputs": [
        {
          "internalType": "uint8",
          "name": "",
          "type": "uint8"
        }
      ],
      "stateMutability": "view",
      "type": "function",
      "constant": true
    },
    {
      "inputs": [],
      "name": "TIME_BUFFER",
      "outputs": [
        {
          "internalType": "uint16",
          "name": "",
          "type": "uint16"
        }
      ],
      "stateMutability": "view",
      "type": "function",
      "constant": true
    },
    {
      "inputs": [
        {
          "internalType": "uint256",
          "name": "",
          "type": "uint256"
        }
      ],
      "name": "auctions",
      "outputs": [
        {
          "internalType": "uint256",
          "name": "amount",
          "type": "uint256"
        },
        {
          "internalType": "uint256",
          "name": "duration",
          "type": "uint256"
        },
        {
          "internalType": "uint256",
          "name": "firstBidTime",
          "type": "uint256"
        },
        {
          "internalType": "uint256",
          "name": "reservePrice",
          "type": "uint256"
        },
        {
          "internalType": "address payable",
          "name": "bidder",
          "type": "address"
        },
        {
          "internalType": "address",
          "name": "curator",
          "type": "address"
        }
      ],
      "stateMutability": "view",
      "type": "function",
      "constant": true
    },
    {
      "inputs": [
        {
          "internalType": "uint256",
          "name": "_itemId",
          "type": "uint256"
        }
      ],
      "name": "fetchMarketItemDetail",
      "outputs": [
        {
          "components": [
            {
              "internalType": "uint256",
              "name": "itemId",
              "type": "uint256"
            },
            {
              "internalType": "uint256",
              "name": "tokenId",
              "type": "uint256"
            },
            {
              "internalType": "uint256",
              "name": "price",
              "type": "uint256"
            },
            {
              "internalType": "address payable",
              "name": "seller",
              "type": "address"
            },
            {
              "internalType": "address payable",
              "name": "owner",
              "type": "address"
            },
            {
              "internalType": "enum Market.Status",
              "name": "status",
              "type": "uint8"
            }
          ],
          "internalType": "struct Market.MarketItem",
          "name": "",
          "type": "tuple"
        }
      ],
      "stateMutability": "view",
      "type": "function",
      "constant": true
    },
    {
      "inputs": [
        {
          "internalType": "address",
          "name": "nftContract",
          "type": "address"
        },
        {
          "internalType": "uint256",
          "name": "tokenId",
          "type": "uint256"
        }
      ],
      "name": "createMarketItem",
      "outputs": [],
      "stateMutability": "payable",
      "type": "function",
      "payable": true
    },
    {
      "inputs": [
        {
          "internalType": "uint256",
          "name": "_itemId",
          "type": "uint256"
        }
      ],
      "name": "removeItem",
      "outputs": [],
      "stateMutability": "nonpayable",
      "type": "function"
    },
    {
      "inputs": [
        {
          "internalType": "uint256",
          "name": "_itemId",
          "type": "uint256"
        },
        {
          "internalType": "uint256",
          "name": "_price",
          "type": "uint256"
        }
      ],
      "name": "setFixedPrice",
      "outputs": [],
      "stateMutability": "nonpayable",
      "type": "function"
    },
    {
      "inputs": [
        {
          "internalType": "uint256",
          "name": "itemId",
          "type": "uint256"
        },
        {
          "internalType": "uint256",
          "name": "duration",
          "type": "uint256"
        },
        {
          "internalType": "uint256",
          "name": "reservePrice",
          "type": "uint256"
        }
      ],
      "name": "createAuction",
      "outputs": [],
      "stateMutability": "payable",
      "type": "function",
      "payable": true
    },
    {
      "inputs": [
        {
          "internalType": "uint256",
          "name": "itemId",
          "type": "uint256"
        },
        {
          "internalType": "address",
          "name": "contractAdd",
          "type": "address"
        }
      ],
      "name": "createMarketSale",
      "outputs": [],
      "stateMutability": "payable",
      "type": "function",
      "payable": true
    },
    {
      "inputs": [],
      "name": "fetchMarketItems",
      "outputs": [
        {
          "components": [
            {
              "internalType": "uint256",
              "name": "itemId",
              "type": "uint256"
            },
            {
              "internalType": "uint256",
              "name": "tokenId",
              "type": "uint256"
            },
            {
              "internalType": "uint256",
              "name": "price",
              "type": "uint256"
            },
            {
              "internalType": "address payable",
              "name": "seller",
              "type": "address"
            },
            {
              "internalType": "address payable",
              "name": "owner",
              "type": "address"
            },
            {
              "internalType": "enum Market.Status",
              "name": "status",
              "type": "uint8"
            }
          ],
          "internalType": "struct Market.MarketItem[]",
          "name": "",
          "type": "tuple[]"
        }
      ],
      "stateMutability": "view",
      "type": "function",
      "constant": true
    },
    {
      "inputs": [],
      "name": "fetchMyNFTs",
      "outputs": [
        {
          "components": [
            {
              "internalType": "uint256",
              "name": "itemId",
              "type": "uint256"
            },
            {
              "internalType": "uint256",
              "name": "tokenId",
              "type": "uint256"
            },
            {
              "internalType": "uint256",
              "name": "price",
              "type": "uint256"
            },
            {
              "internalType": "address payable",
              "name": "seller",
              "type": "address"
            },
            {
              "internalType": "address payable",
              "name": "owner",
              "type": "address"
            },
            {
              "internalType": "enum Market.Status",
              "name": "status",
              "type": "uint8"
            }
          ],
          "internalType": "struct Market.MarketItem[]",
          "name": "",
          "type": "tuple[]"
        }
      ],
      "stateMutability": "view",
      "type": "function",
      "constant": true
    },
    {
      "inputs": [],
      "name": "fetchItemsCreated",
      "outputs": [
        {
          "components": [
            {
              "internalType": "uint256",
              "name": "itemId",
              "type": "uint256"
            },
            {
              "internalType": "uint256",
              "name": "tokenId",
              "type": "uint256"
            },
            {
              "internalType": "uint256",
              "name": "price",
              "type": "uint256"
            },
            {
              "internalType": "address payable",
              "name": "seller",
              "type": "address"
            },
            {
              "internalType": "address payable",
              "name": "owner",
              "type": "address"
            },
            {
              "internalType": "enum Market.Status",
              "name": "status",
              "type": "uint8"
            }
          ],
          "internalType": "struct Market.MarketItem[]",
          "name": "",
          "type": "tuple[]"
        }
      ],
      "stateMutability": "view",
      "type": "function",
      "constant": true
    },
    {
      "inputs": [
        {
          "internalType": "uint256",
          "name": "itemId",
          "type": "uint256"
        }
      ],
      "name": "fetchAuction",
      "outputs": [
        {
          "components": [
            {
              "internalType": "uint256",
              "name": "amount",
              "type": "uint256"
            },
            {
              "internalType": "uint256",
              "name": "duration",
              "type": "uint256"
            },
            {
              "internalType": "uint256",
              "name": "firstBidTime",
              "type": "uint256"
            },
            {
              "internalType": "uint256",
              "name": "reservePrice",
              "type": "uint256"
            },
            {
              "internalType": "address payable",
              "name": "bidder",
              "type": "address"
            },
            {
              "internalType": "address",
              "name": "curator",
              "type": "address"
            }
          ],
          "internalType": "struct Market.Auction",
          "name": "",
          "type": "tuple"
        }
      ],
      "stateMutability": "view",
      "type": "function",
      "constant": true
    },
    {
      "inputs": [
        {
          "internalType": "uint256",
          "name": "itemId",
          "type": "uint256"
        },
        {
          "internalType": "uint256",
          "name": "amount",
          "type": "uint256"
        }
      ],
      "name": "createBid",
      "outputs": [],
      "stateMutability": "payable",
      "type": "function",
      "payable": true
    },
    {
      "inputs": [
        {
          "internalType": "uint256",
          "name": "itemId",
          "type": "uint256"
        },
        {
          "internalType": "address",
          "name": "nftContract",
          "type": "address"
        }
      ],
      "name": "endAuction",
      "outputs": [],
      "stateMutability": "payable",
      "type": "function",
      "payable": true
    },
    {
      "inputs": [
        {
          "internalType": "uint256",
          "name": "_itemId",
          "type": "uint256"
        }
      ],
      "name": "cancelAuction",
      "outputs": [],
      "stateMutability": "nonpayable",
      "type": "function"
    },
    {
      "inputs": [
        {
          "internalType": "uint256",
          "name": "itemId",
          "type": "uint256"
        }
      ],
      "name": "auctionEnds",
      "outputs": [
        {
          "internalType": "uint256",
          "name": "",
          "type": "uint256"
        }
      ],
      "stateMutability": "view",
      "type": "function",
      "constant": true
    }
  ],
  "bytecode": "0x608060405234801561001057600080fd5b50600160008190555033600360006101000a81548173ffffffffffffffffffffffffffffffffffffffff021916908373ffffffffffffffffffffffffffffffffffffffff160217905550613f31806100696000396000f3fe6080604052600436106100fe5760003560e01c80639bd7bb6811610095578063cbf8455d11610064578063cbf8455d1461031e578063cda4beef1461033a578063ce58ee8114610356578063dd5f851814610393578063f064c32e146103af576100fe565b80639bd7bb68146102715780639fc554091461029a578063b7751c71146102d7578063bc996819146102f3576100fe565b8063571a26a0116100d1578063571a26a0146101a057806371329171146101e25780637195e1241461020b57806396b5a75514610248576100fe565b80630f08efe014610103578063202e37401461012e57806339071b39146101595780635365313114610175575b600080fd5b34801561010f57600080fd5b506101186103da565b6040516101259190613022565b60405180910390f35b34801561013a57600080fd5b50610143610814565b6040516101509190613022565b60405180910390f35b610173600480360381019061016e91906130b3565b610b08565b005b34801561018157600080fd5b5061018a610e93565b6040516101979190613110565b60405180910390f35b3480156101ac57600080fd5b506101c760048036038101906101c2919061312b565b610e98565b6040516101d996959493929190613185565b60405180910390f35b3480156101ee57600080fd5b506102096004803603810190610204919061312b565b610f14565b005b34801561021757600080fd5b50610232600480360381019061022d919061312b565b611171565b60405161023f9190613270565b60405180910390f35b34801561025457600080fd5b5061026f600480360381019061026a919061312b565b611272565b005b34801561027d57600080fd5b506102986004803603810190610293919061328b565b6114ef565b005b3480156102a657600080fd5b506102c160048036038101906102bc919061312b565b611630565b6040516102ce91906132cb565b60405180910390f35b6102f160048036038101906102ec919061328b565b611678565b005b3480156102ff57600080fd5b50610308611b59565b6040516103159190613302565b60405180910390f35b610338600480360381019061033391906130b3565b611b5e565b005b610354600480360381019061034f919061331d565b6120a7565b005b34801561036257600080fd5b5061037d6004803603810190610378919061312b565b61240e565b60405161038a91906133eb565b60405180910390f35b6103ad60048036038101906103a89190613406565b612540565b005b3480156103bb57600080fd5b506103c4612867565b6040516103d19190613022565b60405180910390f35b606060006103e86001612beb565b90506000806000600190505b83811161052b57600073ffffffffffffffffffffffffffffffffffffffff166004600083815260200190815260200160002060030160009054906101000a900473ffffffffffffffffffffffffffffffffffffffff1673ffffffffffffffffffffffffffffffffffffffff1614610518576000600381111561047957610478612ead565b5b6004600083815260200190815260200160002060040160149054906101000a900460ff1660038111156104af576104ae612ead565b5b14806105025750600160038111156104ca576104c9612ead565b5b6004600083815260200190815260200160002060040160149054906101000a900460ff166003811115610500576104ff612ead565b5b145b15610517576001836105149190613475565b92505b5b8080610523906134cb565b9150506103f4565b5060008267ffffffffffffffff81111561054857610547613514565b5b60405190808252806020026020018201604052801561058157816020015b61056e612d51565b8152602001906001900390816105665790505b5090506000600190505b84811161080957600073ffffffffffffffffffffffffffffffffffffffff166004600083815260200190815260200160002060030160009054906101000a900473ffffffffffffffffffffffffffffffffffffffff1673ffffffffffffffffffffffffffffffffffffffff16146107f657600060038111156106105761060f612ead565b5b6004600083815260200190815260200160002060040160149054906101000a900460ff16600381111561064657610645612ead565b5b148061069957506001600381111561066157610660612ead565b5b6004600083815260200190815260200160002060040160149054906101000a900460ff16600381111561069757610696612ead565b5b145b156107f5576000600460008381526020019081526020016000209050806040518060c00160405290816000820154815260200160018201548152602001600282015481526020016003820160009054906101000a900473ffffffffffffffffffffffffffffffffffffffff1673ffffffffffffffffffffffffffffffffffffffff1673ffffffffffffffffffffffffffffffffffffffff1681526020016004820160009054906101000a900473ffffffffffffffffffffffffffffffffffffffff1673ffffffffffffffffffffffffffffffffffffffff1673ffffffffffffffffffffffffffffffffffffffff1681526020016004820160149054906101000a900460ff1660038111156107b0576107af612ead565b5b60038111156107c2576107c1612ead565b5b815250508385815181106107d9576107d8613543565b5b60200260200101819052506001846107f19190613475565b9350505b5b8080610801906134cb565b91505061058b565b508094505050505090565b606060006108226001612beb565b90506000806000600190505b8381116108c2573373ffffffffffffffffffffffffffffffffffffffff166004600083815260200190815260200160002060040160009054906101000a900473ffffffffffffffffffffffffffffffffffffffff1673ffffffffffffffffffffffffffffffffffffffff1614156108af576001826108ac9190613475565b91505b80806108ba906134cb565b91505061082e565b5060008167ffffffffffffffff8111156108df576108de613514565b5b60405190808252806020026020018201604052801561091857816020015b610905612d51565b8152602001906001900390816108fd5790505b5090506000600190505b848111610afd573373ffffffffffffffffffffffffffffffffffffffff166004600083815260200190815260200160002060040160009054906101000a900473ffffffffffffffffffffffffffffffffffffffff1673ffffffffffffffffffffffffffffffffffffffff161415610aea576000600460008381526020019081526020016000209050806040518060c00160405290816000820154815260200160018201548152602001600282015481526020016003820160009054906101000a900473ffffffffffffffffffffffffffffffffffffffff1673ffffffffffffffffffffffffffffffffffffffff1673ffffffffffffffffffffffffffffffffffffffff1681526020016004820160009054906101000a900473ffffffffffffffffffffffffffffffffffffffff1673ffffffffffffffffffffffffffffffffffffffff1673ffffffffffffffffffffffffffffffffffffffff1681526020016004820160149054906101000a900460ff166003811115610aa557610aa4612ead565b5b6003811115610ab757610ab6612ead565b5b81525050838681518110610ace57610acd613543565b5b6020026020010181905250600185610ae69190613475565b9450505b8080610af5906134cb565b915050610922565b508094505050505090565b60026000541415610b4e576040517f08c379a0000000000000000000000000000000000000000000000000000000008152600401610b45906135cf565b60405180910390fd5b6002600081905550600360009054906101000a900473ffffffffffffffffffffffffffffffffffffffff1673ffffffffffffffffffffffffffffffffffffffff163373ffffffffffffffffffffffffffffffffffffffff1614610be6576040517f08c379a0000000000000000000000000000000000000000000000000000000008152600401610bdd9061363b565b60405180910390fd5b60006004600084815260200190815260200160002060020154905060006004600085815260200190815260200160002060010154905060006003811115610c3057610c2f612ead565b5b6004600086815260200190815260200160002060040160149054906101000a900460ff166003811115610c6657610c65612ead565b5b14610ca6576040517f08c379a0000000000000000000000000000000000000000000000000000000008152600401610c9d906136cd565b60405180910390fd5b670de0b6b3a764000034610cba919061371c565b8214610cfb576040517f08c379a0000000000000000000000000000000000000000000000000000000008152600401610cf2906136cd565b60405180910390fd5b6004600085815260200190815260200160002060030160009054906101000a900473ffffffffffffffffffffffffffffffffffffffff1673ffffffffffffffffffffffffffffffffffffffff166108fc349081150290604051600060405180830381858888f19350505050158015610d77573d6000803e3d6000fd5b508273ffffffffffffffffffffffffffffffffffffffff166323b872dd3033846040518463ffffffff1660e01b8152600401610db59392919061374d565b600060405180830381600087803b158015610dcf57600080fd5b505af1158015610de3573d6000803e3d6000fd5b50505050336004600086815260200190815260200160002060040160006101000a81548173ffffffffffffffffffffffffffffffffffffffff021916908373ffffffffffffffffffffffffffffffffffffffff16021790555060026004600086815260200190815260200160002060040160146101000a81548160ff02191690836003811115610e7657610e75612ead565b5b0217905550610e856002612bf9565b505060016000819055505050565b603c81565b60056020528060005260406000206000915090508060000154908060010154908060020154908060030154908060040160009054906101000a900473ffffffffffffffffffffffffffffffffffffffff16908060050160009054906101000a900473ffffffffffffffffffffffffffffffffffffffff16905086565b600360009054906101000a900473ffffffffffffffffffffffffffffffffffffffff1673ffffffffffffffffffffffffffffffffffffffff163373ffffffffffffffffffffffffffffffffffffffff1614610fa4576040517f08c379a0000000000000000000000000000000000000000000000000000000008152600401610f9b9061363b565b60405180910390fd5b60016003811115610fb857610fb7612ead565b5b6004600083815260200190815260200160002060040160149054906101000a900460ff166003811115610fee57610fed612ead565b5b141561109a57600073ffffffffffffffffffffffffffffffffffffffff166005600083815260200190815260200160002060040160009054906101000a900473ffffffffffffffffffffffffffffffffffffffff1673ffffffffffffffffffffffffffffffffffffffff1614611099576040517f08c379a0000000000000000000000000000000000000000000000000000000008152600401611090906137d0565b60405180910390fd5b5b6004600082815260200190815260200160002060010154817f81121325e94c2acaef9f9ecac668b776310b294eec2b9aebda49e485696e543e60405160405180910390a360046000828152602001908152602001600020600080820160009055600182016000905560028201600090556003820160006101000a81549073ffffffffffffffffffffffffffffffffffffffff02191690556004820160006101000a81549073ffffffffffffffffffffffffffffffffffffffff02191690556004820160146101000a81549060ff0219169055505050565b611179612dc5565b600560008381526020019081526020016000206040518060c0016040529081600082015481526020016001820154815260200160028201548152602001600382015481526020016004820160009054906101000a900473ffffffffffffffffffffffffffffffffffffffff1673ffffffffffffffffffffffffffffffffffffffff1673ffffffffffffffffffffffffffffffffffffffff1681526020016005820160009054906101000a900473ffffffffffffffffffffffffffffffffffffffff1673ffffffffffffffffffffffffffffffffffffffff1673ffffffffffffffffffffffffffffffffffffffff16815250509050919050565b600260005414156112b8576040517f08c379a00000000000000000000000000000000000000000000000000000000081526004016112af906135cf565b60405180910390fd5b6002600081905550600360009054906101000a900473ffffffffffffffffffffffffffffffffffffffff1673ffffffffffffffffffffffffffffffffffffffff163373ffffffffffffffffffffffffffffffffffffffff1614611350576040517f08c379a00000000000000000000000000000000000000000000000000000000081526004016113479061363b565b60405180910390fd5b8061135a81612c0f565b1561139a576040517f08c379a00000000000000000000000000000000000000000000000000000000081526004016113919061383c565b60405180910390fd5b60006005600084815260200190815260200160002060020154146113f3576040517f08c379a00000000000000000000000000000000000000000000000000000000081526004016113ea906138a8565b60405180910390fd5b600560008381526020019081526020016000206000808201600090556001820160009055600282016000905560038201600090556004820160006101000a81549073ffffffffffffffffffffffffffffffffffffffff02191690556005820160006101000a81549073ffffffffffffffffffffffffffffffffffffffff0219169055505060036004600084815260200190815260200160002060040160146101000a81548160ff021916908360038111156114b1576114b0612ead565b5b0217905550817f28601d865dccc9f113e15a7185c1b38c085d598c71250d3337916a428536d77160405160405180910390a250600160008190555050565b600360009054906101000a900473ffffffffffffffffffffffffffffffffffffffff1673ffffffffffffffffffffffffffffffffffffffff163373ffffffffffffffffffffffffffffffffffffffff161461157f576040517f08c379a00000000000000000000000000000000000000000000000000000000081526004016115769061363b565b60405180910390fd5b60038081111561159257611591612ead565b5b6004600084815260200190815260200160002060040160149054906101000a900460ff1660038111156115c8576115c7612ead565b5b146115d257600080fd5b60006004600084815260200190815260200160002060040160146101000a81548160ff0219169083600381111561160c5761160b612ead565b5b02179055508060046000848152602001908152602001600020600201819055505050565b600061167160056000848152602001908152602001600020600101546005600085815260200190815260200160002060020154612c7d90919063ffffffff16565b9050919050565b600260005414156116be576040517f08c379a00000000000000000000000000000000000000000000000000000000081526004016116b5906135cf565b60405180910390fd5b6002600081905550816116d081612c0f565b15611710576040517f08c379a00000000000000000000000000000000000000000000000000000000081526004016117079061383c565b60405180910390fd5b8260006005600083815260200190815260200160002060020154148061173d575061173a81611630565b42105b61177c576040517f08c379a000000000000000000000000000000000000000000000000000000000815260040161177390613914565b60405180910390fd5b670de0b6b3a764000034611790919061371c565b83146117d1576040517f08c379a00000000000000000000000000000000000000000000000000000000081526004016117c890613980565b60405180910390fd5b60008311611814576040517f08c379a000000000000000000000000000000000000000000000000000000000815260040161180b906139ec565b60405180910390fd5b6000600560008681526020019081526020016000206000015414156118ac5742600560008681526020019081526020016000206002018190555060056000858152602001908152602001600020600301548310156118a7576040517f08c379a000000000000000000000000000000000000000000000000000000000815260040161189e90613a58565b60405180910390fd5b611a06565b60006118c9670de0b6b3a764000085612c9390919063ffffffff16565b905060006118fe670de0b6b3a76400006005600089815260200190815260200160002060000154612c9390919063ffffffff16565b905061193c61192d606461191f600a60ff1685612c9390919063ffffffff16565b612ca990919063ffffffff16565b82612c7d90919063ffffffff16565b82101561197e576040517f08c379a000000000000000000000000000000000000000000000000000000000815260040161197590613aea565b60405180910390fd5b60006119c06005600089815260200190815260200160002060040160009054906101000a900473ffffffffffffffffffffffffffffffffffffffff1683612cbf565b905080611a02576040517f08c379a00000000000000000000000000000000000000000000000000000000081526004016119f990613b56565b60405180910390fd5b5050505b826005600086815260200190815260200160002060000181905550336005600086815260200190815260200160002060040160006101000a81548173ffffffffffffffffffffffffffffffffffffffff021916908373ffffffffffffffffffffffffffffffffffffffff160217905550611a8e603c61ffff1642612c7d90919063ffffffff16565b611a9785611630565b1015611afc57611acf611aa985611630565b611ac1603c61ffff1642612c7d90919063ffffffff16565b612d3b90919063ffffffff16565b600560008681526020019081526020016000206001016000828254611af49190613475565b925050819055505b3373ffffffffffffffffffffffffffffffffffffffff16847fb8d756f2d1da4663767eb4d559780ace84f2f65a421a60ddcb47e8b2e5d2fd2685604051611b4391906132cb565b60405180910390a3505060016000819055505050565b600a81565b60026000541415611ba4576040517f08c379a0000000000000000000000000000000000000000000000000000000008152600401611b9b906135cf565b60405180910390fd5b60026000819055508160006005600083815260200190815260200160002060020154118015611bdb5750611bd781611630565b4210155b611c1a576040517f08c379a0000000000000000000000000000000000000000000000000000000008152600401611c1190613bc2565b60405180910390fd5b600060056000858152602001908152602001600020600001541415611c74576040517f08c379a0000000000000000000000000000000000000000000000000000000008152600401611c6b90613c2e565b60405180910390fd5b6005600084815260200190815260200160002060040160009054906101000a900473ffffffffffffffffffffffffffffffffffffffff1673ffffffffffffffffffffffffffffffffffffffff163373ffffffffffffffffffffffffffffffffffffffff161480611d315750600360009054906101000a900473ffffffffffffffffffffffffffffffffffffffff1673ffffffffffffffffffffffffffffffffffffffff163373ffffffffffffffffffffffffffffffffffffffff16145b611d70576040517f08c379a0000000000000000000000000000000000000000000000000000000008152600401611d6790613cc0565b60405180910390fd5b60006005600085815260200190815260200160002060040160009054906101000a900473ffffffffffffffffffffffffffffffffffffffff169050600060056000868152602001908152602001600020600001549050600560008681526020019081526020016000206000808201600090556001820160009055600282016000905560038201600090556004820160006101000a81549073ffffffffffffffffffffffffffffffffffffffff02191690556005820160006101000a81549073ffffffffffffffffffffffffffffffffffffffff021916905550506000600460008781526020019081526020016000206001015490508473ffffffffffffffffffffffffffffffffffffffff166323b872dd3085846040518463ffffffff1660e01b8152600401611ea29392919061374d565b600060405180830381600087803b158015611ebc57600080fd5b505af1158015611ed0573d6000803e3d6000fd5b505050506000611f07670de0b6b3a7640000600560008a815260200190815260200160002060000154612c9390919063ffffffff16565b90506000611f4b600560008a815260200190815260200160002060050160009054906101000a900473ffffffffffffffffffffffffffffffffffffffff1683612cbf565b905080611f8d576040517f08c379a0000000000000000000000000000000000000000000000000000000008152600401611f8490613d2c565b60405180910390fd5b84600460008a815260200190815260200160002060040160006101000a81548173ffffffffffffffffffffffffffffffffffffffff021916908373ffffffffffffffffffffffffffffffffffffffff1602179055506002600460008a815260200190815260200160002060040160146101000a81548160ff0219169083600381111561201c5761201b612ead565b5b021790555083600460008a8152602001908152602001600020600201819055506120466002612bf9565b8473ffffffffffffffffffffffffffffffffffffffff16887fd2aa34a4fdbbc6dff6a3e56f46e0f3ae2a31d7785ff3487aa5c95c642acea5018660405161208d91906132cb565b60405180910390a350505050505060016000819055505050565b600260005414156120ed576040517f08c379a00000000000000000000000000000000000000000000000000000000081526004016120e4906135cf565b60405180910390fd5b6002600081905550826120ff81612c0f565b61213e576040517f08c379a000000000000000000000000000000000000000000000000000000000815260040161213590613d98565b60405180910390fd5b600360009054906101000a900473ffffffffffffffffffffffffffffffffffffffff1673ffffffffffffffffffffffffffffffffffffffff163373ffffffffffffffffffffffffffffffffffffffff16146121ce576040517f08c379a00000000000000000000000000000000000000000000000000000000081526004016121c59061363b565b60405180910390fd5b6003808111156121e1576121e0612ead565b5b6004600086815260200190815260200160002060040160149054906101000a900460ff16600381111561221757612216612ead565b5b1461222157600080fd5b60016004600086815260200190815260200160002060040160146101000a81548160ff0219169083600381111561225b5761225a612ead565b5b02179055506040518060c001604052806000815260200184815260200160008152602001838152602001600073ffffffffffffffffffffffffffffffffffffffff168152602001600360009054906101000a900473ffffffffffffffffffffffffffffffffffffffff1673ffffffffffffffffffffffffffffffffffffffff16815250600560008681526020019081526020016000206000820151816000015560208201518160010155604082015181600201556060820151816003015560808201518160040160006101000a81548173ffffffffffffffffffffffffffffffffffffffff021916908373ffffffffffffffffffffffffffffffffffffffff16021790555060a08201518160050160006101000a81548173ffffffffffffffffffffffffffffffffffffffff021916908373ffffffffffffffffffffffffffffffffffffffff160217905550905050600060046000868152602001908152602001600020600101549050807fd6eddd1118d71820909c1197aa966dbc15ed6f508554252169cc3d5ccac756ca85856040516123f7929190613db8565b60405180910390a250506001600081905550505050565b612416612d51565b600460008381526020019081526020016000206040518060c00160405290816000820154815260200160018201548152602001600282015481526020016003820160009054906101000a900473ffffffffffffffffffffffffffffffffffffffff1673ffffffffffffffffffffffffffffffffffffffff1673ffffffffffffffffffffffffffffffffffffffff1681526020016004820160009054906101000a900473ffffffffffffffffffffffffffffffffffffffff1673ffffffffffffffffffffffffffffffffffffffff1673ffffffffffffffffffffffffffffffffffffffff1681526020016004820160149054906101000a900460ff16600381111561252357612522612ead565b5b600381111561253557612534612ead565b5b815250509050919050565b60026000541415612586576040517f08c379a000000000000000000000000000000000000000000000000000000000815260040161257d906135cf565b60405180910390fd5b6002600081905550600360009054906101000a900473ffffffffffffffffffffffffffffffffffffffff1673ffffffffffffffffffffffffffffffffffffffff163373ffffffffffffffffffffffffffffffffffffffff161461261e576040517f08c379a00000000000000000000000000000000000000000000000000000000081526004016126159061363b565b60405180910390fd5b6126286001612bf9565b60006126346001612beb565b90506040518060c00160405280828152602001838152602001600081526020013373ffffffffffffffffffffffffffffffffffffffff168152602001600073ffffffffffffffffffffffffffffffffffffffff1681526020016003808111156126a05761269f612ead565b5b8152506004600083815260200190815260200160002060008201518160000155602082015181600101556040820151816002015560608201518160030160006101000a81548173ffffffffffffffffffffffffffffffffffffffff021916908373ffffffffffffffffffffffffffffffffffffffff16021790555060808201518160040160006101000a81548173ffffffffffffffffffffffffffffffffffffffff021916908373ffffffffffffffffffffffffffffffffffffffff16021790555060a08201518160040160146101000a81548160ff0219169083600381111561278d5761278c612ead565b5b02179055509050508273ffffffffffffffffffffffffffffffffffffffff166323b872dd3330856040518463ffffffff1660e01b81526004016127d29392919061374d565b600060405180830381600087803b1580156127ec57600080fd5b505af1158015612800573d6000803e3d6000fd5b505050508273ffffffffffffffffffffffffffffffffffffffff1682827fdcc19fe685c524be06bc4bb1c9b73b190237320e24f4abf3e68e5da391035b64336000600360405161285293929190613df0565b60405180910390a45060016000819055505050565b6060600360009054906101000a900473ffffffffffffffffffffffffffffffffffffffff1673ffffffffffffffffffffffffffffffffffffffff163373ffffffffffffffffffffffffffffffffffffffff16146128f9576040517f08c379a00000000000000000000000000000000000000000000000000000000081526004016128f09061363b565b60405180910390fd5b60006129056001612beb565b90506000806000600190505b8381116129a5573373ffffffffffffffffffffffffffffffffffffffff166004600083815260200190815260200160002060030160009054906101000a900473ffffffffffffffffffffffffffffffffffffffff1673ffffffffffffffffffffffffffffffffffffffff1614156129925760018261298f9190613475565b91505b808061299d906134cb565b915050612911565b5060008167ffffffffffffffff8111156129c2576129c1613514565b5b6040519080825280602002602001820160405280156129fb57816020015b6129e8612d51565b8152602001906001900390816129e05790505b5090506000600190505b848111612be0573373ffffffffffffffffffffffffffffffffffffffff166004600083815260200190815260200160002060030160009054906101000a900473ffffffffffffffffffffffffffffffffffffffff1673ffffffffffffffffffffffffffffffffffffffff161415612bcd576000600460008381526020019081526020016000209050806040518060c00160405290816000820154815260200160018201548152602001600282015481526020016003820160009054906101000a900473ffffffffffffffffffffffffffffffffffffffff1673ffffffffffffffffffffffffffffffffffffffff1673ffffffffffffffffffffffffffffffffffffffff1681526020016004820160009054906101000a900473ffffffffffffffffffffffffffffffffffffffff1673ffffffffffffffffffffffffffffffffffffffff1673ffffffffffffffffffffffffffffffffffffffff1681526020016004820160149054906101000a900460ff166003811115612b8857612b87612ead565b5b6003811115612b9a57612b99612ead565b5b81525050838681518110612bb157612bb0613543565b5b6020026020010181905250600185612bc99190613475565b9450505b8080612bd8906134cb565b915050612a05565b508094505050505090565b600081600001549050919050565b6001816000016000828254019250508190555050565b60008073ffffffffffffffffffffffffffffffffffffffff166005600084815260200190815260200160002060050160009054906101000a900473ffffffffffffffffffffffffffffffffffffffff1673ffffffffffffffffffffffffffffffffffffffff16149050919050565b60008183612c8b9190613475565b905092915050565b60008183612ca19190613e27565b905092915050565b60008183612cb7919061371c565b905092915050565b6000808373ffffffffffffffffffffffffffffffffffffffff168361753090604051612cea90613eb2565b600060405180830381858888f193505050503d8060008114612d28576040519150601f19603f3d011682016040523d82523d6000602084013e612d2d565b606091505b505090508091505092915050565b60008183612d499190613ec7565b905092915050565b6040518060c00160405280600081526020016000815260200160008152602001600073ffffffffffffffffffffffffffffffffffffffff168152602001600073ffffffffffffffffffffffffffffffffffffffff16815260200160006003811115612dbf57612dbe612ead565b5b81525090565b6040518060c0016040528060008152602001600081526020016000815260200160008152602001600073ffffffffffffffffffffffffffffffffffffffff168152602001600073ffffffffffffffffffffffffffffffffffffffff1681525090565b600081519050919050565b600082825260208201905092915050565b6000819050602082019050919050565b6000819050919050565b612e6681612e53565b82525050565b600073ffffffffffffffffffffffffffffffffffffffff82169050919050565b6000612e9782612e6c565b9050919050565b612ea781612e8c565b82525050565b7f4e487b7100000000000000000000000000000000000000000000000000000000600052602160045260246000fd5b60048110612eed57612eec612ead565b5b50565b6000819050612efe82612edc565b919050565b6000612f0e82612ef0565b9050919050565b612f1e81612f03565b82525050565b60c082016000820151612f3a6000850182612e5d565b506020820151612f4d6020850182612e5d565b506040820151612f606040850182612e5d565b506060820151612f736060850182612e9e565b506080820151612f866080850182612e9e565b5060a0820151612f9960a0850182612f15565b50505050565b6000612fab8383612f24565b60c08301905092915050565b6000602082019050919050565b6000612fcf82612e27565b612fd98185612e32565b9350612fe483612e43565b8060005b83811015613015578151612ffc8882612f9f565b975061300783612fb7565b925050600181019050612fe8565b5085935050505092915050565b6000602082019050818103600083015261303c8184612fc4565b905092915050565b600080fd5b61305281612e53565b811461305d57600080fd5b50565b60008135905061306f81613049565b92915050565b600061308082612e6c565b9050919050565b61309081613075565b811461309b57600080fd5b50565b6000813590506130ad81613087565b92915050565b600080604083850312156130ca576130c9613044565b5b60006130d885828601613060565b92505060206130e98582860161309e565b9150509250929050565b600061ffff82169050919050565b61310a816130f3565b82525050565b60006020820190506131256000830184613101565b92915050565b60006020828403121561314157613140613044565b5b600061314f84828501613060565b91505092915050565b61316181612e53565b82525050565b61317081612e8c565b82525050565b61317f81613075565b82525050565b600060c08201905061319a6000830189613158565b6131a76020830188613158565b6131b46040830187613158565b6131c16060830186613158565b6131ce6080830185613167565b6131db60a0830184613176565b979650505050505050565b6131ef81613075565b82525050565b60c08201600082015161320b6000850182612e5d565b50602082015161321e6020850182612e5d565b5060408201516132316040850182612e5d565b5060608201516132446060850182612e5d565b5060808201516132576080850182612e9e565b5060a082015161326a60a08501826131e6565b50505050565b600060c08201905061328560008301846131f5565b92915050565b600080604083850312156132a2576132a1613044565b5b60006132b085828601613060565b92505060206132c185828601613060565b9150509250929050565b60006020820190506132e06000830184613158565b92915050565b600060ff82169050919050565b6132fc816132e6565b82525050565b600060208201905061331760008301846132f3565b92915050565b60008060006060848603121561333657613335613044565b5b600061334486828701613060565b935050602061335586828701613060565b925050604061336686828701613060565b9150509250925092565b60c0820160008201516133866000850182612e5d565b5060208201516133996020850182612e5d565b5060408201516133ac6040850182612e5d565b5060608201516133bf6060850182612e9e565b5060808201516133d26080850182612e9e565b5060a08201516133e560a0850182612f15565b50505050565b600060c0820190506134006000830184613370565b92915050565b6000806040838503121561341d5761341c613044565b5b600061342b8582860161309e565b925050602061343c85828601613060565b9150509250929050565b7f4e487b7100000000000000000000000000000000000000000000000000000000600052601160045260246000fd5b600061348082612e53565b915061348b83612e53565b9250827fffffffffffffffffffffffffffffffffffffffffffffffffffffffffffffffff038211156134c0576134bf613446565b5b828201905092915050565b60006134d682612e53565b91507fffffffffffffffffffffffffffffffffffffffffffffffffffffffffffffffff82141561350957613508613446565b5b600182019050919050565b7f4e487b7100000000000000000000000000000000000000000000000000000000600052604160045260246000fd5b7f4e487b7100000000000000000000000000000000000000000000000000000000600052603260045260246000fd5b600082825260208201905092915050565b7f5265656e7472616e637947756172643a207265656e7472616e742063616c6c00600082015250565b60006135b9601f83613572565b91506135c482613583565b602082019050919050565b600060208201905081810360008301526135e8816135ac565b9050919050565b7f596f7520617265206e6f7420746865206f776e65720000000000000000000000600082015250565b6000613625601583613572565b9150613630826135ef565b602082019050919050565b6000602082019050818103600083015261365481613618565b9050919050565b7f506c65617365207375626d6974207468652061736b696e67207072696365206960008201527f6e206f7264657220746f20636f6d706c65746520746865207075726368617365602082015250565b60006136b7604083613572565b91506136c28261365b565b604082019050919050565b600060208201905081810360008301526136e6816136aa565b9050919050565b7f4e487b7100000000000000000000000000000000000000000000000000000000600052601260045260246000fd5b600061372782612e53565b915061373283612e53565b925082613742576137416136ed565b5b828204905092915050565b60006060820190506137626000830186613176565b61376f6020830185613176565b61377c6040830184613158565b949350505050565b7f5468652061756374696f6e207374617274732100000000000000000000000000600082015250565b60006137ba601383613572565b91506137c582613784565b602082019050919050565b600060208201905081810360008301526137e9816137ad565b9050919050565b7f41756374696f6e20646f65736e27742065786973740000000000000000000000600082015250565b6000613826601583613572565b9150613831826137f0565b602082019050919050565b6000602082019050818103600083015261385581613819565b9050919050565b7f41756374696f6e20616c72656164792073746172746564000000000000000000600082015250565b6000613892601783613572565b915061389d8261385c565b602082019050919050565b600060208201905081810360008301526138c181613885565b9050919050565b7f41756374696f6e20657870697265640000000000000000000000000000000000600082015250565b60006138fe600f83613572565b9150613909826138c8565b602082019050919050565b6000602082019050818103600083015261392d816138f1565b9050919050565b7f416d6f756e7420646f65736e277420657175616c206d73672e76616c75650000600082015250565b600061396a601e83613572565b915061397582613934565b602082019050919050565b600060208201905081810360008301526139998161395d565b9050919050565b7f416d6f756e74206d7573742062652067726561746572207468616e2030000000600082015250565b60006139d6601d83613572565b91506139e1826139a0565b602082019050919050565b60006020820190508181036000830152613a05816139c9565b9050919050565b7f4d7573742062696420726573657276655072696365206f72206d6f7265000000600082015250565b6000613a42601d83613572565b9150613a4d82613a0c565b602082019050919050565b60006020820190508181036000830152613a7181613a35565b9050919050565b7f4d75737420626964206d6f7265207468616e206c61737420626964206279204d60008201527f494e5f4249445f494e4352454d454e545f50455243454e5420616d6f756e7400602082015250565b6000613ad4603f83613572565b9150613adf82613a78565b604082019050919050565b60006020820190508181036000830152613b0381613ac7565b9050919050565b7f4661696c20746f20726566756e64000000000000000000000000000000000000600082015250565b6000613b40600e83613572565b9150613b4b82613b0a565b602082019050919050565b60006020820190508181036000830152613b6f81613b33565b9050919050565b7f41756374696f6e206861736e277420636f6d706c657465640000000000000000600082015250565b6000613bac601883613572565b9150613bb782613b76565b602082019050919050565b60006020820190508181036000830152613bdb81613b9f565b9050919050565b7f54686973206974656d206973206e6f74206f6e2061756374696f6e0000000000600082015250565b6000613c18601b83613572565b9150613c2382613be2565b602082019050919050565b60006020820190508181036000830152613c4781613c0b565b9050919050565b7f4f6e6c7920626964646572206f72206f776e65722063616e20656e642061756360008201527f74696f6e00000000000000000000000000000000000000000000000000000000602082015250565b6000613caa602483613572565b9150613cb582613c4e565b604082019050919050565b60006020820190508181036000830152613cd981613c9d565b9050919050565b7f4661696c20746f207472616e7366657200000000000000000000000000000000600082015250565b6000613d16601083613572565b9150613d2182613ce0565b602082019050919050565b60006020820190508181036000830152613d4581613d09565b9050919050565b7f41756374696f6e20616c72656164792065786973747300000000000000000000600082015250565b6000613d82601683613572565b9150613d8d82613d4c565b602082019050919050565b60006020820190508181036000830152613db181613d75565b9050919050565b6000604082019050613dcd6000830185613158565b613dda6020830184613158565b9392505050565b613dea81612f03565b82525050565b6000606082019050613e056000830186613167565b613e126020830185613167565b613e1f6040830184613de1565b949350505050565b6000613e3282612e53565b9150613e3d83612e53565b9250817fffffffffffffffffffffffffffffffffffffffffffffffffffffffffffffffff0483118215151615613e7657613e75613446565b5b828202905092915050565b600081905092915050565b50565b6000613e9c600083613e81565b9150613ea782613e8c565b600082019050919050565b6000613ebd82613e8f565b9150819050919050565b6000613ed282612e53565b9150613edd83612e53565b925082821015613ef057613eef613446565b5b82820390509291505056fea26469706673582212200dc4532e00714d9ee59fafa186b16d3dbd6934e133c7d8367775ca847004fea364736f6c634300080a0033",
  "immutableReferences": {},
  "source": "// SPDX-License-Identifier: MIT\r\npragma solidity ^0.8.3;\r\n\r\nimport \"@openzeppelin/contracts/utils/Counters.sol\";\r\nimport \"@openzeppelin/contracts/utils/math/SafeMath.sol\";\r\nimport \"@openzeppelin/contracts/security/ReentrancyGuard.sol\";\r\nimport \"@openzeppelin/contracts/token/ERC721/ERC721.sol\";\r\n\r\ncontract Market is ReentrancyGuard {\r\n    using Counters for Counters.Counter;\r\n    Counters.Counter private _itemIds;\r\n    Counters.Counter private _itemsSold;\r\n\r\n    address payable owner;\r\n\r\n    constructor() {\r\n        owner = payable(msg.sender);\r\n    }\r\n\r\n    /* \r\n        BuyNow: The item can be sold in a fixed price\r\n        OnAuction: The item can be sold in auction\r\n        Sold: The item has been sold\r\n        New: Unsold\r\n     */\r\n\r\n    enum Status {\r\n        BuyNow,\r\n        OnAuction,\r\n        Sold,\r\n        New\r\n    }\r\n\r\n    struct MarketItem {\r\n        uint256 itemId;\r\n        uint256 tokenId;\r\n        uint256 price;\r\n        address payable seller;\r\n        address payable owner;\r\n        Status status;\r\n    }\r\n\r\n    /* map the itemId to the Item */\r\n    mapping(uint256 => MarketItem) private idToMktItem;\r\n\r\n    /* Returns the detail of Item */\r\n    function fetchMarketItemDetail(uint256 _itemId)\r\n        public\r\n        view\r\n        returns (MarketItem memory)\r\n    {\r\n        return idToMktItem[_itemId];\r\n    }\r\n\r\n    /* Reverts if the transaction is not sent by the owner */\r\n    modifier isOwner() {\r\n        // The auction exists if the curator is not null.\r\n        require(msg.sender == owner, \"You are not the owner\");\r\n        _;\r\n    }\r\n\r\n    /* Places an nft to the market */\r\n    event MarketItemCreated(\r\n        uint256 indexed itemId,\r\n        uint256 indexed tokenId,\r\n        address indexed nftContract,\r\n        address payable seller,\r\n        address payable owner,\r\n        Status status\r\n    );\r\n\r\n    function createMarketItem(address nftContract, uint256 tokenId)\r\n        public\r\n        payable\r\n        nonReentrant\r\n        isOwner\r\n    {\r\n        _itemIds.increment();\r\n        uint256 itemId = _itemIds.current();\r\n\r\n        idToMktItem[itemId] = MarketItem(\r\n            itemId,\r\n            tokenId,\r\n            0,\r\n            payable(msg.sender),\r\n            payable(address(0)),\r\n            Status.New\r\n        );\r\n\r\n        /* Transfers the nft from the creator to the contract */\r\n        IERC721(nftContract).transferFrom(msg.sender, address(this), tokenId);\r\n        emit MarketItemCreated(\r\n            itemId,\r\n            tokenId,\r\n            nftContract,\r\n            payable(msg.sender),\r\n            payable(address(0)),\r\n            Status.New\r\n        );\r\n    }\r\n\r\n    event MarketItemRemoved(uint256 indexed itemId, uint256 indexed tokenId);\r\n\r\n    /* Remove Item from mkt */\r\n    function removeItem(uint256 _itemId) public isOwner {\r\n        /* if the item is on auction and the auction starts, it can't be removed*/\r\n        if (idToMktItem[_itemId].status == Status.OnAuction) {\r\n            require(\r\n                auctions[_itemId].bidder == address(0),\r\n                \"The auction starts!\"\r\n            );\r\n        }\r\n        emit MarketItemRemoved(_itemId, idToMktItem[_itemId].tokenId);\r\n        delete idToMktItem[_itemId];\r\n    }\r\n\r\n    /* Sets fixed price to sell */\r\n    function setFixedPrice(uint256 _itemId, uint256 _price) public isOwner {\r\n        require(idToMktItem[_itemId].status == Status.New);\r\n        idToMktItem[_itemId].status = Status.BuyNow;\r\n        idToMktItem[_itemId].price = _price;\r\n    }\r\n\r\n    /* Creates Auction */\r\n    function createAuction(\r\n        uint256 itemId,\r\n        uint256 duration,\r\n        uint256 reservePrice\r\n    ) public payable nonReentrant auctionNonExistant(itemId) isOwner {\r\n        require(idToMktItem[itemId].status == Status.New);\r\n        idToMktItem[itemId].status = Status.OnAuction;\r\n        // Initialize the auction details, including null values.\r\n        auctions[itemId] = Auction({\r\n            duration: duration,\r\n            reservePrice: reservePrice,\r\n            curator: owner,\r\n            amount: 0,\r\n            firstBidTime: 0,\r\n            bidder: payable(address(0))\r\n        });\r\n        uint256 tokenId = idToMktItem[itemId].tokenId;\r\n        // Emit an event describing the new auction.\r\n        emit AuctionCreated(tokenId, duration, reservePrice);\r\n    }\r\n\r\n    /* Creates the sale of a market item */\r\n    /* Transfers ownership of the item, as well as funds between parties */\r\n    function createMarketSale(uint256 itemId, address contractAdd)\r\n        public\r\n        payable\r\n        nonReentrant\r\n        isOwner\r\n    {\r\n        uint256 price = idToMktItem[itemId].price;\r\n        uint256 tokenId = idToMktItem[itemId].tokenId;\r\n        require(\r\n            idToMktItem[itemId].status == Status.BuyNow,\r\n            \"Please submit the asking price in order to complete the purchase\"\r\n        );\r\n        require(\r\n            price == msg.value / (1 ether),\r\n            \"Please submit the asking price in order to complete the purchase\"\r\n        );\r\n\r\n        idToMktItem[itemId].seller.transfer(msg.value);\r\n        IERC721(contractAdd).transferFrom(address(this), msg.sender, tokenId);\r\n        idToMktItem[itemId].owner = payable(msg.sender);\r\n        idToMktItem[itemId].status = Status.Sold;\r\n        _itemsSold.increment();\r\n    }\r\n\r\n    /* Returns all unsold market items */\r\n    function fetchMarketItems() public view returns (MarketItem[] memory) {\r\n        uint256 totalItems = _itemIds.current();\r\n        uint256 unsoldItemsCount = 0;\r\n        uint256 currenIndex = 0;\r\n\r\n        for (uint256 i = 1; i <= totalItems; i++) {\r\n            /* if the item exsit */\r\n            if (idToMktItem[i].seller != address(0)) {\r\n                /* Only set the status in BUYNOW or ONAUCTION can be listed */\r\n                if (\r\n                    idToMktItem[i].status == Status.BuyNow ||\r\n                    idToMktItem[i].status == Status.OnAuction\r\n                ) {\r\n                    unsoldItemsCount += 1;\r\n                }\r\n            }\r\n        }\r\n\r\n        MarketItem[] memory items = new MarketItem[](unsoldItemsCount);\r\n        for (uint256 i = 1; i <= totalItems; i++) {\r\n            if (idToMktItem[i].seller != address(0)) {\r\n                if (\r\n                    idToMktItem[i].status == Status.BuyNow ||\r\n                    idToMktItem[i].status == Status.OnAuction\r\n                ) {\r\n                    MarketItem storage currentItem = idToMktItem[i];\r\n                    items[currenIndex] = currentItem;\r\n                    currenIndex = currenIndex + 1;\r\n                }\r\n            }\r\n        }\r\n        return items;\r\n    }\r\n\r\n    /* Returns items purchased */\r\n    function fetchMyNFTs() public view returns (MarketItem[] memory) {\r\n        uint256 totalItems = _itemIds.current();\r\n        uint256 currenIndex = 0;\r\n        uint256 myItemsCount = 0;\r\n\r\n        for (uint256 i = 1; i <= totalItems; i++) {\r\n            if (idToMktItem[i].owner == msg.sender) {\r\n                myItemsCount += 1;\r\n            }\r\n        }\r\n\r\n        MarketItem[] memory items = new MarketItem[](myItemsCount);\r\n        for (uint256 i = 1; i <= totalItems; i++) {\r\n            if (idToMktItem[i].owner == msg.sender) {\r\n                MarketItem storage currentItem = idToMktItem[i];\r\n                items[currenIndex] = currentItem;\r\n                currenIndex = currenIndex + 1;\r\n            }\r\n        }\r\n        return items;\r\n    }\r\n\r\n    /* Returns only items a user has created */\r\n    function fetchItemsCreated()\r\n        public\r\n        view\r\n        isOwner\r\n        returns (MarketItem[] memory)\r\n    {\r\n        uint256 totalItems = _itemIds.current();\r\n        uint256 currenIndex = 0;\r\n        uint256 createdItemsCount = 0;\r\n\r\n        for (uint256 i = 1; i <= totalItems; i++) {\r\n            if (idToMktItem[i].seller == msg.sender) {\r\n                createdItemsCount += 1;\r\n            }\r\n        }\r\n\r\n        MarketItem[] memory items = new MarketItem[](createdItemsCount);\r\n        for (uint256 i = 1; i <= totalItems; i++) {\r\n            if (idToMktItem[i].seller == msg.sender) {\r\n                MarketItem storage currentItem = idToMktItem[i];\r\n                items[currenIndex] = currentItem;\r\n                currenIndex = currenIndex + 1;\r\n            }\r\n        }\r\n        return items;\r\n    }\r\n\r\n    /* Auction */\r\n\r\n    // Use OpenZeppelin's SafeMath library to prevent overflows.\r\n    using SafeMath for uint256;\r\n\r\n    // ============ Constants ============\r\n\r\n    // The minimum amount of time left in an auction after a new bid is created; 15 min.\r\n    uint16 public constant TIME_BUFFER = 60;\r\n    // The ETH needed above the current bid for a new bid to be valid; 0.001 ETH.\r\n    uint8 public constant MIN_BID_INCREMENT_PERCENT = 10;\r\n    // Interface constant for ERC721, to check values in constructor.\r\n    bytes4 private constant ERC721_INTERFACE_ID = 0x80ac58cd;\r\n\r\n    // A mapping of all of the auctions currently running.\r\n    mapping(uint256 => Auction) public auctions;\r\n\r\n    // ============ Structs ============\r\n\r\n    struct Auction {\r\n        // The value of the current highest bid.\r\n        uint256 amount;\r\n        // The amount of time that the auction should run for,\r\n        // after the first bid was made.\r\n        uint256 duration;\r\n        // The time of the first bid.\r\n        uint256 firstBidTime;\r\n        // The minimum price of the first bid.\r\n        uint256 reservePrice;\r\n        // The address of the current highest bid.\r\n        address payable bidder;\r\n        // The address of the auction's curator. The curator\r\n        // can cancel the auction if it hasn't had a bid yet.\r\n        address curator;\r\n    }\r\n\r\n    // ============ Events ============\r\n\r\n    // All of the details of a new auction,\r\n    // with an index created for the tokenId.\r\n    event AuctionCreated(\r\n        uint256 indexed tokenId,\r\n        uint256 duration,\r\n        uint256 reservePrice\r\n    );\r\n\r\n    // All of the details of a new bid,\r\n    // with an index created for the tokenId.\r\n    event AuctionBid(\r\n        uint256 indexed tokenId,\r\n        address indexed sender,\r\n        uint256 value\r\n    );\r\n\r\n    // All of the details of an auction's cancelation,\r\n    // with an index created for the tokenId.\r\n    event AuctionCanceled(uint256 indexed tokenId);\r\n\r\n    // All of the details of an auction's close,\r\n    // with an index created for the tokenId.\r\n    event AuctionEnded(\r\n        uint256 indexed tokenId,\r\n        address indexed winner,\r\n        uint256 amount\r\n    );\r\n\r\n    // ============ Modifiers ============\r\n\r\n    // Reverts if the auction does not exist.\r\n    modifier auctionExists(uint256 itemId) {\r\n        // The auction exists if the curator is not null.\r\n        require(!auctionCuratorIsNull(itemId), \"Auction doesn't exist\");\r\n        _;\r\n    }\r\n\r\n    // Reverts if the auction exists.\r\n    modifier auctionNonExistant(uint256 itemId) {\r\n        // The auction does not exist if the curator is null.\r\n        require(auctionCuratorIsNull(itemId), \"Auction already exists\");\r\n        _;\r\n    }\r\n\r\n    // Reverts if the auction is expired.\r\n    modifier auctionNotExpired(uint256 itemId) {\r\n        require(\r\n            // Auction is not expired if there's never been a bid, or if the\r\n            // current time is less than the time at which the auction ends.\r\n            auctions[itemId].firstBidTime == 0 ||\r\n                block.timestamp < auctionEnds(itemId),\r\n            \"Auction expired\"\r\n        );\r\n        _;\r\n    }\r\n\r\n    // Reverts if the auction is not complete.\r\n    // Auction is complete if there was a bid, and the time has run out.\r\n    modifier auctionComplete(uint256 itemId) {\r\n        require(\r\n            // Auction is complete if there has been a bid, and the current time\r\n            // is greater than the auction's end time.\r\n            auctions[itemId].firstBidTime > 0 &&\r\n                block.timestamp >= auctionEnds(itemId),\r\n            \"Auction hasn't completed\"\r\n        );\r\n        _;\r\n    }\r\n\r\n    /* fetch the detail from auctions */\r\n    function fetchAuction(uint256 itemId) public view returns (Auction memory) {\r\n        return auctions[itemId];\r\n    }\r\n\r\n    // ============ Create Bid ============\r\n    function createBid(uint256 itemId, uint256 amount)\r\n        public\r\n        payable\r\n        nonReentrant\r\n        auctionExists(itemId)\r\n        auctionNotExpired(itemId)\r\n    {\r\n        // Validate that the user's expected bid value matches the ETH deposit.\r\n        require(\r\n            amount == msg.value / (1 ether),\r\n            \"Amount doesn't equal msg.value\"\r\n        );\r\n        require(amount > 0, \"Amount must be greater than 0\");\r\n        // Check if the current bid amount is 0.\r\n        if (auctions[itemId].amount == 0) {\r\n            // If so, it is the first bid.\r\n            auctions[itemId].firstBidTime = block.timestamp;\r\n            // We only need to check if the bid matches reserve bid for the first bid,\r\n            // since future checks will need to be higher than any previous bid.\r\n            require(\r\n                amount >= auctions[itemId].reservePrice,\r\n                \"Must bid reservePrice or more\"\r\n            );\r\n        } else {\r\n            // Check that the new bid is sufficiently higher than the previous bid, by\r\n            // the percentage defined as MIN_BID_INCREMENT_PERCENT.\r\n            //convert ether to wei to avoid the demical\r\n            uint256 parsedAmount = amount.mul(1 ether);\r\n            uint256 parsedFormerAmount = auctions[itemId].amount.mul(1 ether);\r\n\r\n            require(\r\n                parsedAmount >=\r\n                    parsedFormerAmount.add(\r\n                        // Add 10% of the current bid to the current bid.\r\n                        parsedFormerAmount.mul(MIN_BID_INCREMENT_PERCENT).div(\r\n                            100\r\n                        )\r\n                    ),\r\n                \"Must bid more than last bid by MIN_BID_INCREMENT_PERCENT amount\"\r\n            );\r\n\r\n            // Refund the previous bidder.\r\n            bool result = attemptETHTransfer(\r\n                auctions[itemId].bidder,\r\n                parsedFormerAmount\r\n            );\r\n            require(result, \"Fail to refund\");\r\n        }\r\n        // Update the current auction.\r\n        auctions[itemId].amount = amount;\r\n        auctions[itemId].bidder = payable(msg.sender);\r\n        // Compare the auction's end time with the current time plus the 15 minute extension,\r\n        // to see whether we're near the auctions end and should extend the auction.\r\n        if (auctionEnds(itemId) < block.timestamp.add(TIME_BUFFER)) {\r\n            // We add onto the duration whenever time increment is required, so\r\n            // that the auctionEnds at the current time plus the buffer.\r\n            auctions[itemId].duration += block.timestamp.add(TIME_BUFFER).sub(\r\n                auctionEnds(itemId)\r\n            );\r\n        }\r\n        // Emit the event that a bid has been made.\r\n        emit AuctionBid(itemId, msg.sender, amount);\r\n    }\r\n\r\n    // Sending ETH is not guaranteed complete, and the method used here will return false if\r\n    // it fails. For example, a contract can block ETH transfer, or might use\r\n    // an excessive amount of gas, thereby griefing a new bidder.\r\n    // We should limit the gas used in transfers, and handle failure cases.\r\n    function attemptETHTransfer(address to, uint256 value)\r\n        private\r\n        returns (bool)\r\n    {\r\n        // Here increase the gas limit a reasonable amount above the default, and try\r\n        // to send ETH to the recipient.\r\n        // NOTE: This might allow the recipient to attempt a limited reentrancy attack.\r\n        (bool success, ) = to.call{value: value, gas: 30000}(\"\");\r\n        return success;\r\n    }\r\n\r\n    // ============ End Auction ============\r\n    function endAuction(uint256 itemId, address nftContract)\r\n        public\r\n        payable\r\n        nonReentrant\r\n        auctionComplete(itemId)\r\n    {\r\n        require(auctions[itemId].amount != 0, \"This item is not on auction\");\r\n        require(\r\n            msg.sender == auctions[itemId].bidder || msg.sender == owner,\r\n            \"Only bidder or owner can end auction\"\r\n        );\r\n        // Store relevant auction data in memory for the life of this function.\r\n        address winner = auctions[itemId].bidder;\r\n        uint256 amount = auctions[itemId].amount;\r\n        // Remove all auction data for this token from storage.\r\n        delete auctions[itemId];\r\n        // We don't use safeTransferFrom, to prevent reverts at this point,\r\n        // which would break the auction.\r\n        uint256 tokenId = idToMktItem[itemId].tokenId;\r\n        IERC721(nftContract).transferFrom(address(this), winner, tokenId);\r\n        // Transfer the ETH to curator.\r\n        uint256 parsedFormerAmount = auctions[itemId].amount.mul(1 ether);\r\n        bool result = attemptETHTransfer(\r\n            auctions[itemId].curator,\r\n            parsedFormerAmount\r\n        );\r\n        require(result, \"Fail to transfer\");\r\n        idToMktItem[itemId].owner = payable(winner);\r\n        idToMktItem[itemId].status = Status.Sold;\r\n        idToMktItem[itemId].price = amount;\r\n        _itemsSold.increment();\r\n        // Emit an event describing the end of the auction.\r\n        emit AuctionEnded(itemId, winner, amount);\r\n    }\r\n\r\n    // ============ Cancel Auction ============\r\n\r\n    function cancelAuction(uint256 _itemId)\r\n        public\r\n        nonReentrant\r\n        isOwner\r\n        auctionExists(_itemId)\r\n    {\r\n        // Check that there hasn't already been a bid for this NFT.\r\n        require(\r\n            uint256(auctions[_itemId].firstBidTime) == 0,\r\n            \"Auction already started\"\r\n        );\r\n        // Remove all data about the auction.\r\n        delete auctions[_itemId];\r\n        // Switch the status of the item to NEW\r\n        idToMktItem[_itemId].status = Status.New;\r\n        // Emit an event describing that the auction has been canceled.\r\n        emit AuctionCanceled(_itemId);\r\n    }\r\n\r\n    // Returns true if the auction's curator is set to the null address.\r\n    function auctionCuratorIsNull(uint256 itemId) private view returns (bool) {\r\n        // The auction does not exist if the curator is the null address,\r\n        // since the NFT would not have been transferred in `createAuction`.\r\n        return auctions[itemId].curator == address(0);\r\n    }\r\n\r\n    // Returns the timestamp at which an auction will finish.\r\n    function auctionEnds(uint256 itemId) public view returns (uint256) {\r\n        // Derived by adding the auction's duration to the time of the first bid.\r\n        // NOTE: duration can be extended conditionally after each new bid is added.\r\n        return auctions[itemId].firstBidTime.add(auctions[itemId].duration);\r\n    }\r\n}\r\n",
  "sourcePath": "C:\\Users\\33\\Desktop\\almamater88\\digital_museum\\almamaster88\\src\\Web3\\contracts\\Market.sol",
  "compiler": {
    "name": "solc",
    "version": "0.8.10+commit.fc410830.Emscripten.clang"
  },
  "schemaVersion": "3.4.3",
  "updatedAt": "2022-03-29T07:04:00.011Z",
  "networkType": "ethereum",
  "devdoc": {
    "kind": "dev",
    "methods": {},
    "version": 1
  },
  "userdoc": {
    "kind": "user",
    "methods": {},
    "version": 1
  }
}