{
  "contractName": "Market",
  "abi": [
    {
      "inputs": [],
      "stateMutability": "nonpayable",
      "type": "constructor"
    },
    {
      "anonymous": false,
      "inputs": [
        {
          "indexed": true,
          "internalType": "uint256",
          "name": "tokenId",
          "type": "uint256"
        },
        {
          "indexed": false,
          "internalType": "address",
          "name": "sender",
          "type": "address"
        },
        {
          "indexed": false,
          "internalType": "uint256",
          "name": "value",
          "type": "uint256"
        }
      ],
      "name": "AuctionBid",
      "type": "event"
    },
    {
      "anonymous": false,
      "inputs": [
        {
          "indexed": true,
          "internalType": "uint256",
          "name": "tokenId",
          "type": "uint256"
        }
      ],
      "name": "AuctionCanceled",
      "type": "event"
    },
    {
      "anonymous": false,
      "inputs": [
        {
          "indexed": true,
          "internalType": "uint256",
          "name": "tokenId",
          "type": "uint256"
        },
        {
          "indexed": false,
          "internalType": "uint256",
          "name": "duration",
          "type": "uint256"
        },
        {
          "indexed": false,
          "internalType": "uint256",
          "name": "reservePrice",
          "type": "uint256"
        }
      ],
      "name": "AuctionCreated",
      "type": "event"
    },
    {
      "anonymous": false,
      "inputs": [
        {
          "indexed": true,
          "internalType": "uint256",
          "name": "tokenId",
          "type": "uint256"
        },
        {
          "indexed": false,
          "internalType": "address",
          "name": "winner",
          "type": "address"
        },
        {
          "indexed": false,
          "internalType": "uint256",
          "name": "amount",
          "type": "uint256"
        }
      ],
      "name": "AuctionEnded",
      "type": "event"
    },
    {
      "anonymous": false,
      "inputs": [
        {
          "indexed": true,
          "internalType": "uint256",
          "name": "itemId",
          "type": "uint256"
        },
        {
          "indexed": true,
          "internalType": "uint256",
          "name": "tokenId",
          "type": "uint256"
        },
        {
          "indexed": true,
          "internalType": "address",
          "name": "nftContract",
          "type": "address"
        },
        {
          "indexed": false,
          "internalType": "address payable",
          "name": "seller",
          "type": "address"
        },
        {
          "indexed": false,
          "internalType": "address payable",
          "name": "owner",
          "type": "address"
        },
        {
          "indexed": false,
          "internalType": "enum Market.Status",
          "name": "status",
          "type": "uint8"
        }
      ],
      "name": "MarketItemCreated",
      "type": "event"
    },
    {
      "anonymous": false,
      "inputs": [
        {
          "indexed": true,
          "internalType": "uint256",
          "name": "itemId",
          "type": "uint256"
        },
        {
          "indexed": true,
          "internalType": "uint256",
          "name": "tokenId",
          "type": "uint256"
        }
      ],
      "name": "MarketItemRemoved",
      "type": "event"
    },
    {
      "inputs": [],
      "name": "MIN_BID_INCREMENT_PERCENT",
      "outputs": [
        {
          "internalType": "uint8",
          "name": "",
          "type": "uint8"
        }
      ],
      "stateMutability": "view",
      "type": "function",
      "constant": true
    },
    {
      "inputs": [],
      "name": "TIME_BUFFER",
      "outputs": [
        {
          "internalType": "uint16",
          "name": "",
          "type": "uint16"
        }
      ],
      "stateMutability": "view",
      "type": "function",
      "constant": true
    },
    {
      "inputs": [
        {
          "internalType": "uint256",
          "name": "",
          "type": "uint256"
        }
      ],
      "name": "auctions",
      "outputs": [
        {
          "internalType": "uint256",
          "name": "amount",
          "type": "uint256"
        },
        {
          "internalType": "uint256",
          "name": "duration",
          "type": "uint256"
        },
        {
          "internalType": "uint256",
          "name": "firstBidTime",
          "type": "uint256"
        },
        {
          "internalType": "uint256",
          "name": "reservePrice",
          "type": "uint256"
        },
        {
          "internalType": "address payable",
          "name": "bidder",
          "type": "address"
        },
        {
          "internalType": "address",
          "name": "curator",
          "type": "address"
        }
      ],
      "stateMutability": "view",
      "type": "function",
      "constant": true
    },
    {
      "inputs": [
        {
          "internalType": "uint256",
          "name": "_itemId",
          "type": "uint256"
        }
      ],
      "name": "fetchMarketItemDetail",
      "outputs": [
        {
          "components": [
            {
              "internalType": "uint256",
              "name": "itemId",
              "type": "uint256"
            },
            {
              "internalType": "uint256",
              "name": "tokenId",
              "type": "uint256"
            },
            {
              "internalType": "uint256",
              "name": "price",
              "type": "uint256"
            },
            {
              "internalType": "address payable",
              "name": "seller",
              "type": "address"
            },
            {
              "internalType": "address payable",
              "name": "owner",
              "type": "address"
            },
            {
              "internalType": "enum Market.Status",
              "name": "status",
              "type": "uint8"
            }
          ],
          "internalType": "struct Market.MarketItem",
          "name": "",
          "type": "tuple"
        }
      ],
      "stateMutability": "view",
      "type": "function",
      "constant": true
    },
    {
      "inputs": [
        {
          "internalType": "address",
          "name": "nftContract",
          "type": "address"
        },
        {
          "internalType": "uint256",
          "name": "tokenId",
          "type": "uint256"
        }
      ],
      "name": "createMarketItem",
      "outputs": [],
      "stateMutability": "payable",
      "type": "function",
      "payable": true
    },
    {
      "inputs": [
        {
          "internalType": "uint256",
          "name": "_itemId",
          "type": "uint256"
        }
      ],
      "name": "removeItem",
      "outputs": [],
      "stateMutability": "nonpayable",
      "type": "function"
    },
    {
      "inputs": [
        {
          "internalType": "uint256",
          "name": "_itemId",
          "type": "uint256"
        },
        {
          "internalType": "uint256",
          "name": "_price",
          "type": "uint256"
        }
      ],
      "name": "setFixedPrice",
      "outputs": [],
      "stateMutability": "nonpayable",
      "type": "function"
    },
    {
      "inputs": [
        {
          "internalType": "uint256",
          "name": "itemId",
          "type": "uint256"
        },
        {
          "internalType": "uint256",
          "name": "duration",
          "type": "uint256"
        },
        {
          "internalType": "uint256",
          "name": "reservePrice",
          "type": "uint256"
        }
      ],
      "name": "createAuction",
      "outputs": [],
      "stateMutability": "payable",
      "type": "function",
      "payable": true
    },
    {
      "inputs": [
        {
          "internalType": "uint256",
          "name": "itemId",
          "type": "uint256"
        },
        {
          "internalType": "address",
          "name": "contractAdd",
          "type": "address"
        }
      ],
      "name": "createMarketSale",
      "outputs": [],
      "stateMutability": "payable",
      "type": "function",
      "payable": true
    },
    {
      "inputs": [],
      "name": "fetchMarketItems",
      "outputs": [
        {
          "components": [
            {
              "internalType": "uint256",
              "name": "itemId",
              "type": "uint256"
            },
            {
              "internalType": "uint256",
              "name": "tokenId",
              "type": "uint256"
            },
            {
              "internalType": "uint256",
              "name": "price",
              "type": "uint256"
            },
            {
              "internalType": "address payable",
              "name": "seller",
              "type": "address"
            },
            {
              "internalType": "address payable",
              "name": "owner",
              "type": "address"
            },
            {
              "internalType": "enum Market.Status",
              "name": "status",
              "type": "uint8"
            }
          ],
          "internalType": "struct Market.MarketItem[]",
          "name": "",
          "type": "tuple[]"
        }
      ],
      "stateMutability": "view",
      "type": "function",
      "constant": true
    },
    {
      "inputs": [],
      "name": "fetchMyNFTs",
      "outputs": [
        {
          "components": [
            {
              "internalType": "uint256",
              "name": "itemId",
              "type": "uint256"
            },
            {
              "internalType": "uint256",
              "name": "tokenId",
              "type": "uint256"
            },
            {
              "internalType": "uint256",
              "name": "price",
              "type": "uint256"
            },
            {
              "internalType": "address payable",
              "name": "seller",
              "type": "address"
            },
            {
              "internalType": "address payable",
              "name": "owner",
              "type": "address"
            },
            {
              "internalType": "enum Market.Status",
              "name": "status",
              "type": "uint8"
            }
          ],
          "internalType": "struct Market.MarketItem[]",
          "name": "",
          "type": "tuple[]"
        }
      ],
      "stateMutability": "view",
      "type": "function",
      "constant": true
    },
    {
      "inputs": [],
      "name": "fetchItemsCreated",
      "outputs": [
        {
          "components": [
            {
              "internalType": "uint256",
              "name": "itemId",
              "type": "uint256"
            },
            {
              "internalType": "uint256",
              "name": "tokenId",
              "type": "uint256"
            },
            {
              "internalType": "uint256",
              "name": "price",
              "type": "uint256"
            },
            {
              "internalType": "address payable",
              "name": "seller",
              "type": "address"
            },
            {
              "internalType": "address payable",
              "name": "owner",
              "type": "address"
            },
            {
              "internalType": "enum Market.Status",
              "name": "status",
              "type": "uint8"
            }
          ],
          "internalType": "struct Market.MarketItem[]",
          "name": "",
          "type": "tuple[]"
        }
      ],
      "stateMutability": "view",
      "type": "function",
      "constant": true
    },
    {
      "inputs": [
        {
          "internalType": "uint256",
          "name": "itemId",
          "type": "uint256"
        }
      ],
      "name": "fetchAuction",
      "outputs": [
        {
          "components": [
            {
              "internalType": "uint256",
              "name": "amount",
              "type": "uint256"
            },
            {
              "internalType": "uint256",
              "name": "duration",
              "type": "uint256"
            },
            {
              "internalType": "uint256",
              "name": "firstBidTime",
              "type": "uint256"
            },
            {
              "internalType": "uint256",
              "name": "reservePrice",
              "type": "uint256"
            },
            {
              "internalType": "address payable",
              "name": "bidder",
              "type": "address"
            },
            {
              "internalType": "address",
              "name": "curator",
              "type": "address"
            }
          ],
          "internalType": "struct Market.Auction",
          "name": "",
          "type": "tuple"
        }
      ],
      "stateMutability": "view",
      "type": "function",
      "constant": true
    },
    {
      "inputs": [
        {
          "internalType": "uint256",
          "name": "itemId",
          "type": "uint256"
        },
        {
          "internalType": "uint256",
          "name": "amount",
          "type": "uint256"
        }
      ],
      "name": "createBid",
      "outputs": [],
      "stateMutability": "payable",
      "type": "function",
      "payable": true
    },
    {
      "inputs": [
        {
          "internalType": "uint256",
          "name": "itemId",
          "type": "uint256"
        },
        {
          "internalType": "address",
          "name": "nftContract",
          "type": "address"
        }
      ],
      "name": "endAuction",
      "outputs": [],
      "stateMutability": "payable",
      "type": "function",
      "payable": true
    },
    {
      "inputs": [
        {
          "internalType": "uint256",
          "name": "_itemId",
          "type": "uint256"
        }
      ],
      "name": "cancelAuction",
      "outputs": [],
      "stateMutability": "nonpayable",
      "type": "function"
    },
    {
      "inputs": [
        {
          "internalType": "uint256",
          "name": "itemId",
          "type": "uint256"
        }
      ],
      "name": "auctionEnds",
      "outputs": [
        {
          "internalType": "uint256",
          "name": "",
          "type": "uint256"
        }
      ],
      "stateMutability": "view",
      "type": "function",
      "constant": true
    }
  ],
  "bytecode": "0x608060405234801561001057600080fd5b50600160008190555033600360006101000a81548173ffffffffffffffffffffffffffffffffffffffff021916908373ffffffffffffffffffffffffffffffffffffffff160217905550613e09806100696000396000f3fe6080604052600436106100fe5760003560e01c80639bd7bb6811610095578063cbf8455d11610064578063cbf8455d1461031e578063cda4beef1461033a578063ce58ee8114610356578063dd5f851814610393578063f064c32e146103af576100fe565b80639bd7bb68146102715780639fc554091461029a578063b7751c71146102d7578063bc996819146102f3576100fe565b8063571a26a0116100d1578063571a26a0146101a057806371329171146101e25780637195e1241461020b57806396b5a75514610248576100fe565b80630f08efe014610103578063202e37401461012e57806339071b39146101595780635365313114610175575b600080fd5b34801561010f57600080fd5b506101186103da565b6040516101259190612f3d565b60405180910390f35b34801561013a57600080fd5b50610143610814565b6040516101509190612f3d565b60405180910390f35b610173600480360381019061016e9190612fce565b610b08565b005b34801561018157600080fd5b5061018a610e93565b604051610197919061302b565b60405180910390f35b3480156101ac57600080fd5b506101c760048036038101906101c29190613046565b610e98565b6040516101d9969594939291906130a0565b60405180910390f35b3480156101ee57600080fd5b5061020960048036038101906102049190613046565b610f14565b005b34801561021757600080fd5b50610232600480360381019061022d9190613046565b611171565b60405161023f919061318b565b60405180910390f35b34801561025457600080fd5b5061026f600480360381019061026a9190613046565b611272565b005b34801561027d57600080fd5b50610298600480360381019061029391906131a6565b6114ef565b005b3480156102a657600080fd5b506102c160048036038101906102bc9190613046565b611630565b6040516102ce91906131e6565b60405180910390f35b6102f160048036038101906102ec91906131a6565b611678565b005b3480156102ff57600080fd5b50610308611b44565b604051610315919061321d565b60405180910390f35b61033860048036038101906103339190612fce565b611b49565b005b610354600480360381019061034f9190613238565b611fc2565b005b34801561036257600080fd5b5061037d60048036038101906103789190613046565b612329565b60405161038a9190613306565b60405180910390f35b6103ad60048036038101906103a89190613321565b61245b565b005b3480156103bb57600080fd5b506103c4612782565b6040516103d19190612f3d565b60405180910390f35b606060006103e86001612b06565b90506000806000600190505b83811161052b57600073ffffffffffffffffffffffffffffffffffffffff166004600083815260200190815260200160002060030160009054906101000a900473ffffffffffffffffffffffffffffffffffffffff1673ffffffffffffffffffffffffffffffffffffffff1614610518576000600381111561047957610478612dc8565b5b6004600083815260200190815260200160002060040160149054906101000a900460ff1660038111156104af576104ae612dc8565b5b14806105025750600160038111156104ca576104c9612dc8565b5b6004600083815260200190815260200160002060040160149054906101000a900460ff166003811115610500576104ff612dc8565b5b145b15610517576001836105149190613390565b92505b5b8080610523906133e6565b9150506103f4565b5060008267ffffffffffffffff8111156105485761054761342f565b5b60405190808252806020026020018201604052801561058157816020015b61056e612c6c565b8152602001906001900390816105665790505b5090506000600190505b84811161080957600073ffffffffffffffffffffffffffffffffffffffff166004600083815260200190815260200160002060030160009054906101000a900473ffffffffffffffffffffffffffffffffffffffff1673ffffffffffffffffffffffffffffffffffffffff16146107f657600060038111156106105761060f612dc8565b5b6004600083815260200190815260200160002060040160149054906101000a900460ff16600381111561064657610645612dc8565b5b148061069957506001600381111561066157610660612dc8565b5b6004600083815260200190815260200160002060040160149054906101000a900460ff16600381111561069757610696612dc8565b5b145b156107f5576000600460008381526020019081526020016000209050806040518060c00160405290816000820154815260200160018201548152602001600282015481526020016003820160009054906101000a900473ffffffffffffffffffffffffffffffffffffffff1673ffffffffffffffffffffffffffffffffffffffff1673ffffffffffffffffffffffffffffffffffffffff1681526020016004820160009054906101000a900473ffffffffffffffffffffffffffffffffffffffff1673ffffffffffffffffffffffffffffffffffffffff1673ffffffffffffffffffffffffffffffffffffffff1681526020016004820160149054906101000a900460ff1660038111156107b0576107af612dc8565b5b60038111156107c2576107c1612dc8565b5b815250508385815181106107d9576107d861345e565b5b60200260200101819052506001846107f19190613390565b9350505b5b8080610801906133e6565b91505061058b565b508094505050505090565b606060006108226001612b06565b90506000806000600190505b8381116108c2573373ffffffffffffffffffffffffffffffffffffffff166004600083815260200190815260200160002060040160009054906101000a900473ffffffffffffffffffffffffffffffffffffffff1673ffffffffffffffffffffffffffffffffffffffff1614156108af576001826108ac9190613390565b91505b80806108ba906133e6565b91505061082e565b5060008167ffffffffffffffff8111156108df576108de61342f565b5b60405190808252806020026020018201604052801561091857816020015b610905612c6c565b8152602001906001900390816108fd5790505b5090506000600190505b848111610afd573373ffffffffffffffffffffffffffffffffffffffff166004600083815260200190815260200160002060040160009054906101000a900473ffffffffffffffffffffffffffffffffffffffff1673ffffffffffffffffffffffffffffffffffffffff161415610aea576000600460008381526020019081526020016000209050806040518060c00160405290816000820154815260200160018201548152602001600282015481526020016003820160009054906101000a900473ffffffffffffffffffffffffffffffffffffffff1673ffffffffffffffffffffffffffffffffffffffff1673ffffffffffffffffffffffffffffffffffffffff1681526020016004820160009054906101000a900473ffffffffffffffffffffffffffffffffffffffff1673ffffffffffffffffffffffffffffffffffffffff1673ffffffffffffffffffffffffffffffffffffffff1681526020016004820160149054906101000a900460ff166003811115610aa557610aa4612dc8565b5b6003811115610ab757610ab6612dc8565b5b81525050838681518110610ace57610acd61345e565b5b6020026020010181905250600185610ae69190613390565b9450505b8080610af5906133e6565b915050610922565b508094505050505090565b60026000541415610b4e576040517f08c379a0000000000000000000000000000000000000000000000000000000008152600401610b45906134ea565b60405180910390fd5b6002600081905550600360009054906101000a900473ffffffffffffffffffffffffffffffffffffffff1673ffffffffffffffffffffffffffffffffffffffff163373ffffffffffffffffffffffffffffffffffffffff1614610be6576040517f08c379a0000000000000000000000000000000000000000000000000000000008152600401610bdd90613556565b60405180910390fd5b60006004600084815260200190815260200160002060020154905060006004600085815260200190815260200160002060010154905060006003811115610c3057610c2f612dc8565b5b6004600086815260200190815260200160002060040160149054906101000a900460ff166003811115610c6657610c65612dc8565b5b14610ca6576040517f08c379a0000000000000000000000000000000000000000000000000000000008152600401610c9d906135e8565b60405180910390fd5b670de0b6b3a764000034610cba9190613637565b8214610cfb576040517f08c379a0000000000000000000000000000000000000000000000000000000008152600401610cf2906135e8565b60405180910390fd5b6004600085815260200190815260200160002060030160009054906101000a900473ffffffffffffffffffffffffffffffffffffffff1673ffffffffffffffffffffffffffffffffffffffff166108fc349081150290604051600060405180830381858888f19350505050158015610d77573d6000803e3d6000fd5b508273ffffffffffffffffffffffffffffffffffffffff166323b872dd3033846040518463ffffffff1660e01b8152600401610db593929190613668565b600060405180830381600087803b158015610dcf57600080fd5b505af1158015610de3573d6000803e3d6000fd5b50505050336004600086815260200190815260200160002060040160006101000a81548173ffffffffffffffffffffffffffffffffffffffff021916908373ffffffffffffffffffffffffffffffffffffffff16021790555060026004600086815260200190815260200160002060040160146101000a81548160ff02191690836003811115610e7657610e75612dc8565b5b0217905550610e856002612b14565b505060016000819055505050565b603c81565b60056020528060005260406000206000915090508060000154908060010154908060020154908060030154908060040160009054906101000a900473ffffffffffffffffffffffffffffffffffffffff16908060050160009054906101000a900473ffffffffffffffffffffffffffffffffffffffff16905086565b600360009054906101000a900473ffffffffffffffffffffffffffffffffffffffff1673ffffffffffffffffffffffffffffffffffffffff163373ffffffffffffffffffffffffffffffffffffffff1614610fa4576040517f08c379a0000000000000000000000000000000000000000000000000000000008152600401610f9b90613556565b60405180910390fd5b60016003811115610fb857610fb7612dc8565b5b6004600083815260200190815260200160002060040160149054906101000a900460ff166003811115610fee57610fed612dc8565b5b141561109a57600073ffffffffffffffffffffffffffffffffffffffff166005600083815260200190815260200160002060040160009054906101000a900473ffffffffffffffffffffffffffffffffffffffff1673ffffffffffffffffffffffffffffffffffffffff1614611099576040517f08c379a0000000000000000000000000000000000000000000000000000000008152600401611090906136eb565b60405180910390fd5b5b6004600082815260200190815260200160002060010154817f81121325e94c2acaef9f9ecac668b776310b294eec2b9aebda49e485696e543e60405160405180910390a360046000828152602001908152602001600020600080820160009055600182016000905560028201600090556003820160006101000a81549073ffffffffffffffffffffffffffffffffffffffff02191690556004820160006101000a81549073ffffffffffffffffffffffffffffffffffffffff02191690556004820160146101000a81549060ff0219169055505050565b611179612ce0565b600560008381526020019081526020016000206040518060c0016040529081600082015481526020016001820154815260200160028201548152602001600382015481526020016004820160009054906101000a900473ffffffffffffffffffffffffffffffffffffffff1673ffffffffffffffffffffffffffffffffffffffff1673ffffffffffffffffffffffffffffffffffffffff1681526020016005820160009054906101000a900473ffffffffffffffffffffffffffffffffffffffff1673ffffffffffffffffffffffffffffffffffffffff1673ffffffffffffffffffffffffffffffffffffffff16815250509050919050565b600260005414156112b8576040517f08c379a00000000000000000000000000000000000000000000000000000000081526004016112af906134ea565b60405180910390fd5b6002600081905550600360009054906101000a900473ffffffffffffffffffffffffffffffffffffffff1673ffffffffffffffffffffffffffffffffffffffff163373ffffffffffffffffffffffffffffffffffffffff1614611350576040517f08c379a000000000000000000000000000000000000000000000000000000000815260040161134790613556565b60405180910390fd5b8061135a81612b2a565b1561139a576040517f08c379a000000000000000000000000000000000000000000000000000000000815260040161139190613757565b60405180910390fd5b60006005600084815260200190815260200160002060020154146113f3576040517f08c379a00000000000000000000000000000000000000000000000000000000081526004016113ea906137c3565b60405180910390fd5b600560008381526020019081526020016000206000808201600090556001820160009055600282016000905560038201600090556004820160006101000a81549073ffffffffffffffffffffffffffffffffffffffff02191690556005820160006101000a81549073ffffffffffffffffffffffffffffffffffffffff0219169055505060036004600084815260200190815260200160002060040160146101000a81548160ff021916908360038111156114b1576114b0612dc8565b5b0217905550817f28601d865dccc9f113e15a7185c1b38c085d598c71250d3337916a428536d77160405160405180910390a250600160008190555050565b600360009054906101000a900473ffffffffffffffffffffffffffffffffffffffff1673ffffffffffffffffffffffffffffffffffffffff163373ffffffffffffffffffffffffffffffffffffffff161461157f576040517f08c379a000000000000000000000000000000000000000000000000000000000815260040161157690613556565b60405180910390fd5b60038081111561159257611591612dc8565b5b6004600084815260200190815260200160002060040160149054906101000a900460ff1660038111156115c8576115c7612dc8565b5b146115d257600080fd5b60006004600084815260200190815260200160002060040160146101000a81548160ff0219169083600381111561160c5761160b612dc8565b5b02179055508060046000848152602001908152602001600020600201819055505050565b600061167160056000848152602001908152602001600020600101546005600085815260200190815260200160002060020154612b9890919063ffffffff16565b9050919050565b600260005414156116be576040517f08c379a00000000000000000000000000000000000000000000000000000000081526004016116b5906134ea565b60405180910390fd5b6002600081905550816116d081612b2a565b15611710576040517f08c379a000000000000000000000000000000000000000000000000000000000815260040161170790613757565b60405180910390fd5b8260006005600083815260200190815260200160002060020154148061173d575061173a81611630565b42105b61177c576040517f08c379a00000000000000000000000000000000000000000000000000000000081526004016117739061382f565b60405180910390fd5b670de0b6b3a7640000346117909190613637565b83146117d1576040517f08c379a00000000000000000000000000000000000000000000000000000000081526004016117c89061389b565b60405180910390fd5b60008311611814576040517f08c379a000000000000000000000000000000000000000000000000000000000815260040161180b90613907565b60405180910390fd5b6000600560008681526020019081526020016000206000015414156118ac5742600560008681526020019081526020016000206002018190555060056000858152602001908152602001600020600301548310156118a7576040517f08c379a000000000000000000000000000000000000000000000000000000000815260040161189e90613973565b60405180910390fd5b611a06565b60006118c9670de0b6b3a764000085612bae90919063ffffffff16565b905060006118fe670de0b6b3a76400006005600089815260200190815260200160002060000154612bae90919063ffffffff16565b905061193c61192d606461191f600a60ff1685612bae90919063ffffffff16565b612bc490919063ffffffff16565b82612b9890919063ffffffff16565b82101561197e576040517f08c379a000000000000000000000000000000000000000000000000000000000815260040161197590613a05565b60405180910390fd5b60006119c06005600089815260200190815260200160002060040160009054906101000a900473ffffffffffffffffffffffffffffffffffffffff1683612bda565b905080611a02576040517f08c379a00000000000000000000000000000000000000000000000000000000081526004016119f990613a71565b60405180910390fd5b5050505b826005600086815260200190815260200160002060000181905550336005600086815260200190815260200160002060040160006101000a81548173ffffffffffffffffffffffffffffffffffffffff021916908373ffffffffffffffffffffffffffffffffffffffff160217905550611a8e603c61ffff1642612b9890919063ffffffff16565b611a9785611630565b1015611afc57611acf611aa985611630565b611ac1603c61ffff1642612b9890919063ffffffff16565b612c5690919063ffffffff16565b600560008681526020019081526020016000206001016000828254611af49190613390565b925050819055505b837fb8d756f2d1da4663767eb4d559780ace84f2f65a421a60ddcb47e8b2e5d2fd263385604051611b2e929190613a91565b60405180910390a2505060016000819055505050565b600a81565b60026000541415611b8f576040517f08c379a0000000000000000000000000000000000000000000000000000000008152600401611b86906134ea565b60405180910390fd5b60026000819055508160006005600083815260200190815260200160002060020154118015611bc65750611bc281611630565b4210155b611c05576040517f08c379a0000000000000000000000000000000000000000000000000000000008152600401611bfc90613b06565b60405180910390fd5b600060056000858152602001908152602001600020600001541415611c5f576040517f08c379a0000000000000000000000000000000000000000000000000000000008152600401611c5690613b72565b60405180910390fd5b6005600084815260200190815260200160002060040160009054906101000a900473ffffffffffffffffffffffffffffffffffffffff1673ffffffffffffffffffffffffffffffffffffffff163373ffffffffffffffffffffffffffffffffffffffff161480611d1c5750600360009054906101000a900473ffffffffffffffffffffffffffffffffffffffff1673ffffffffffffffffffffffffffffffffffffffff163373ffffffffffffffffffffffffffffffffffffffff16145b611d5b576040517f08c379a0000000000000000000000000000000000000000000000000000000008152600401611d5290613c04565b60405180910390fd5b60006005600085815260200190815260200160002060040160009054906101000a900473ffffffffffffffffffffffffffffffffffffffff169050600060056000868152602001908152602001600020600001549050600560008681526020019081526020016000206000808201600090556001820160009055600282016000905560038201600090556004820160006101000a81549073ffffffffffffffffffffffffffffffffffffffff02191690556005820160006101000a81549073ffffffffffffffffffffffffffffffffffffffff021916905550506000600460008781526020019081526020016000206001015490508473ffffffffffffffffffffffffffffffffffffffff166323b872dd3085846040518463ffffffff1660e01b8152600401611e8d93929190613668565b600060405180830381600087803b158015611ea757600080fd5b505af1158015611ebb573d6000803e3d6000fd5b50505050826004600088815260200190815260200160002060040160006101000a81548173ffffffffffffffffffffffffffffffffffffffff021916908373ffffffffffffffffffffffffffffffffffffffff16021790555060026004600088815260200190815260200160002060040160146101000a81548160ff02191690836003811115611f4e57611f4d612dc8565b5b0217905550816004600088815260200190815260200160002060020181905550611f786002612b14565b857fd2aa34a4fdbbc6dff6a3e56f46e0f3ae2a31d7785ff3487aa5c95c642acea5018484604051611faa929190613a91565b60405180910390a25050505060016000819055505050565b60026000541415612008576040517f08c379a0000000000000000000000000000000000000000000000000000000008152600401611fff906134ea565b60405180910390fd5b60026000819055508261201a81612b2a565b612059576040517f08c379a000000000000000000000000000000000000000000000000000000000815260040161205090613c70565b60405180910390fd5b600360009054906101000a900473ffffffffffffffffffffffffffffffffffffffff1673ffffffffffffffffffffffffffffffffffffffff163373ffffffffffffffffffffffffffffffffffffffff16146120e9576040517f08c379a00000000000000000000000000000000000000000000000000000000081526004016120e090613556565b60405180910390fd5b6003808111156120fc576120fb612dc8565b5b6004600086815260200190815260200160002060040160149054906101000a900460ff16600381111561213257612131612dc8565b5b1461213c57600080fd5b60016004600086815260200190815260200160002060040160146101000a81548160ff0219169083600381111561217657612175612dc8565b5b02179055506040518060c001604052806000815260200184815260200160008152602001838152602001600073ffffffffffffffffffffffffffffffffffffffff168152602001600360009054906101000a900473ffffffffffffffffffffffffffffffffffffffff1673ffffffffffffffffffffffffffffffffffffffff16815250600560008681526020019081526020016000206000820151816000015560208201518160010155604082015181600201556060820151816003015560808201518160040160006101000a81548173ffffffffffffffffffffffffffffffffffffffff021916908373ffffffffffffffffffffffffffffffffffffffff16021790555060a08201518160050160006101000a81548173ffffffffffffffffffffffffffffffffffffffff021916908373ffffffffffffffffffffffffffffffffffffffff160217905550905050600060046000868152602001908152602001600020600101549050807fd6eddd1118d71820909c1197aa966dbc15ed6f508554252169cc3d5ccac756ca8585604051612312929190613c90565b60405180910390a250506001600081905550505050565b612331612c6c565b600460008381526020019081526020016000206040518060c00160405290816000820154815260200160018201548152602001600282015481526020016003820160009054906101000a900473ffffffffffffffffffffffffffffffffffffffff1673ffffffffffffffffffffffffffffffffffffffff1673ffffffffffffffffffffffffffffffffffffffff1681526020016004820160009054906101000a900473ffffffffffffffffffffffffffffffffffffffff1673ffffffffffffffffffffffffffffffffffffffff1673ffffffffffffffffffffffffffffffffffffffff1681526020016004820160149054906101000a900460ff16600381111561243e5761243d612dc8565b5b60038111156124505761244f612dc8565b5b815250509050919050565b600260005414156124a1576040517f08c379a0000000000000000000000000000000000000000000000000000000008152600401612498906134ea565b60405180910390fd5b6002600081905550600360009054906101000a900473ffffffffffffffffffffffffffffffffffffffff1673ffffffffffffffffffffffffffffffffffffffff163373ffffffffffffffffffffffffffffffffffffffff1614612539576040517f08c379a000000000000000000000000000000000000000000000000000000000815260040161253090613556565b60405180910390fd5b6125436001612b14565b600061254f6001612b06565b90506040518060c00160405280828152602001838152602001600081526020013373ffffffffffffffffffffffffffffffffffffffff168152602001600073ffffffffffffffffffffffffffffffffffffffff1681526020016003808111156125bb576125ba612dc8565b5b8152506004600083815260200190815260200160002060008201518160000155602082015181600101556040820151816002015560608201518160030160006101000a81548173ffffffffffffffffffffffffffffffffffffffff021916908373ffffffffffffffffffffffffffffffffffffffff16021790555060808201518160040160006101000a81548173ffffffffffffffffffffffffffffffffffffffff021916908373ffffffffffffffffffffffffffffffffffffffff16021790555060a08201518160040160146101000a81548160ff021916908360038111156126a8576126a7612dc8565b5b02179055509050508273ffffffffffffffffffffffffffffffffffffffff166323b872dd3330856040518463ffffffff1660e01b81526004016126ed93929190613668565b600060405180830381600087803b15801561270757600080fd5b505af115801561271b573d6000803e3d6000fd5b505050508273ffffffffffffffffffffffffffffffffffffffff1682827fdcc19fe685c524be06bc4bb1c9b73b190237320e24f4abf3e68e5da391035b64336000600360405161276d93929190613cc8565b60405180910390a45060016000819055505050565b6060600360009054906101000a900473ffffffffffffffffffffffffffffffffffffffff1673ffffffffffffffffffffffffffffffffffffffff163373ffffffffffffffffffffffffffffffffffffffff1614612814576040517f08c379a000000000000000000000000000000000000000000000000000000000815260040161280b90613556565b60405180910390fd5b60006128206001612b06565b90506000806000600190505b8381116128c0573373ffffffffffffffffffffffffffffffffffffffff166004600083815260200190815260200160002060030160009054906101000a900473ffffffffffffffffffffffffffffffffffffffff1673ffffffffffffffffffffffffffffffffffffffff1614156128ad576001826128aa9190613390565b91505b80806128b8906133e6565b91505061282c565b5060008167ffffffffffffffff8111156128dd576128dc61342f565b5b60405190808252806020026020018201604052801561291657816020015b612903612c6c565b8152602001906001900390816128fb5790505b5090506000600190505b848111612afb573373ffffffffffffffffffffffffffffffffffffffff166004600083815260200190815260200160002060030160009054906101000a900473ffffffffffffffffffffffffffffffffffffffff1673ffffffffffffffffffffffffffffffffffffffff161415612ae8576000600460008381526020019081526020016000209050806040518060c00160405290816000820154815260200160018201548152602001600282015481526020016003820160009054906101000a900473ffffffffffffffffffffffffffffffffffffffff1673ffffffffffffffffffffffffffffffffffffffff1673ffffffffffffffffffffffffffffffffffffffff1681526020016004820160009054906101000a900473ffffffffffffffffffffffffffffffffffffffff1673ffffffffffffffffffffffffffffffffffffffff1673ffffffffffffffffffffffffffffffffffffffff1681526020016004820160149054906101000a900460ff166003811115612aa357612aa2612dc8565b5b6003811115612ab557612ab4612dc8565b5b81525050838681518110612acc57612acb61345e565b5b6020026020010181905250600185612ae49190613390565b9450505b8080612af3906133e6565b915050612920565b508094505050505090565b600081600001549050919050565b6001816000016000828254019250508190555050565b60008073ffffffffffffffffffffffffffffffffffffffff166005600084815260200190815260200160002060050160009054906101000a900473ffffffffffffffffffffffffffffffffffffffff1673ffffffffffffffffffffffffffffffffffffffff16149050919050565b60008183612ba69190613390565b905092915050565b60008183612bbc9190613cff565b905092915050565b60008183612bd29190613637565b905092915050565b6000808373ffffffffffffffffffffffffffffffffffffffff168361753090604051612c0590613d8a565b600060405180830381858888f193505050503d8060008114612c43576040519150601f19603f3d011682016040523d82523d6000602084013e612c48565b606091505b505090508091505092915050565b60008183612c649190613d9f565b905092915050565b6040518060c00160405280600081526020016000815260200160008152602001600073ffffffffffffffffffffffffffffffffffffffff168152602001600073ffffffffffffffffffffffffffffffffffffffff16815260200160006003811115612cda57612cd9612dc8565b5b81525090565b6040518060c0016040528060008152602001600081526020016000815260200160008152602001600073ffffffffffffffffffffffffffffffffffffffff168152602001600073ffffffffffffffffffffffffffffffffffffffff1681525090565b600081519050919050565b600082825260208201905092915050565b6000819050602082019050919050565b6000819050919050565b612d8181612d6e565b82525050565b600073ffffffffffffffffffffffffffffffffffffffff82169050919050565b6000612db282612d87565b9050919050565b612dc281612da7565b82525050565b7f4e487b7100000000000000000000000000000000000000000000000000000000600052602160045260246000fd5b60048110612e0857612e07612dc8565b5b50565b6000819050612e1982612df7565b919050565b6000612e2982612e0b565b9050919050565b612e3981612e1e565b82525050565b60c082016000820151612e556000850182612d78565b506020820151612e686020850182612d78565b506040820151612e7b6040850182612d78565b506060820151612e8e6060850182612db9565b506080820151612ea16080850182612db9565b5060a0820151612eb460a0850182612e30565b50505050565b6000612ec68383612e3f565b60c08301905092915050565b6000602082019050919050565b6000612eea82612d42565b612ef48185612d4d565b9350612eff83612d5e565b8060005b83811015612f30578151612f178882612eba565b9750612f2283612ed2565b925050600181019050612f03565b5085935050505092915050565b60006020820190508181036000830152612f578184612edf565b905092915050565b600080fd5b612f6d81612d6e565b8114612f7857600080fd5b50565b600081359050612f8a81612f64565b92915050565b6000612f9b82612d87565b9050919050565b612fab81612f90565b8114612fb657600080fd5b50565b600081359050612fc881612fa2565b92915050565b60008060408385031215612fe557612fe4612f5f565b5b6000612ff385828601612f7b565b925050602061300485828601612fb9565b9150509250929050565b600061ffff82169050919050565b6130258161300e565b82525050565b6000602082019050613040600083018461301c565b92915050565b60006020828403121561305c5761305b612f5f565b5b600061306a84828501612f7b565b91505092915050565b61307c81612d6e565b82525050565b61308b81612da7565b82525050565b61309a81612f90565b82525050565b600060c0820190506130b56000830189613073565b6130c26020830188613073565b6130cf6040830187613073565b6130dc6060830186613073565b6130e96080830185613082565b6130f660a0830184613091565b979650505050505050565b61310a81612f90565b82525050565b60c0820160008201516131266000850182612d78565b5060208201516131396020850182612d78565b50604082015161314c6040850182612d78565b50606082015161315f6060850182612d78565b5060808201516131726080850182612db9565b5060a082015161318560a0850182613101565b50505050565b600060c0820190506131a06000830184613110565b92915050565b600080604083850312156131bd576131bc612f5f565b5b60006131cb85828601612f7b565b92505060206131dc85828601612f7b565b9150509250929050565b60006020820190506131fb6000830184613073565b92915050565b600060ff82169050919050565b61321781613201565b82525050565b6000602082019050613232600083018461320e565b92915050565b60008060006060848603121561325157613250612f5f565b5b600061325f86828701612f7b565b935050602061327086828701612f7b565b925050604061328186828701612f7b565b9150509250925092565b60c0820160008201516132a16000850182612d78565b5060208201516132b46020850182612d78565b5060408201516132c76040850182612d78565b5060608201516132da6060850182612db9565b5060808201516132ed6080850182612db9565b5060a082015161330060a0850182612e30565b50505050565b600060c08201905061331b600083018461328b565b92915050565b6000806040838503121561333857613337612f5f565b5b600061334685828601612fb9565b925050602061335785828601612f7b565b9150509250929050565b7f4e487b7100000000000000000000000000000000000000000000000000000000600052601160045260246000fd5b600061339b82612d6e565b91506133a683612d6e565b9250827fffffffffffffffffffffffffffffffffffffffffffffffffffffffffffffffff038211156133db576133da613361565b5b828201905092915050565b60006133f182612d6e565b91507fffffffffffffffffffffffffffffffffffffffffffffffffffffffffffffffff82141561342457613423613361565b5b600182019050919050565b7f4e487b7100000000000000000000000000000000000000000000000000000000600052604160045260246000fd5b7f4e487b7100000000000000000000000000000000000000000000000000000000600052603260045260246000fd5b600082825260208201905092915050565b7f5265656e7472616e637947756172643a207265656e7472616e742063616c6c00600082015250565b60006134d4601f8361348d565b91506134df8261349e565b602082019050919050565b60006020820190508181036000830152613503816134c7565b9050919050565b7f596f7520617265206e6f7420746865206f776e65720000000000000000000000600082015250565b600061354060158361348d565b915061354b8261350a565b602082019050919050565b6000602082019050818103600083015261356f81613533565b9050919050565b7f506c65617365207375626d6974207468652061736b696e67207072696365206960008201527f6e206f7264657220746f20636f6d706c65746520746865207075726368617365602082015250565b60006135d260408361348d565b91506135dd82613576565b604082019050919050565b60006020820190508181036000830152613601816135c5565b9050919050565b7f4e487b7100000000000000000000000000000000000000000000000000000000600052601260045260246000fd5b600061364282612d6e565b915061364d83612d6e565b92508261365d5761365c613608565b5b828204905092915050565b600060608201905061367d6000830186613091565b61368a6020830185613091565b6136976040830184613073565b949350505050565b7f5468652061756374696f6e207374617274732100000000000000000000000000600082015250565b60006136d560138361348d565b91506136e08261369f565b602082019050919050565b60006020820190508181036000830152613704816136c8565b9050919050565b7f41756374696f6e20646f65736e27742065786973740000000000000000000000600082015250565b600061374160158361348d565b915061374c8261370b565b602082019050919050565b6000602082019050818103600083015261377081613734565b9050919050565b7f41756374696f6e20616c72656164792073746172746564000000000000000000600082015250565b60006137ad60178361348d565b91506137b882613777565b602082019050919050565b600060208201905081810360008301526137dc816137a0565b9050919050565b7f41756374696f6e20657870697265640000000000000000000000000000000000600082015250565b6000613819600f8361348d565b9150613824826137e3565b602082019050919050565b600060208201905081810360008301526138488161380c565b9050919050565b7f416d6f756e7420646f65736e277420657175616c206d73672e76616c75650000600082015250565b6000613885601e8361348d565b91506138908261384f565b602082019050919050565b600060208201905081810360008301526138b481613878565b9050919050565b7f416d6f756e74206d7573742062652067726561746572207468616e2030000000600082015250565b60006138f1601d8361348d565b91506138fc826138bb565b602082019050919050565b60006020820190508181036000830152613920816138e4565b9050919050565b7f4d7573742062696420726573657276655072696365206f72206d6f7265000000600082015250565b600061395d601d8361348d565b915061396882613927565b602082019050919050565b6000602082019050818103600083015261398c81613950565b9050919050565b7f4d75737420626964206d6f7265207468616e206c61737420626964206279204d60008201527f494e5f4249445f494e4352454d454e545f50455243454e5420616d6f756e7400602082015250565b60006139ef603f8361348d565b91506139fa82613993565b604082019050919050565b60006020820190508181036000830152613a1e816139e2565b9050919050565b7f4661696c20746f20726566756e64000000000000000000000000000000000000600082015250565b6000613a5b600e8361348d565b9150613a6682613a25565b602082019050919050565b60006020820190508181036000830152613a8a81613a4e565b9050919050565b6000604082019050613aa66000830185613091565b613ab36020830184613073565b9392505050565b7f41756374696f6e206861736e277420636f6d706c657465640000000000000000600082015250565b6000613af060188361348d565b9150613afb82613aba565b602082019050919050565b60006020820190508181036000830152613b1f81613ae3565b9050919050565b7f54686973206974656d206973206e6f74206f6e2061756374696f6e0000000000600082015250565b6000613b5c601b8361348d565b9150613b6782613b26565b602082019050919050565b60006020820190508181036000830152613b8b81613b4f565b9050919050565b7f4f6e6c7920626964646572206f72206f776e65722063616e20656e642061756360008201527f74696f6e00000000000000000000000000000000000000000000000000000000602082015250565b6000613bee60248361348d565b9150613bf982613b92565b604082019050919050565b60006020820190508181036000830152613c1d81613be1565b9050919050565b7f41756374696f6e20616c72656164792065786973747300000000000000000000600082015250565b6000613c5a60168361348d565b9150613c6582613c24565b602082019050919050565b60006020820190508181036000830152613c8981613c4d565b9050919050565b6000604082019050613ca56000830185613073565b613cb26020830184613073565b9392505050565b613cc281612e1e565b82525050565b6000606082019050613cdd6000830186613082565b613cea6020830185613082565b613cf76040830184613cb9565b949350505050565b6000613d0a82612d6e565b9150613d1583612d6e565b9250817fffffffffffffffffffffffffffffffffffffffffffffffffffffffffffffffff0483118215151615613d4e57613d4d613361565b5b828202905092915050565b600081905092915050565b50565b6000613d74600083613d59565b9150613d7f82613d64565b600082019050919050565b6000613d9582613d67565b9150819050919050565b6000613daa82612d6e565b9150613db583612d6e565b925082821015613dc857613dc7613361565b5b82820390509291505056fea2646970667358221220966d91bb2610fbf16123dfad899a8631963cafc08e3ba6a23debc2cec45c0d8f64736f6c634300080a0033",
  "immutableReferences": {},
  "source": "// SPDX-License-Identifier: MIT\r\npragma solidity ^0.8.3;\r\n\r\nimport \"@openzeppelin/contracts/utils/Counters.sol\";\r\nimport \"@openzeppelin/contracts/utils/math/SafeMath.sol\";\r\nimport \"@openzeppelin/contracts/security/ReentrancyGuard.sol\";\r\nimport \"@openzeppelin/contracts/token/ERC721/ERC721.sol\";\r\n\r\ncontract Market is ReentrancyGuard {\r\n    using Counters for Counters.Counter;\r\n    Counters.Counter private _itemIds;\r\n    Counters.Counter private _itemsSold;\r\n\r\n    address payable owner;\r\n\r\n    constructor() {\r\n        owner = payable(msg.sender);\r\n    }\r\n\r\n    /* \r\n        BuyNow: The item can be sold in a fixed price\r\n        OnAuction: The item can be sold in auction\r\n        Sold: The item has been sold\r\n        New: Unsold\r\n     */\r\n\r\n    enum Status {\r\n        BuyNow,\r\n        OnAuction,\r\n        Sold,\r\n        New\r\n    }\r\n\r\n    struct MarketItem {\r\n        uint256 itemId;\r\n        uint256 tokenId;\r\n        uint256 price;\r\n        address payable seller;\r\n        address payable owner;\r\n        Status status;\r\n    }\r\n\r\n    /* map the itemId to the Item */\r\n    mapping(uint256 => MarketItem) private idToMktItem;\r\n\r\n    /* Returns the detail of Item */\r\n    function fetchMarketItemDetail(uint256 _itemId)\r\n        public\r\n        view\r\n        returns (MarketItem memory)\r\n    {\r\n        return idToMktItem[_itemId];\r\n    }\r\n\r\n    /* Reverts if the transaction is not sent by the owner */\r\n    modifier isOwner() {\r\n        // The auction exists if the curator is not null.\r\n        require(msg.sender == owner, \"You are not the owner\");\r\n        _;\r\n    }\r\n\r\n    /* Places an nft to the market */\r\n    event MarketItemCreated(\r\n        uint256 indexed itemId,\r\n        uint256 indexed tokenId,\r\n        address indexed nftContract,\r\n        address payable seller,\r\n        address payable owner,\r\n        Status status\r\n    );\r\n\r\n    function createMarketItem(address nftContract, uint256 tokenId)\r\n        public\r\n        payable\r\n        nonReentrant\r\n        isOwner\r\n    {\r\n        _itemIds.increment();\r\n        uint256 itemId = _itemIds.current();\r\n\r\n        idToMktItem[itemId] = MarketItem(\r\n            itemId,\r\n            tokenId,\r\n            0,\r\n            payable(msg.sender),\r\n            payable(address(0)),\r\n            Status.New\r\n        );\r\n\r\n        /* Transfers the nft from the creator to the contract */\r\n        IERC721(nftContract).transferFrom(msg.sender, address(this), tokenId);\r\n        emit MarketItemCreated(\r\n            itemId,\r\n            tokenId,\r\n            nftContract,\r\n            payable(msg.sender),\r\n            payable(address(0)),\r\n            Status.New\r\n        );\r\n    }\r\n\r\n    event MarketItemRemoved(uint256 indexed itemId, uint256 indexed tokenId);\r\n\r\n    /* Remove Item from mkt */\r\n    function removeItem(uint256 _itemId) public isOwner {\r\n        /* if the item is on auction and the auction starts, it can't be removed*/\r\n        if (idToMktItem[_itemId].status == Status.OnAuction) {\r\n            require(\r\n                auctions[_itemId].bidder == address(0),\r\n                \"The auction starts!\"\r\n            );\r\n        }\r\n        emit MarketItemRemoved(_itemId, idToMktItem[_itemId].tokenId);\r\n        delete idToMktItem[_itemId];\r\n    }\r\n\r\n    /* Sets fixed price to sell */\r\n    function setFixedPrice(uint256 _itemId, uint256 _price) public isOwner {\r\n        require(idToMktItem[_itemId].status == Status.New);\r\n        idToMktItem[_itemId].status = Status.BuyNow;\r\n        idToMktItem[_itemId].price = _price;\r\n    }\r\n\r\n    /* Creates Auction */\r\n    function createAuction(\r\n        uint256 itemId,\r\n        uint256 duration,\r\n        uint256 reservePrice\r\n    ) public payable nonReentrant auctionNonExistant(itemId) isOwner {\r\n        require(idToMktItem[itemId].status == Status.New);\r\n        idToMktItem[itemId].status = Status.OnAuction;\r\n        // Initialize the auction details, including null values.\r\n        auctions[itemId] = Auction({\r\n            duration: duration,\r\n            reservePrice: reservePrice,\r\n            curator: owner,\r\n            amount: 0,\r\n            firstBidTime: 0,\r\n            bidder: payable(address(0))\r\n        });\r\n        uint256 tokenId = idToMktItem[itemId].tokenId;\r\n        // Emit an event describing the new auction.\r\n        emit AuctionCreated(tokenId, duration, reservePrice);\r\n    }\r\n\r\n    /* Creates the sale of a market item */\r\n    /* Transfers ownership of the item, as well as funds between parties */\r\n    function createMarketSale(uint256 itemId, address contractAdd)\r\n        public\r\n        payable\r\n        nonReentrant\r\n        isOwner\r\n    {\r\n        uint256 price = idToMktItem[itemId].price;\r\n        uint256 tokenId = idToMktItem[itemId].tokenId;\r\n        require(\r\n            idToMktItem[itemId].status == Status.BuyNow,\r\n            \"Please submit the asking price in order to complete the purchase\"\r\n        );\r\n        require(\r\n            price == msg.value / (1 ether),\r\n            \"Please submit the asking price in order to complete the purchase\"\r\n        );\r\n\r\n        idToMktItem[itemId].seller.transfer(msg.value);\r\n        IERC721(contractAdd).transferFrom(address(this), msg.sender, tokenId);\r\n        idToMktItem[itemId].owner = payable(msg.sender);\r\n        idToMktItem[itemId].status = Status.Sold;\r\n        _itemsSold.increment();\r\n    }\r\n\r\n    /* Returns all unsold market items */\r\n    function fetchMarketItems() public view returns (MarketItem[] memory) {\r\n        uint256 totalItems = _itemIds.current();\r\n        uint256 unsoldItemsCount = 0;\r\n        uint256 currenIndex = 0;\r\n\r\n        for (uint256 i = 1; i <= totalItems; i++) {\r\n            /* if the item exsit */\r\n            if (idToMktItem[i].seller != address(0)) {\r\n                /* Only set the status in BUYNOW or ONAUCTION can be listed */\r\n                if (\r\n                    idToMktItem[i].status == Status.BuyNow ||\r\n                    idToMktItem[i].status == Status.OnAuction\r\n                ) {\r\n                    unsoldItemsCount += 1;\r\n                }\r\n            }\r\n        }\r\n\r\n        MarketItem[] memory items = new MarketItem[](unsoldItemsCount);\r\n        for (uint256 i = 1; i <= totalItems; i++) {\r\n            if (idToMktItem[i].seller != address(0)) {\r\n                if (\r\n                    idToMktItem[i].status == Status.BuyNow ||\r\n                    idToMktItem[i].status == Status.OnAuction\r\n                ) {\r\n                    MarketItem storage currentItem = idToMktItem[i];\r\n                    items[currenIndex] = currentItem;\r\n                    currenIndex = currenIndex + 1;\r\n                }\r\n            }\r\n        }\r\n        return items;\r\n    }\r\n\r\n    /* Returns items purchased */\r\n    function fetchMyNFTs() public view returns (MarketItem[] memory) {\r\n        uint256 totalItems = _itemIds.current();\r\n        uint256 currenIndex = 0;\r\n        uint256 myItemsCount = 0;\r\n\r\n        for (uint256 i = 1; i <= totalItems; i++) {\r\n            if (idToMktItem[i].owner == msg.sender) {\r\n                myItemsCount += 1;\r\n            }\r\n        }\r\n\r\n        MarketItem[] memory items = new MarketItem[](myItemsCount);\r\n        for (uint256 i = 1; i <= totalItems; i++) {\r\n            if (idToMktItem[i].owner == msg.sender) {\r\n                MarketItem storage currentItem = idToMktItem[i];\r\n                items[currenIndex] = currentItem;\r\n                currenIndex = currenIndex + 1;\r\n            }\r\n        }\r\n        return items;\r\n    }\r\n\r\n    /* Returns only items a user has created */\r\n    function fetchItemsCreated()\r\n        public\r\n        view\r\n        isOwner\r\n        returns (MarketItem[] memory)\r\n    {\r\n        uint256 totalItems = _itemIds.current();\r\n        uint256 currenIndex = 0;\r\n        uint256 createdItemsCount = 0;\r\n\r\n        for (uint256 i = 1; i <= totalItems; i++) {\r\n            if (idToMktItem[i].seller == msg.sender) {\r\n                createdItemsCount += 1;\r\n            }\r\n        }\r\n\r\n        MarketItem[] memory items = new MarketItem[](createdItemsCount);\r\n        for (uint256 i = 1; i <= totalItems; i++) {\r\n            if (idToMktItem[i].seller == msg.sender) {\r\n                MarketItem storage currentItem = idToMktItem[i];\r\n                items[currenIndex] = currentItem;\r\n                currenIndex = currenIndex + 1;\r\n            }\r\n        }\r\n        return items;\r\n    }\r\n\r\n    /* Auction */\r\n\r\n    // Use OpenZeppelin's SafeMath library to prevent overflows.\r\n    using SafeMath for uint256;\r\n\r\n    // ============ Constants ============\r\n\r\n    // The minimum amount of time left in an auction after a new bid is created; 15 min.\r\n    uint16 public constant TIME_BUFFER = 60;\r\n    // The ETH needed above the current bid for a new bid to be valid; 0.001 ETH.\r\n    uint8 public constant MIN_BID_INCREMENT_PERCENT = 10;\r\n    // Interface constant for ERC721, to check values in constructor.\r\n    bytes4 private constant ERC721_INTERFACE_ID = 0x80ac58cd;\r\n\r\n    // A mapping of all of the auctions currently running.\r\n    mapping(uint256 => Auction) public auctions;\r\n\r\n    // ============ Structs ============\r\n\r\n    struct Auction {\r\n        // The value of the current highest bid.\r\n        uint256 amount;\r\n        // The amount of time that the auction should run for,\r\n        // after the first bid was made.\r\n        uint256 duration;\r\n        // The time of the first bid.\r\n        uint256 firstBidTime;\r\n        // The minimum price of the first bid.\r\n        uint256 reservePrice;\r\n        // The address of the current highest bid.\r\n        address payable bidder;\r\n        // The address of the auction's curator. The curator\r\n        // can cancel the auction if it hasn't had a bid yet.\r\n        address curator;\r\n    }\r\n\r\n    // ============ Events ============\r\n\r\n    // All of the details of a new auction,\r\n    // with an index created for the tokenId.\r\n    event AuctionCreated(\r\n        uint256 indexed tokenId,\r\n        uint256 duration,\r\n        uint256 reservePrice\r\n    );\r\n\r\n    // All of the details of a new bid,\r\n    // with an index created for the tokenId.\r\n    event AuctionBid(uint256 indexed tokenId, address sender, uint256 value);\r\n\r\n    // All of the details of an auction's cancelation,\r\n    // with an index created for the tokenId.\r\n    event AuctionCanceled(uint256 indexed tokenId);\r\n\r\n    // All of the details of an auction's close,\r\n    // with an index created for the tokenId.\r\n    event AuctionEnded(uint256 indexed tokenId, address winner, uint256 amount);\r\n\r\n    // ============ Modifiers ============\r\n\r\n    // Reverts if the auction does not exist.\r\n    modifier auctionExists(uint256 itemId) {\r\n        // The auction exists if the curator is not null.\r\n        require(!auctionCuratorIsNull(itemId), \"Auction doesn't exist\");\r\n        _;\r\n    }\r\n\r\n    // Reverts if the auction exists.\r\n    modifier auctionNonExistant(uint256 itemId) {\r\n        // The auction does not exist if the curator is null.\r\n        require(auctionCuratorIsNull(itemId), \"Auction already exists\");\r\n        _;\r\n    }\r\n\r\n    // Reverts if the auction is expired.\r\n    modifier auctionNotExpired(uint256 itemId) {\r\n        require(\r\n            // Auction is not expired if there's never been a bid, or if the\r\n            // current time is less than the time at which the auction ends.\r\n            auctions[itemId].firstBidTime == 0 ||\r\n                block.timestamp < auctionEnds(itemId),\r\n            \"Auction expired\"\r\n        );\r\n        _;\r\n    }\r\n\r\n    // Reverts if the auction is not complete.\r\n    // Auction is complete if there was a bid, and the time has run out.\r\n    modifier auctionComplete(uint256 itemId) {\r\n        require(\r\n            // Auction is complete if there has been a bid, and the current time\r\n            // is greater than the auction's end time.\r\n            auctions[itemId].firstBidTime > 0 &&\r\n                block.timestamp >= auctionEnds(itemId),\r\n            \"Auction hasn't completed\"\r\n        );\r\n        _;\r\n    }\r\n\r\n    /* fetch the detail from auctions */\r\n    function fetchAuction(uint256 itemId) public view returns (Auction memory) {\r\n        return auctions[itemId];\r\n    }\r\n\r\n    // ============ Create Bid ============\r\n    function createBid(uint256 itemId, uint256 amount)\r\n        public\r\n        payable\r\n        nonReentrant\r\n        auctionExists(itemId)\r\n        auctionNotExpired(itemId)\r\n    {\r\n        // Validate that the user's expected bid value matches the ETH deposit.\r\n        require(\r\n            amount == msg.value / (1 ether),\r\n            \"Amount doesn't equal msg.value\"\r\n        );\r\n        require(amount > 0, \"Amount must be greater than 0\");\r\n        // Check if the current bid amount is 0.\r\n        if (auctions[itemId].amount == 0) {\r\n            // If so, it is the first bid.\r\n            auctions[itemId].firstBidTime = block.timestamp;\r\n            // We only need to check if the bid matches reserve bid for the first bid,\r\n            // since future checks will need to be higher than any previous bid.\r\n            require(\r\n                amount >= auctions[itemId].reservePrice,\r\n                \"Must bid reservePrice or more\"\r\n            );\r\n        } else {\r\n            // Check that the new bid is sufficiently higher than the previous bid, by\r\n            // the percentage defined as MIN_BID_INCREMENT_PERCENT.\r\n            //convert ether to wei to avoid the demical\r\n            uint256 parsedAmount = amount.mul(1 ether);\r\n            uint256 parsedFormerAmount = auctions[itemId].amount.mul(1 ether);\r\n\r\n            require(\r\n                parsedAmount >=\r\n                    parsedFormerAmount.add(\r\n                        // Add 10% of the current bid to the current bid.\r\n                        parsedFormerAmount.mul(MIN_BID_INCREMENT_PERCENT).div(\r\n                            100\r\n                        )\r\n                    ),\r\n                \"Must bid more than last bid by MIN_BID_INCREMENT_PERCENT amount\"\r\n            );\r\n\r\n            // Refund the previous bidder.\r\n            bool result = attemptETHTransfer(\r\n                auctions[itemId].bidder,\r\n                parsedFormerAmount\r\n            );\r\n            require(result, \"Fail to refund\");\r\n        }\r\n        // Update the current auction.\r\n        auctions[itemId].amount = amount;\r\n        auctions[itemId].bidder = payable(msg.sender);\r\n        // Compare the auction's end time with the current time plus the 15 minute extension,\r\n        // to see whether we're near the auctions end and should extend the auction.\r\n        if (auctionEnds(itemId) < block.timestamp.add(TIME_BUFFER)) {\r\n            // We add onto the duration whenever time increment is required, so\r\n            // that the auctionEnds at the current time plus the buffer.\r\n            auctions[itemId].duration += block.timestamp.add(TIME_BUFFER).sub(\r\n                auctionEnds(itemId)\r\n            );\r\n        }\r\n        // Emit the event that a bid has been made.\r\n        emit AuctionBid(itemId, msg.sender, amount);\r\n    }\r\n\r\n    // Sending ETH is not guaranteed complete, and the method used here will return false if\r\n    // it fails. For example, a contract can block ETH transfer, or might use\r\n    // an excessive amount of gas, thereby griefing a new bidder.\r\n    // We should limit the gas used in transfers, and handle failure cases.\r\n    function attemptETHTransfer(address to, uint256 value)\r\n        private\r\n        returns (bool)\r\n    {\r\n        // Here increase the gas limit a reasonable amount above the default, and try\r\n        // to send ETH to the recipient.\r\n        // NOTE: This might allow the recipient to attempt a limited reentrancy attack.\r\n        (bool success, ) = to.call{value: value, gas: 30000}(\"\");\r\n        return success;\r\n    }\r\n\r\n    // ============ End Auction ============\r\n    function endAuction(uint256 itemId, address nftContract)\r\n        public\r\n        payable\r\n        nonReentrant\r\n        auctionComplete(itemId)\r\n    {\r\n        require(auctions[itemId].amount != 0, \"This item is not on auction\");\r\n        require(\r\n            msg.sender == auctions[itemId].bidder || msg.sender == owner,\r\n            \"Only bidder or owner can end auction\"\r\n        );\r\n        // Store relevant auction data in memory for the life of this function.\r\n        address winner = auctions[itemId].bidder;\r\n        uint256 amount = auctions[itemId].amount;\r\n        // Remove all auction data for this token from storage.\r\n        delete auctions[itemId];\r\n        // We don't use safeTransferFrom, to prevent reverts at this point,\r\n        // which would break the auction.\r\n        uint256 tokenId = idToMktItem[itemId].tokenId;\r\n        IERC721(nftContract).transferFrom(address(this), winner, tokenId);\r\n        idToMktItem[itemId].owner = payable(winner);\r\n        idToMktItem[itemId].status = Status.Sold;\r\n        idToMktItem[itemId].price = amount;\r\n        _itemsSold.increment();\r\n        // Emit an event describing the end of the auction.\r\n        emit AuctionEnded(itemId, winner, amount);\r\n    }\r\n\r\n    // ============ Cancel Auction ============\r\n\r\n    function cancelAuction(uint256 _itemId)\r\n        public\r\n        nonReentrant\r\n        isOwner\r\n        auctionExists(_itemId)\r\n    {\r\n        // Check that there hasn't already been a bid for this NFT.\r\n        require(\r\n            uint256(auctions[_itemId].firstBidTime) == 0,\r\n            \"Auction already started\"\r\n        );\r\n        // Remove all data about the auction.\r\n        delete auctions[_itemId];\r\n        // Switch the status of the item to NEW\r\n        idToMktItem[_itemId].status = Status.New;\r\n        // Emit an event describing that the auction has been canceled.\r\n        emit AuctionCanceled(_itemId);\r\n    }\r\n\r\n    // Returns true if the auction's curator is set to the null address.\r\n    function auctionCuratorIsNull(uint256 itemId) private view returns (bool) {\r\n        // The auction does not exist if the curator is the null address,\r\n        // since the NFT would not have been transferred in `createAuction`.\r\n        return auctions[itemId].curator == address(0);\r\n    }\r\n\r\n    // Returns the timestamp at which an auction will finish.\r\n    function auctionEnds(uint256 itemId) public view returns (uint256) {\r\n        // Derived by adding the auction's duration to the time of the first bid.\r\n        // NOTE: duration can be extended conditionally after each new bid is added.\r\n        return auctions[itemId].firstBidTime.add(auctions[itemId].duration);\r\n    }\r\n}\r\n",
  "sourcePath": "C:\\Users\\33\\Desktop\\almamater88\\digital_museum\\almamaster88\\src\\Web3\\contracts\\Market.sol",
  "compiler": {
    "name": "solc",
    "version": "0.8.10+commit.fc410830.Emscripten.clang"
  },
  "schemaVersion": "3.4.3",
  "updatedAt": "2022-02-18T09:03:32.235Z",
  "networkType": "ethereum",
  "devdoc": {
    "kind": "dev",
    "methods": {},
    "version": 1
  },
  "userdoc": {
    "kind": "user",
    "methods": {},
    "version": 1
  }
}