{
  "contractName": "Ballot",
  "abi": [
    {
      "inputs": [
        {
          "internalType": "bytes32[]",
          "name": "proposalNames",
          "type": "bytes32[]"
        }
      ],
      "stateMutability": "nonpayable",
      "type": "constructor"
    },
    {
      "inputs": [],
      "name": "chairperson",
      "outputs": [
        {
          "internalType": "address",
          "name": "",
          "type": "address"
        }
      ],
      "stateMutability": "view",
      "type": "function"
    },
    {
      "inputs": [
        {
          "internalType": "uint256",
          "name": "",
          "type": "uint256"
        }
      ],
      "name": "proposals",
      "outputs": [
        {
          "internalType": "bytes32",
          "name": "name",
          "type": "bytes32"
        },
        {
          "internalType": "uint256",
          "name": "voteCount",
          "type": "uint256"
        }
      ],
      "stateMutability": "view",
      "type": "function"
    },
    {
      "inputs": [
        {
          "internalType": "address",
          "name": "",
          "type": "address"
        }
      ],
      "name": "voters",
      "outputs": [
        {
          "internalType": "uint256",
          "name": "weight",
          "type": "uint256"
        },
        {
          "internalType": "bool",
          "name": "voted",
          "type": "bool"
        },
        {
          "internalType": "address",
          "name": "delegate",
          "type": "address"
        },
        {
          "internalType": "uint256",
          "name": "vote",
          "type": "uint256"
        }
      ],
      "stateMutability": "view",
      "type": "function"
    },
    {
      "inputs": [
        {
          "internalType": "address",
          "name": "voter",
          "type": "address"
        }
      ],
      "name": "giveRightToVote",
      "outputs": [],
      "stateMutability": "nonpayable",
      "type": "function"
    },
    {
      "inputs": [
        {
          "internalType": "address",
          "name": "to",
          "type": "address"
        }
      ],
      "name": "delegate",
      "outputs": [],
      "stateMutability": "nonpayable",
      "type": "function"
    },
    {
      "inputs": [
        {
          "internalType": "uint256",
          "name": "proposal",
          "type": "uint256"
        }
      ],
      "name": "vote",
      "outputs": [],
      "stateMutability": "nonpayable",
      "type": "function"
    },
    {
      "inputs": [],
      "name": "winningProposal",
      "outputs": [
        {
          "internalType": "uint256",
          "name": "winningProposal_",
          "type": "uint256"
        }
      ],
      "stateMutability": "view",
      "type": "function"
    },
    {
      "inputs": [],
      "name": "winnerName",
      "outputs": [
        {
          "internalType": "bytes32",
          "name": "winnerName_",
          "type": "bytes32"
        }
      ],
      "stateMutability": "view",
      "type": "function"
    }
  ],
  "bytecode": "0x60806040523480156200001157600080fd5b506040516200146538038062001465833981810160405281019062000037919062000342565b336000806101000a81548173ffffffffffffffffffffffffffffffffffffffff021916908373ffffffffffffffffffffffffffffffffffffffff16021790555060018060008060009054906101000a900473ffffffffffffffffffffffffffffffffffffffff1673ffffffffffffffffffffffffffffffffffffffff1673ffffffffffffffffffffffffffffffffffffffff1681526020019081526020016000206000018190555060005b81518110156200017657600260405180604001604052808484815181106200010f576200010e62000393565b5b60200260200101518152602001600081525090806001815401808255809150506001900390600052602060002090600202016000909190919091506000820151816000015560208201518160010155505080806200016d90620003fb565b915050620000e2565b505062000449565b6000604051905090565b600080fd5b600080fd5b600080fd5b6000601f19601f8301169050919050565b7f4e487b7100000000000000000000000000000000000000000000000000000000600052604160045260246000fd5b620001e28262000197565b810181811067ffffffffffffffff82111715620002045762000203620001a8565b5b80604052505050565b6000620002196200017e565b9050620002278282620001d7565b919050565b600067ffffffffffffffff8211156200024a5762000249620001a8565b5b602082029050602081019050919050565b600080fd5b6000819050919050565b620002758162000260565b81146200028157600080fd5b50565b60008151905062000295816200026a565b92915050565b6000620002b2620002ac846200022c565b6200020d565b90508083825260208201905060208402830185811115620002d857620002d76200025b565b5b835b81811015620003055780620002f0888262000284565b845260208401935050602081019050620002da565b5050509392505050565b600082601f83011262000327576200032662000192565b5b8151620003398482602086016200029b565b91505092915050565b6000602082840312156200035b576200035a62000188565b5b600082015167ffffffffffffffff8111156200037c576200037b6200018d565b5b6200038a848285016200030f565b91505092915050565b7f4e487b7100000000000000000000000000000000000000000000000000000000600052603260045260246000fd5b7f4e487b7100000000000000000000000000000000000000000000000000000000600052601160045260246000fd5b6000819050919050565b60006200040882620003f1565b91507fffffffffffffffffffffffffffffffffffffffffffffffffffffffffffffffff8214156200043e576200043d620003c2565b5b600182019050919050565b61100c80620004596000396000f3fe608060405234801561001057600080fd5b50600436106100885760003560e01c8063609ff1bd1161005b578063609ff1bd146101145780639e7b8d6114610132578063a3ec138d1461014e578063e2ba53f01461018157610088565b80630121b93f1461008d578063013cf08b146100a95780632e4176cf146100da5780635c19a95c146100f8575b600080fd5b6100a760048036038101906100a291906109e5565b61019f565b005b6100c360048036038101906100be91906109e5565b6102e6565b6040516100d1929190610a3a565b60405180910390f35b6100e261031a565b6040516100ef9190610aa4565b60405180910390f35b610112600480360381019061010d9190610aeb565b61033e565b005b61011c6106da565b6040516101299190610b18565b60405180910390f35b61014c60048036038101906101479190610aeb565b610762565b005b61016860048036038101906101639190610aeb565b610919565b6040516101789493929190610b4e565b60405180910390f35b610189610976565b6040516101969190610b93565b60405180910390f35b6000600160003373ffffffffffffffffffffffffffffffffffffffff1673ffffffffffffffffffffffffffffffffffffffff168152602001908152602001600020905060008160000154141561022a576040517f08c379a000000000000000000000000000000000000000000000000000000000815260040161022190610c0b565b60405180910390fd5b8060010160009054906101000a900460ff161561027c576040517f08c379a000000000000000000000000000000000000000000000000000000000815260040161027390610c77565b60405180910390fd5b60018160010160006101000a81548160ff0219169083151502179055508181600201819055508060000154600283815481106102bb576102ba610c97565b5b906000526020600020906002020160010160008282546102db9190610cf5565b925050819055505050565b600281815481106102f657600080fd5b90600052602060002090600202016000915090508060000154908060010154905082565b60008054906101000a900473ffffffffffffffffffffffffffffffffffffffff1681565b6000600160003373ffffffffffffffffffffffffffffffffffffffff1673ffffffffffffffffffffffffffffffffffffffff16815260200190815260200160002090508060010160009054906101000a900460ff16156103d3576040517f08c379a00000000000000000000000000000000000000000000000000000000081526004016103ca90610d97565b60405180910390fd5b3373ffffffffffffffffffffffffffffffffffffffff168273ffffffffffffffffffffffffffffffffffffffff161415610442576040517f08c379a000000000000000000000000000000000000000000000000000000000815260040161043990610e03565b60405180910390fd5b5b600073ffffffffffffffffffffffffffffffffffffffff16600160008473ffffffffffffffffffffffffffffffffffffffff1673ffffffffffffffffffffffffffffffffffffffff16815260200190815260200160002060010160019054906101000a900473ffffffffffffffffffffffffffffffffffffffff1673ffffffffffffffffffffffffffffffffffffffff16146105b257600160008373ffffffffffffffffffffffffffffffffffffffff1673ffffffffffffffffffffffffffffffffffffffff16815260200190815260200160002060010160019054906101000a900473ffffffffffffffffffffffffffffffffffffffff1691503373ffffffffffffffffffffffffffffffffffffffff168273ffffffffffffffffffffffffffffffffffffffff1614156105ad576040517f08c379a00000000000000000000000000000000000000000000000000000000081526004016105a490610e6f565b60405180910390fd5b610443565b60018160010160006101000a81548160ff021916908315150217905550818160010160016101000a81548173ffffffffffffffffffffffffffffffffffffffff021916908373ffffffffffffffffffffffffffffffffffffffff1602179055506000600160008473ffffffffffffffffffffffffffffffffffffffff1673ffffffffffffffffffffffffffffffffffffffff16815260200190815260200160002090508060010160009054906101000a900460ff16156106b5578160000154600282600201548154811061068957610688610c97565b5b906000526020600020906002020160010160008282546106a99190610cf5565b925050819055506106d5565b81600001548160000160008282546106cd9190610cf5565b925050819055505b505050565b6000806000905060005b60028054905081101561075d57816002828154811061070657610705610c97565b5b906000526020600020906002020160010154111561074a576002818154811061073257610731610c97565b5b90600052602060002090600202016001015491508092505b808061075590610e8f565b9150506106e4565b505090565b60008054906101000a900473ffffffffffffffffffffffffffffffffffffffff1673ffffffffffffffffffffffffffffffffffffffff163373ffffffffffffffffffffffffffffffffffffffff16146107f0576040517f08c379a00000000000000000000000000000000000000000000000000000000081526004016107e790610f4a565b60405180910390fd5b600160008273ffffffffffffffffffffffffffffffffffffffff1673ffffffffffffffffffffffffffffffffffffffff16815260200190815260200160002060010160009054906101000a900460ff1615610880576040517f08c379a000000000000000000000000000000000000000000000000000000000815260040161087790610fb6565b60405180910390fd5b6000600160008373ffffffffffffffffffffffffffffffffffffffff1673ffffffffffffffffffffffffffffffffffffffff16815260200190815260200160002060000154146108cf57600080fd5b60018060008373ffffffffffffffffffffffffffffffffffffffff1673ffffffffffffffffffffffffffffffffffffffff1681526020019081526020016000206000018190555050565b60016020528060005260406000206000915090508060000154908060010160009054906101000a900460ff16908060010160019054906101000a900473ffffffffffffffffffffffffffffffffffffffff16908060020154905084565b600060026109826106da565b8154811061099357610992610c97565b5b906000526020600020906002020160000154905090565b600080fd5b6000819050919050565b6109c2816109af565b81146109cd57600080fd5b50565b6000813590506109df816109b9565b92915050565b6000602082840312156109fb576109fa6109aa565b5b6000610a09848285016109d0565b91505092915050565b6000819050919050565b610a2581610a12565b82525050565b610a34816109af565b82525050565b6000604082019050610a4f6000830185610a1c565b610a5c6020830184610a2b565b9392505050565b600073ffffffffffffffffffffffffffffffffffffffff82169050919050565b6000610a8e82610a63565b9050919050565b610a9e81610a83565b82525050565b6000602082019050610ab96000830184610a95565b92915050565b610ac881610a83565b8114610ad357600080fd5b50565b600081359050610ae581610abf565b92915050565b600060208284031215610b0157610b006109aa565b5b6000610b0f84828501610ad6565b91505092915050565b6000602082019050610b2d6000830184610a2b565b92915050565b60008115159050919050565b610b4881610b33565b82525050565b6000608082019050610b636000830187610a2b565b610b706020830186610b3f565b610b7d6040830185610a95565b610b8a6060830184610a2b565b95945050505050565b6000602082019050610ba86000830184610a1c565b92915050565b600082825260208201905092915050565b7f486173206e6f20726967687420746f20766f7465000000000000000000000000600082015250565b6000610bf5601483610bae565b9150610c0082610bbf565b602082019050919050565b60006020820190508181036000830152610c2481610be8565b9050919050565b7f416c726561647920766f7465642e000000000000000000000000000000000000600082015250565b6000610c61600e83610bae565b9150610c6c82610c2b565b602082019050919050565b60006020820190508181036000830152610c9081610c54565b9050919050565b7f4e487b7100000000000000000000000000000000000000000000000000000000600052603260045260246000fd5b7f4e487b7100000000000000000000000000000000000000000000000000000000600052601160045260246000fd5b6000610d00826109af565b9150610d0b836109af565b9250827fffffffffffffffffffffffffffffffffffffffffffffffffffffffffffffffff03821115610d4057610d3f610cc6565b5b828201905092915050565b7f596f7520616c726561647920766f7465642e0000000000000000000000000000600082015250565b6000610d81601283610bae565b9150610d8c82610d4b565b602082019050919050565b60006020820190508181036000830152610db081610d74565b9050919050565b7f53656c662d64656c65676174696f6e20697320646973616c6c6f7765642e0000600082015250565b6000610ded601e83610bae565b9150610df882610db7565b602082019050919050565b60006020820190508181036000830152610e1c81610de0565b9050919050565b7f466f756e64206c6f6f7020696e2064656c65676174696f6e2e00000000000000600082015250565b6000610e59601983610bae565b9150610e6482610e23565b602082019050919050565b60006020820190508181036000830152610e8881610e4c565b9050919050565b6000610e9a826109af565b91507fffffffffffffffffffffffffffffffffffffffffffffffffffffffffffffffff821415610ecd57610ecc610cc6565b5b600182019050919050565b7f4f6e6c79206368616972706572736f6e2063616e20676976652072696768742060008201527f746f20766f74652e000000000000000000000000000000000000000000000000602082015250565b6000610f34602883610bae565b9150610f3f82610ed8565b604082019050919050565b60006020820190508181036000830152610f6381610f27565b9050919050565b7f54686520766f74657220616c726561647920766f7465642e0000000000000000600082015250565b6000610fa0601883610bae565b9150610fab82610f6a565b602082019050919050565b60006020820190508181036000830152610fcf81610f93565b905091905056fea26469706673582212206515e0d4793d6efdafa89fcd196b3a0b38e20b9b1bd7097ba6e0318c5960ca3f64736f6c634300080a0033",
  "immutableReferences": {},
  "source": "// SPDX-License-Identifier: GPL-3.0\r\npragma solidity >=0.7.0 <0.9.0;\r\n/// @title Voting with delegation.\r\ncontract Ballot {\r\n    // This declares a new complex type which will\r\n    // be used for variables later.\r\n    // It will represent a single voter.\r\n    struct Voter {\r\n        uint weight; // weight is accumulated by delegation\r\n        bool voted;  // if true, that person already voted\r\n        address delegate; // person delegated to\r\n        uint vote;   // index of the voted proposal\r\n    }\r\n\r\n    // This is a type for a single proposal.\r\n    struct Proposal {\r\n        bytes32 name;   // short name (up to 32 bytes)\r\n        uint voteCount; // number of accumulated votes\r\n    }\r\n\r\n    address public chairperson;\r\n\r\n    // This declares a state variable that\r\n    // stores a `Voter` struct for each possible address.\r\n    mapping(address => Voter) public voters;\r\n\r\n    // A dynamically-sized array of `Proposal` structs.\r\n    Proposal[] public proposals;\r\n\r\n    /// Create a new ballot to choose one of `proposalNames`.\r\n    constructor(bytes32[] memory proposalNames) {\r\n        chairperson = msg.sender;\r\n        voters[chairperson].weight = 1;\r\n\r\n        // For each of the provided proposal names,\r\n        // create a new proposal object and add it\r\n        // to the end of the array.\r\n        for (uint i = 0; i < proposalNames.length; i++) {\r\n            // `Proposal({...})` creates a temporary\r\n            // Proposal object and `proposals.push(...)`\r\n            // appends it to the end of `proposals`.\r\n            proposals.push(Proposal({\r\n                name: proposalNames[i],\r\n                voteCount: 0\r\n            }));\r\n        }\r\n    }\r\n\r\n    // Give `voter` the right to vote on this ballot.\r\n    // May only be called by `chairperson`.\r\n    function giveRightToVote(address voter) external {\r\n        // If the first argument of `require` evaluates\r\n        // to `false`, execution terminates and all\r\n        // changes to the state and to Ether balances\r\n        // are reverted.\r\n        // This used to consume all gas in old EVM versions, but\r\n        // not anymore.\r\n        // It is often a good idea to use `require` to check if\r\n        // functions are called correctly.\r\n        // As a second argument, you can also provide an\r\n        // explanation about what went wrong.\r\n        require(\r\n            msg.sender == chairperson,\r\n            \"Only chairperson can give right to vote.\"\r\n        );\r\n        require(\r\n            !voters[voter].voted,\r\n            \"The voter already voted.\"\r\n        );\r\n        require(voters[voter].weight == 0);\r\n        voters[voter].weight = 1;\r\n    }\r\n\r\n    /// Delegate your vote to the voter `to`.\r\n    function delegate(address to) external {\r\n        // assigns reference\r\n        Voter storage sender = voters[msg.sender];\r\n        require(!sender.voted, \"You already voted.\");\r\n\r\n        require(to != msg.sender, \"Self-delegation is disallowed.\");\r\n\r\n        // Forward the delegation as long as\r\n        // `to` also delegated.\r\n        // In general, such loops are very dangerous,\r\n        // because if they run too long, they might\r\n        // need more gas than is available in a block.\r\n        // In this case, the delegation will not be executed,\r\n        // but in other situations, such loops might\r\n        // cause a contract to get \"stuck\" completely.\r\n        while (voters[to].delegate != address(0)) {\r\n            to = voters[to].delegate;\r\n\r\n            // We found a loop in the delegation, not allowed.\r\n            require(to != msg.sender, \"Found loop in delegation.\");\r\n        }\r\n\r\n        // Since `sender` is a reference, this\r\n        // modifies `voters[msg.sender].voted`\r\n        sender.voted = true;\r\n        sender.delegate = to;\r\n        Voter storage delegate_ = voters[to];\r\n        if (delegate_.voted) {\r\n            // If the delegate already voted,\r\n            // directly add to the number of votes\r\n            proposals[delegate_.vote].voteCount += sender.weight;\r\n        } else {\r\n            // If the delegate did not vote yet,\r\n            // add to her weight.\r\n            delegate_.weight += sender.weight;\r\n        }\r\n    }\r\n\r\n    /// Give your vote (including votes delegated to you)\r\n    /// to proposal `proposals[proposal].name`.\r\n    function vote(uint proposal) external {\r\n        Voter storage sender = voters[msg.sender];\r\n        require(sender.weight != 0, \"Has no right to vote\");\r\n        require(!sender.voted, \"Already voted.\");\r\n        sender.voted = true;\r\n        sender.vote = proposal;\r\n\r\n        // If `proposal` is out of the range of the array,\r\n        // this will throw automatically and revert all\r\n        // changes.\r\n        proposals[proposal].voteCount += sender.weight;\r\n    }\r\n\r\n    /// @dev Computes the winning proposal taking all\r\n    /// previous votes into account.\r\n    function winningProposal() public view\r\n            returns (uint winningProposal_)\r\n    {\r\n        uint winningVoteCount = 0;\r\n        for (uint p = 0; p < proposals.length; p++) {\r\n            if (proposals[p].voteCount > winningVoteCount) {\r\n                winningVoteCount = proposals[p].voteCount;\r\n                winningProposal_ = p;\r\n            }\r\n        }\r\n    }\r\n\r\n    // Calls winningProposal() function to get the index\r\n    // of the winner contained in the proposals array and then\r\n    // returns the name of the winner\r\n    function winnerName() external view\r\n            returns (bytes32 winnerName_)\r\n    {\r\n        winnerName_ = proposals[winningProposal()].name;\r\n    }\r\n}",
  "sourcePath": "C:\\Users\\33\\Desktop\\almamater88\\digital_museum\\almamaster88\\contracts\\FirstContract.sol",
  "compiler": {
    "name": "solc",
    "version": "0.8.10+commit.fc410830.Emscripten.clang"
  },
  "schemaVersion": "3.4.3",
  "updatedAt": "2021-11-19T09:25:16.040Z",
  "devdoc": {
    "kind": "dev",
    "methods": {
      "winningProposal()": {
        "details": "Computes the winning proposal taking all previous votes into account."
      }
    },
    "title": "Voting with delegation.",
    "version": 1
  },
  "userdoc": {
    "kind": "user",
    "methods": {
      "constructor": {
        "notice": "Create a new ballot to choose one of `proposalNames`."
      },
      "delegate(address)": {
        "notice": "Delegate your vote to the voter `to`."
      },
      "vote(uint256)": {
        "notice": "Give your vote (including votes delegated to you) to proposal `proposals[proposal].name`."
      }
    },
    "version": 1
  }
}